:020000040002F8
:1060000000540020D9220300CF870200E787020056
:106010001F880200838802004F89020000000000F0
:106020000000000000000000000000002F8B0200B4
:106030005F8B0200000000001F90020077920200B8
:1060400029230300F3920200E1090300A793020051
:106050003BA70200DFF5020079070300CFFE020034
:1060600057030300BB0303003F040300DF090300E1
:10607000EB1303001F1B0300DB1B0300DF1C0300EB
:106080000B1F0300D9DA0200B7200300E12103004F
:1060900047DB02005B22030043E002006B220300A7
:1060A0009722030037230300CD230300CF230300EF
:1060B000D1230300D32303000000000000000000F0
:1060C000D5230300D7230300D9230300DB230300D8
:1060D000DD230300DF230300E1230300E56A020060
:1060E000E3230300E5230300E7230300000000008F
:1060F00000000000E923030000000000EB23030080
:10610000000000000000000000000000000000008F
:10611000000000000000000000000000000000007F
:10612000000000000000000000000000000000006F
:10613000000000000000000000000000000000005F
:10614000000000000000000000000000000000004F
:10615000000000000000000000000000000000003F
:10616000000000000000000000000000000000002F
:10617000000000000000000000000000000000001F
:10618000000000000000000000000000000000000F
:1061900000000000000000000000000000000000FF
:1061A00000000000000000000000000000000000EF
:1061B00000000000000000000000000000000000DF
:1061C00000000000000000000000000000000000CF
:1061D00000000000000000000000000000000000BF
:1061E00000000000000000000000000000000000AF
:1061F000000000000000000000000000000000009F
:10620000011100EBD161DFF8C02C491152F82120B7
:10621000A0EB4110C24002F00100704728B10FF21C
:106220001001800141F001010847704700000000A3
:106230000338FDD870470000DFF8E42C01218150BD
:1062400000F0AFBFDFF8D82C0021815000F0A9BFCB
:10625000DFF8CC1C40588DE000F00F01DFF8DC2C9B
:1062600000064CBF10685068C840FCE0DFF8D00C56
:106270000168082904D14068401E8041C00F704762
:1062800000207047DFF8B80C0168082904BF426895
:10629000012A09D0082904BF4268022A04D008292B
:1062A00004BF4068032801D10120704700207047D7
:1062B00001064CBF0FF210010FF2200100F00F0099
:1062C00031F910007047000008010C0110011401A1
:1062D00018011C01200124012C01000030013401AF
:1062E00038013C014001440148014C0150010000CB
:1062F000010600F00F004CBF0FF210010FF2180161
:106300000122405C02FA00F070470000020304051D
:10631000060708090B0000000C0D0E0F10111213D8
:106320001400000030B54C689C4204D20025456042
:106330000968016007E04360E41A0D6805604C607D
:106340000868181808609A4203D1200002D0012082
:1063500000E00020C0B230BD4B689A4288BF1A46A8
:106360000B68036042604868801A4860086810182B
:106370000860486800B10120C0B270474B689A427B
:1063800088BF1A46002A0CBF00230B6803604260D6
:106390004868801A4860086810180860100018BF24
:1063A0000120C0B27047F8B50C4605466068DFF8BA
:1063B000647C1646864288BF0646216832463846C7
:1063C00000F0FAFF2F606E606068801B60602068DC
:1063D00030182060606800B10120C0B2F2BDF8B58D
:1063E0000C46064660681546854288BF054645B19D
:1063F000DFF8207C21682A46384600F0DDFF376050
:1064000001E00020306075606068401B60602068BB
:1064100028182060280018BF0120C0B2F2BDDFF8A4
:10642000841C020648BF903100F00F0001EB001001
:10643000704701064CBF0021102100F00F004018EA
:10644000C0B270471028ACBF103840F08000C0B216
:10645000704701064CBF0421282100F00F0001EB1A
:106460008000C0B2E8E600F0010070472DE9F0437B
:1064700083B0074600208DF804004FF0010801A802
:1064800001F010F83846FFF7CAFF04463806DFF877
:10649000886B1DD400F065F8F568E943C140C80772
:1064A00003D5384600F0BAFE0FE00020206000F06F
:1064B00058F808FA00F025EA000000F051F8B16839
:1064C00008FA00F021EA0000B0600320A0733EE06B
:1064D00007F00F01082917DA802FDFF8780C08D0B1
:1064E000490001F2B47101604168426841F0020163
:1064F00006E040F2B47101604168426841F0040175
:10650000C9B211434160406800F02BF8D6F80C90F6
:10651000B56869EA0501C140C80718D500F021F83F
:1065200008FA00F029EA000000F01AF808FA00F072
:106530002843B060002020600320A0730FF21C00ED
:106540000068716800908DF80270684688479DF871
:10655000040000F0C2FFBDE8F7830000060000035E
:10656000F060384665E781E770B5DFF8AC4AA168AE
:10657000E068090C50EA014512E095FAA5F0B0FA7E
:1065800080F6F0B2FFF75EFF00F00F00082804DA93
:10659000F0B2FFF757FFFFF769FF0120B0408543D6
:1065A000EBD140F2FF10A06070BD80B5DFF8681A33
:1065B0000020487088700FF2100000684968009051
:1065C0006846884701BD000001000000704770B5B3
:1065D0000546DFF8581BDFF8404A00200860E070ED
:1065E00001262846FFF71BFF817B03291CBF00689B
:1065F00000280BD12846FFF71CFF06FA00F0C14324
:1066000004F10C00BDE8704000F0A4BF70BD70B58F
:106610000446DFF8181BDFF8005A82B0002008603B
:10662000E87001262046FFF7FAFE817B032904D19A
:1066300000F019F900F016F80EE0006860B900F0FB
:1066400012F900F00FF80FF2180000686968009066
:106650008DF802406846884700F099F973BD000044
:106660000600000006FA00F0C14305F10C0000F03E
:1066700071BF38B500F040F88020FFF7D0FE817B75
:1066800003291CBF006800280BD18020FFF7D1FE32
:1066900005FA00F0C14304F10C00BDE8344000F0FD
:1066A00059BF31BD812092E7822090E783208EE799
:1066B00084208CE785208AE7862088E7872086E784
:1066C00038B500F019F88820FFF7A9FE817B03296F
:1066D00001D1882036E0006858B98820FFF7A9FE6C
:1066E00000F035F80FF20C0000F06BF8882000F095
:1066F00064F831BD06000000DFF8301ADFF88C4B7B
:1067000000200860E0700125704738B5FFF7F4FFFE
:10671000FFF785FE817B032901D1002012E000688C
:1067200058B9FFF786FE00F012F80FF2140000F0DF
:1067300048F8002000F041F831BD00F051FD31BDB6
:1067400006000000FFF775FE00F001F831BD05FA04
:1067500000F0C14304F10C0000F0FCBE012056E73C
:10676000022054E7032052E7042050E705204EE7BB
:1067700006204CE707204AE710B5DFF8B019DFF82C
:106780000C4B82B000200860E0700820FFF747FE45
:10679000817B032910D0006870B90820FFF749FEFB
:1067A000012101FA00F0FFF7D4FF0FF6843000F06A
:1067B00008F8082000F001F813BD8DF802006846C3
:1067C0000847006861680090704770B50FF6643044
:1067D000DFF8BC4A82B0006800900125206EADF859
:1067E00002008820FFF725FE05FA00F6206850B168
:1067F000C10302D410F1010F05D00820FFF719FEE4
:1068000005FA00F00643DFF8841A88683043886090
:1068100068464968884773BD10B5DFF8702A82B0B2
:10682000936801248C4023439360D368CB40516824
:10683000020604D5DA070AD40FF6FC2203E0DA07D1
:1068400005D40FF6F82212680092FFF7B6FF13BDC9
:1068500010B5DFF8380A847800F005F801462046C4
:10686000BDE81040D8E72046E3E5F8B5DFF8240A94
:10687000DFF8184A0568A168E068A678C94389B2BC
:1068800041EA00073046FFF7D4FDC740F80744BF90
:106890003046FFF7EBFD280654BF00208020A07093
:1068A00001260020FFF7C5FD05468020FFF7C1FD4A
:1068B00006FA05F106FA00F00843FFF74AFFA5685B
:1068C0008020FFF7B6FD06FA00F02843A0600FF61F
:1068D0007020FFF776FF68468847F1BD38B5DFF8CE
:1068E000B80900F08FFB00F08FFBE005DFF82857B8
:1068F00005D5012068700FF64C2000F01AF8A005AD
:1069000005D5002068700FF6402000F012F86005F1
:106910000ED5687860B1002068700120DFF87C191E
:1069200008605820FFF788FC0FF6202000F001F8DF
:1069300031BD0068696800906846084738B5DFF8DF
:10694000600900F05FFBFFF791FCB0B1DFF83C0994
:10695000016921F0011201F00111144301610CE001
:1069600094FAA4F0B0FA80F5E8B2FFF76BFD0121CC
:10697000A9408C43E9B2FFF74FFF002CF0D1BDE8EE
:10698000314004E090FAA0F0B0FA80F070472DE9B1
:10699000F041DFF8844684B0E078002840F0A08021
:1069A0000FE00220B073394604F10C0000F0D2FD74
:1069B0000FF69C100068616802908DF80A5002A8DA
:1069C0008847E068A168084000F08A8010F0012F35
:1069D00018BF00F00120FFF7D5FF0746FFF732FD93
:1069E0000546FFF71CFD06460120B840C7432806B0
:1069F00005D5B28971683368684698470FE0284624
:106A000000F096FB8046B2897168D6F800C0434614
:106A10006846E047009911B101994145C1D300B9D9
:106A20003060DFF80817822008600120E07005F070
:106A30000F02A06801993840A0601346B06808189A
:106A4000B0602C06019800990AD5082AA8BFDFF883
:106A5000542809DA142212FB03F2DFF84C380BE059
:106A6000082A04DBDFF844281160506007E0142294
:106A700012FB03F2DFF83838D150D1184860FFF725
:106A8000F5FB18B34FF48270FFF7DCFB2846FFF7E5
:106A9000E0FC0220FFF7C2FB4FF48270FFF7D8FB47
:106AA0000028EFD01E2000E00220FFF7B7FBDFF840
:106AB000040800688006F7D50120FFF7AFFB2846E1
:106AC000FFF7F6FBFFF7C4FB50B9DBE72846FFF7FB
:106AD000C0FC2846FFF7ECFBFFF7BAFB0028F8D014
:106AE000BDE8FF812DE9F843DFF8CC07D0F800803E
:106AF000474600264FF00109002F11E097FAA7F052
:106B0000B0FA80F0810001F5807409FA00F520B236
:106B1000FFF79EFB18B120B2FFF794FB2E43AF4363
:106B2000ECD1FFF7A3FBDFF8F014CA7882F0010282
:106B3000104264D0B00262D5DFF8800740F2A9723B
:106B400002604368DFB217B147683B40DBB240F2F6
:106B5000AA770760D0F804C05FFA8CF424B14468C7
:106B600004EA0C045FFA84FC40F2AB7EC0F800E05B
:106B70004468E5B215B145682C40E4B240F2AC750A
:106B8000056045682B40DBB22BB10D691D430D61DB
:106B900002604360426840F2AD720260426802EAFD
:106BA0000C02D2B232B10B6943EA02430B610760B7
:106BB0004260426840F2AE72026042682240D2B245
:106BC0005AB1D30748BF46F40006D30648BF46F083
:106BD0000106C0F800E042604068086930F0011228
:106BE0001CBF08F08072164310F0011F07D05FEA47
:106BF000485204D520F00110086146F48066F00D7B
:106C000000F0010536F400060FF2487709E096FA25
:106C1000A6F0B0FA80F457F82400804709FA04F08F
:106C20008643F4D1FFF7B3FE002D1CBFBDE8F1434E
:106C3000FFF71BBEBDE8F18370B5010001D107204D
:106C400070BDDFF848160A780AB1082070BD4860A8
:106C50000025012008704FF4007445F0800606F00E
:106C60000F000828ACBF21464021304600F06AF9E9
:106C70003046FFF7D4FB00F013F8EEDB002505F0FB
:106C80000F000828ACBF21464021284600F05AF9E1
:106C90002846FFF7C4FB00F003F8F0DB002070BDCE
:106CA000002181736D1C0160092D81607047DFF840
:106CB000DC050178012901D00820704700214160DE
:106CC0000170002070472DE9F041DFF8CC6582B0FB
:106CD0004FF40068C6F8008000F096F9FFF7D2FA8A
:106CE00049F27534DFF8D85570B100F017FA296809
:106CF000DFF8D00521B92C60032101602C6001E090
:106D00000321016000F010FB00F008FA286820B9A8
:106D10002C60C02068612C6001E0C02068619DF893
:106D20000000DFF8A47500F0D8FB0120386000F007
:106D30006BF930680005FCD5C6F8008000F064F9F6
:106D400000F0ECF9286818B92C6068612C6001E04B
:106D50000020686100F0E8FADFF8F80340F2E37120
:106D600001604021416000F04FF98020F86140F25D
:106D7000FF1100203863DFF8B423DFF810058160CD
:106D80000021C1601160C170817002210170BDE8F5
:106D9000F38180B500F047F8DFF81C050168416019
:106DA0000020DFF8241500F054F8DFF880130860A5
:106DB00000219948C17001210170FFF763FA90B179
:106DC00000F0ACF9DFF8F814DFF8F8040A6832B91B
:106DD00049F275320A60002303600A6001E0002175
:106DE000016000F0A1FA01BD10B58B4ADFF8DC4468
:106DF0000021517010B9FFF739FA08B1DFF8D0441B
:106E0000DFF8B404DFF8CC140460C02008708020E0
:106E1000DFF8C4140860DFF8C41408600120DFF84C
:106E2000C0140860A5E180B52720FFF7E9F978B123
:106E3000FFF79AFBDFF8A814002000F00AF8802082
:106E4000DFF8A01408604FF0FF30DFF89C140860F2
:106E500001BD0860BFF36F8FBFF34F8F7047DFF83E
:106E60002C04007800B101207047DFF8200400787E
:106E70000228ACBF01200020704710B582B000F09E
:106E800025F865484078E8B1FFF76EFBDFF80804A5
:106E90000168890516D4DFF8541401220A600068DD
:106EA000800548BF0C600DD4DFF81404016801248C
:106EB00031B949F27531016000224261016001E09F
:106EC0000021416124E0000000E100E000248DF891
:106ED0000040684600F0E6BA10B582B0FFF7F6FF52
:106EE0004D48407800281EBFDFF8000401680029E3
:106EF0000ED004600124DFF8C803016831B949F2FB
:106F000075310160C0224261016001E0C021416130
:106F100000F00AFA204616BDDFF8CC1304E00000AA
:106F200000700240DFF89013DFF8C4030860704778
:106F3000DFF85813002048707047000010750240B9
:106F40003001001010B50C46FFF769FA848110BDBE
:106F500080B5FFF764FA808902BDFFF77DB9F8B507
:106F60000446FFF7C5F9DFF8501308602046FFF725
:106F700073F940BB04F00F000125220605FA00F06A
:106F8000DFF8701303D50A681043086002E04A680E
:106F90001043486000F038F814F00F0013D02106B9
:106FA00011D408280FDA00F0B9F8204600F036F9BD
:106FB000B64EF768FFF757FC05FA00F027EA000025
:106FC000F06000F0B1F9F1BD10B50446FFF74EFADC
:106FD00004F00F00012101FA00F0C0432206DFF89F
:106FE000141303D50A681040086002E04A68104094
:106FF000486000F009F82046FFF77AF9BA490860BE
:1070000010BD000004680460BFF36F8FBFF34F8FA3
:1070100070470000808A0020C4850020F8B506462D
:107020000C46FFF706FA00F078F80F200642974F5B
:1070300004D1B878864218BF102432D100F061F82C
:10704000E840C00748BF11242BD43046FFF7E7F9CA
:1070500006F00F010C2212FB0171320611D52368D4
:10706000143103F06043A268B3F1005F04D0D2078B
:107070004CBFA14AA14A06E0D2074CBFA04AA14A90
:1070800001E08031A04A02604CCC4CC10C39416017
:1070900000240021816081730121F868A94000F07B
:1070A00036F82AE0AC800020F8B504460D46FFF71C
:1070B000C0F9064600F032F80F200442734F04D1A5
:1070C000B878844218BF102417D100F01AF8F040A5
:1070D000C00748BF112410D42046FFF7A0F90021B3
:1070E0008160002429680160696841600021817322
:1070F0000121F868B14000F00AF800F015F92046C7
:10710000F2BDB968F868C94389B2084370470843BB
:10711000F86080207D4908607047054600208DF8A2
:107120000000684600F0BEB9794870471C7C0240F8
:1071300000F00F00082805DB55480068C10304D59E
:1071400000207047734951F820007047724925E0CC
:10715000000000000078024010B50446200606D466
:10716000204600F009F810B1204600F057F86A48B0
:107170000460FFF749FF10BD00F00F01082907DA8E
:1071800000064CBF6548664850F82100012800D031
:107190000020704763490860BFF34F8F40F4807050
:1071A0000860BFF36F8FBFF34F8F704710B5044671
:1071B000082100F005FA37480168217041686170C4
:1071C0008168C26841EA022161800169426941EA3D
:1071D0000221A1808169C06941EA0020E08010BDE0
:1071E00010B5FFF743F858B1EFF3108472B64C2096
:1071F000FFF722F84C20FFF71FF884F3108810BD2A
:10720000BDE810404C20FFF717B85020FFF714B826
:107210005420FFF711B81D48807870472DE9F041E0
:1072200082B08046FFF722F808F00F040127174DBF
:1072300098B1FFF773FFAE684046FFF7FAF807FA18
:1072400000F026EA0000A86061001C4801F2C57148
:10725000016000214160406814E08DF80000FFF7F4
:1072600038FEAE684046FFF7E4F807FA00F026EA79
:107270000000082CA86005DA2649002041F8240007
:10728000FFF7C2FE00F050F8BDE8F381C48500208E
:10729000C0740240807402400074024008750240CD
:1072A0006C740240A076024000760240A077024053
:1072B0000077024074740240047302400078024078
:1072C00000EC064014ED0640007502400714C001B2
:1072D0000714E00127E400E084E200E004E100E0BC
:1072E0000475024084E100E0087302402C750240FE
:1072F0000414800110750240DF630200A7630200DE
:107300007D630200596302002563020004E200E08D
:10731000808A0020A0740240187502402074024048
:10732000447402400C7502409DF8000000F0D5B88E
:10733000060000000000000006000000060000013A
:10734000050000000200000003000000040000002F
:1073500006000002AB650200CD6502007366020004
:10736000A5660200A9660200AD660200B1660200D1
:10737000B5660200B9660200BD66020051680200EF
:10738000C16602000B6702005D67020061670200D0
:1073900065670200696702006D670200716702009D
:1073A0007567020079670200CB670200DD680200A2
:1073B0006B6802003D69020062B38B0708D0521E61
:1073C00011F8013B00F8013B00F024808B07F6D157
:1073D000830740F0208000BF103A07D330B4B1E8F3
:1073E0003810103AA0E83810F9D230BC530724BF47
:1073F000B1E80810A0E8081044BF51F8043B40F879
:10740000043BD20724BF31F8022B20F8022B44BFE3
:107410000B7803707047083A07D3B1E80810083AB0
:1074200040F8043B40F804CBF7D25307E4E7F0B44C
:10743000016844688368091801EB5402E40748BFF7
:107440004B440C3091422BD011F8014B14F0030542
:1074500004BF11F8015BED1C26090F2E07D111F8AE
:10746000016B0F3603E011F8017B03F8017B6D1E01
:10747000F9D1002EE6D0A40811F8015B04F0030452
:10748000032C08BF11F8014B05EB04241C1BB51C91
:10749000D8D014F8016B03F8016B6D1EF9D1D1E758
:1074A000F0BC704730B5EFF3108172B6134A9368A1
:1074B00073B90123124C93602568124B1D4015606F
:1074C0002360636853604FF0FF326260002200E087
:1074D0000122027001B962B630BD08498A6862B102
:1074E00058B9EFF3108072B6074A0B6813604B6807
:1074F000536000228A6000B962B67047888C002011
:1075000080E100E0FC06FFBD00E100E010B550E8BE
:10751000002F0C4640E8004393F0000FF7D11046CF
:1075200010BD000010B550E8004F44EA010240E8E9
:10753000002393F0000FF6D1104610BD10B550E8AF
:10754000002F02EA010440E8004393F0000FF6D157
:10755000104610BD10B550E8004F04EA010240E8A3
:10756000002393F0000FF6D1104610BD10B550E87F
:10757000004F04EB010240E8002393F0000FF6D126
:10758000104610BD10B550E8004FA4EB010240E8D2
:10759000002393F0000FF6D1104610BD10B550E84F
:1075A000004F8C422CBF621A224640E8002393F021
:1075B000000FF4D1104610BD0121B3E70021BDE753
:1075C000002200F00DB88268521C8260426832B11D
:1075D0000268531C036011704168491E4160704786
:1075E000401810F0030308D0C91A1FD3DB0748BFA7
:1075F00000F8012D28BF20F8022D130030B41446E6
:107600001546103928BF20E93C00FAD8490728BFA1
:1076100020E90C0048BF40F8042D890028BF20F85D
:10762000022D48BF00F8012D30BC7047C91818BFA3
:1076300000F8012DCB0728BF00F8012D7047026824
:10764000531C0360117070472DE9F04F80460FF214
:107650003060A5B015461E46D0E90023CDE91223BF
:10766000002004910D900DF1500A6FF0004900E0E8
:1076700065190020ADF8020012AB4FF0FF32294629
:107680000DF1020001F093F80446012C04DA287889
:10769000441EA441E443E40FBDF8020025280CBFBA
:1076A000A4F1010BA346BBF1010F0EDB2F4617F827
:1076B000011B0498C0470028049000F0F3800D9847
:1076C000401CBBF1010B0D90F1D1BDF80200252843
:1076D00007D100200790089009900A900B900C9019
:1076E00005E00028C4D10D98D2E240F0010015F861
:1076F000011F2029F9D023290DD02B2904D02D29B1
:1077000006D030290AD00CE040F0020080B2EEE74B
:1077100040F00400FAE740F00800F7E740F01000FE
:10772000F4E72A290ED13168316051F8042B316019
:10773000002A0F9204D5514240F004000F9180B20C
:107740006D1C11E000210F9109E00F99494505D00A
:1077500001EB810302EB430130390F916D1C2A7854
:10776000A2F130010A29F0D329782E2903D04FF055
:10777000FF310E911DE015F8011F2A2907D131684C
:1077800031606D1C51F8042B31600E9211E0002124
:107790000E9109E00E99494505D001EB810302EBFA
:1077A000430130390E916D1C2A78A2F130010A296B
:1077B000F0D3ADF840000FF2D040297801F008F87E
:1077C00008B115F8010B8DF842009DF842006828B9
:1077D00002BF29786829622005D06C2804BF287868
:1077E0006C2803D171208DF842006D1C14A80690FE
:1077F00015F8014BB4F125002AD01C3800F0D480D4
:10780000001F022840F2D080133800F0F5800938BC
:1078100000F0CA80801E00F05C81401E00F03581BF
:10782000401E022840F2C080001F00F02E81401F41
:1078300000F08B80401E00F0DF80401E35D0C01E5F
:107840000BD0801E00F0D880C01E00F0D58063E110
:1078500025208DF85000012067E19DF842006C283A
:107860003068306014D050F8047B306005970E9C6F
:10787000002C04D5384600F0B7FF044606E0224647
:107880000021384600F0CCFF00B1C41B08944DE144
:1078900050F8042B306002A9404600F033FA00286B
:1078A00040F144814FF0FF30F2E1316831603C2417
:1078B00051F8040B31600021CDE9020114A80590B4
:1078C000DDE90201069F11B908B90E9AB2B10206AC
:1078D000120FA0EB02123032D2B2631E3A2AA8BFB6
:1078E00027320009DA5540EA0170090908BF00286B
:1078F0001C4603D0059AE3199A42E8D3E019059093
:10790000C4F13C010E980891814209DA401A0A90AC
:107910004FF6EF71BDF840000840ADF8400005E1BA
:10792000002840F103819DF8400000F01400102869
:1079300040F0FC800F98079A801A0A9A801A441A1D
:10794000012CC0F2F3800A94F0E09DF84200622816
:107950001AD0682806D06A280CD06C281CD0712850
:1079600008D019E03068306050F8041B30600D9882
:107970000880DBE03068306050F8042B30600D98F0
:10798000C117C2E90001D1E03068306050F8041B33
:1079900030600D980870C9E03068306050F8041B02
:1079A00030600D980860C1E03068C01D20F007020B
:1079B0003260D2E9000108323260CDE902010029CB
:1079C00002D507982D210AE0BDF84000810702D5B5
:1079D00007982B2103E0C00705D50798202100F860
:1079E0000A10401C079014A8079908180590214612
:1079F00002A800F091FB99E09DF842006C280DD0A0
:107A0000712818BF6A2809D13068C01D20F007020C
:107A10003260D2E900010832326005E0316831603D
:107A200051F8040B31600021CDE902019DF84200BC
:107A3000682803D1DDE9020180B20BE0622803D19E
:107A4000DDE90201C0B205E0742818BF7A2804D12C
:107A5000DDE902010021CDE902019DF840000007A7
:107A60002ED5DDE90201002908BF002828D044F006
:107A70002000782824D10798302100F80A10401CF3
:107A8000411C079100F80A401AE09DF84200314677
:107A900000F001F9CDE90201002902DA07982D2151
:107AA0000AE0BDF84000810702D507982B2103E0CA
:107AB000C00705D50798202100F80A10401C079040
:107AC00014A8079908180590214602A800F0A0FA0A
:107AD0002CE09DF842006C2809D001200790306806
:107AE000306050F8041B30608DF850101EE0306894
:107AF000306001AA50F8041B3060ADF8041000207B
:107B0000ADF8060002A94FF0FF300E90404600F09D
:107B1000F9F800280AD5C5E625208DF85000012087
:107B200007901CB18AF80140022007900F9807992E
:107B3000401A0A99401A0899401A0B99401A099953
:107B4000401A0C99441A9DF84000400710D4202098
:107B5000012C8DF800000BDB274601236A4602A9A1
:107B6000404600F000FE00287FF49CAE7F1EF4D15A
:107B7000DDF81CB0BBF1000F14AF0DD017F8011BDE
:107B80000498C047002804903FF48CAE0D98401C28
:107B9000BBF1010B0D90F1D130208DF800000A9F50
:107BA000012F0ADB01236A4602A9404600F0DBFDF3
:107BB00000287FF477AE7F1EF4D1DDF820B0059F5A
:107BC000BBF1000F0DD017F8011B0498C047002827
:107BD00004903FF467AE0D98401CBBF1010B0D9073
:107BE000F1D130208DF800000B9F012F0ADB01231B
:107BF0006A4602A9404600F0B6FD00287FF452AE66
:107C00007F1EF4D105980899DDF824B00F18BBF158
:107C1000000F0DD017F8011B0498C04700280490EE
:107C20003FF440AE0D98401CBBF1010B0D90F1D11B
:107C300030208DF800000C9F012F0ADB01236A46DB
:107C400002A9404600F08FFD00287FF42BAE7F1E76
:107C5000F4D19DF8400040077FF50BAD2020012CAA
:107C60008DF80000FFF605AD01236A4602A94046E3
:107C700000F079FD00287FF415AE641EF4D1F8E41D
:107C80000000000000000000686A6C747A4C00007C
:107C900025B0BDE8F08F622826D068281DD06A285C
:107CA00008D06C2827D0712804D0742823D07A28D3
:107CB0000CD020E00868C01D20F007000860D0E963
:107CC0000023083008601946104670470A680A60A9
:107CD00052F8040B0A60002170470A680A6052F8E3
:107CE000040B0A6000B20BE00A680A6052F8040B49
:107CF0000A6040B204E00A680A6052F8040B0A60A5
:107D0000C11770472DE9F44F0D4694B0D5F830A057
:107D1000BAF1000F804648BF6FF0004A00F0ACFD9A
:107D2000696B401801900FF66C20D0E90023CDE973
:107D3000022395F83800400702D40198412805D263
:107D400040200DF110090190002609E000F09AFD95
:107D50005FEA0009F8D14FF0FF3056E1AAEB040AC0
:107D6000BAF1010FC0F2CE801498018802AA0DF179
:107D7000010000F0DFFD0028044600F1DE801498C9
:107D8000008810B9641E00F1D880A245C0F2BA8004
:107D9000686901992218914280F0A2806E63404286
:107DA000296A401AA969401A696A401AE969401AA1
:107DB000A96A461A95F83800400710D42020012EF1
:107DC0008DF800000BDB374601236A462946404602
:107DD00000F0C9FC002840F0B0807F1EF4D1D5F837
:107DE00014B0BBF1000F4F460DD017F8011BA86867
:107DF000C0470028A86000F0A080E86A401CBBF1E2
:107E0000010BE862F1D130208DF800002F6A012FBC
:107E10000ADB01236A462946404600F0A4FC0028FC
:107E200040F08B807F1EF4D1D5F818B0EF68BBF11D
:107E3000000F0CD017F8011BA868C0470028A860E5
:107E40007BD0E86A401CBBF1010BE862F2D1302024
:107E50008DF800006F6A012F09DB01236A4629466D
:107E6000404600F080FC002867D17F1EF5D1E8680D
:107E7000A969D5F81CB00F18BBF1000F0CD017F88A
:107E8000011BA868C0470028A86056D0E86A401CBB
:107E9000BBF1010BE862F2D130208DF80000AF6A2F
:107EA000012F09DB01236A462946404600F05BFCAE
:107EB000002842D17F1EF5D195F8380040070DD536
:107EC0002020012E8DF8000008DB01236A46294698
:107ED000404600F048FC80BB761EF6D100266E615D
:107EE000224668690DF101014844FFF765FA6869A7
:107EF000201868611498801C1490801E0088002847
:107F00007FF42CAF686B6969401A296A401AA96925
:107F1000401A696A401AE969401AA96AA0EB010A85
:107F200095F83800400710D4BAF1010F0DDB544624
:107F3000A8682021C047A86010B94FF0FF365DE067
:107F4000E86A401C641EE862F2D16B694A46294621
:107F5000404600F008FC0028EFD12C6A012C0ADB17
:107F6000A8683021C0470028A860E6D0E86A401C15
:107F7000641EE862F4D1AB69EA682946404600F025
:107F8000F2FB0028D9D16C6A012C0ADBA8683021E9
:107F9000C0470028A860D0D0E86A401C641EE86290
:107FA000F4D1E868A969EB690A182946404600F04F
:107FB000DAFB0028C1D1AC6A012C0ADBA8683021A9
:107FC000C0470028A860B8D0E86A401C641EE86278
:107FD000F4D195F8380040070ED5BAF1010F0BDB4C
:107FE000A8682021C0470028A860A6D0E86A401CE5
:107FF000BAF1010AE862F3D16E616E6304A88145AB
:108000001CBF484600F0A4FC304615B0BDE8F08F18
:108010002DE9FA4E05460A462F696F2A08BF082443
:1080200005D041F02000782814BF0A2410243C26F3
:10803000D5E90001642A18BF692A81468A4605D11C
:10804000002903DAD9F100096AEB4A0ABAF1000FF4
:1080500008BFB9F1000F0CD1286B50B9082C36D1EC
:1080600095F83800000732D530203B2687F83B00D2
:108070002DE0E31748465146224600F0A9FCA4FB38
:108080000023A9EB02023032D2B2A6F1010B3A2A48
:108090005E4603DB9DF80030513B9A180BF8072031
:1080A00081465FEA010A08BFB9F1000F03D0E86812
:1080B000F1198842DDD3082C09D195F83800000762
:1080C00005D5F05D302802D0761E3020F055C6F17F
:1080D0003C00A861F119E960296B884208DA081AA6
:1080E00028624FF6EF71288F08402887BDE8F38E8D
:1080F00000290ED595F8381001F01401102908D187
:10810000696B6A69891A2A6A891A0E1A012EA8BF30
:108110002E62BDE8F38E00002DE9F24F04468EB0CA
:10812000D4E90001CDE9020104AF9DF8380040F028
:10813000200BBBF1610F0AD0206B002848BF06203E
:1081400004D408BFBBF1670F01D10120206361682F
:10815000C1F30A5040F2FF7290421CD1080304BFE1
:108160002068002809D10320A0619DF838006138FB
:108170001A2836D30FF2306108E00320A0619DF881
:10818000380061381A2829D30FF21461E0680322FD
:10819000FFF712F9BEE1012816DA204600F08FFC45
:1081A000012811DB00250020BBF1610F20D1E1681F
:1081B000302201F8012B4A1CE2609DF83820612A28
:1081C0000CBF782258220FE0626840F2FE3161F362
:1081D0001E52451A62604FF0FF30E5E70FF2BC51C6
:1081E000D4E70FF2C051D1E70A706169891C61615F
:1081F00010B90026002584E1BBF1610F40F09880A2
:10820000206B00284CBF2126461CD4E900ABDDE9D9
:1082100002010022002300F073FC36B23ABF8BF05B
:108220000040CDE902A0CDE902AB06F101082D1F07
:10823000B8F1010F8DF810200DF1110736DBDDE9E3
:1082400002010022002300F073FC2FD21C2102A89F
:1082500000F086FCDDE9020100F00CFDA8F1070842
:10826000B8F1010F814609DB00F030FD02460B46F4
:10827000DDE9020100F042FDCDE90201F81D072110
:1082800005E009F00F0200F8012D4FEA2919B9F1B4
:10829000010F01DB491EF4D5491E5CBF002200F826
:1082A000012DF9D5C71DB8F1010FC8DA0DF1110084
:1082B000391AB142B8BF0E4636B230000DF111077F
:1082C0002FD4884206DA04A9411849780829A8BFA2
:1082D0000F2100DA002104AA821800E0761E12F8AD
:1082E0000139401E8B42F9D00F2904D104A941184D
:1082F0004A78521C4A70002802D504AF761C2D1D06
:1083000036B2701E0DD4C1190A783032D2B23A2A70
:1083100003DB9DF838303A3B9A18401E01F80129DA
:10832000F2D5206B002840F1EC80701E2063E8E05D
:10833000DDE902010022002300F0E2FB3CBF81F0F6
:108340000041CDE902012DB247F2975068434B49F5
:10835000DFF82C9190FBF1F52DB2C5F1070ABAF1C7
:10836000010F90461CDBDDE902675FEACA7007D5A2
:1083700042464B463046394600F080FD06460F46E1
:108380004046494642464B464FEA6A0A00F076FDAF
:10839000BAF1000F80468946E7D1CDE9026724E0B3
:1083A000CAF1000A0026374F14E05FEACA7007D509
:1083B00042464B463046394600F060FD06460F46C1
:1083C0004046494642464B4600F058FD4FEA6A0A8D
:1083D00080468946BAF1000FE7D1DDE90201324655
:1083E0003B4600F01DFECDE90201BBF1660F0CBF5C
:1083F00005F10A000620216BDFF88C904618142E38
:10840000A8BF132630208DF810000DF11107012EA2
:108410003CDBDDE9020100F043FC07F10801042226
:108420000A23B0FBF3F303EB8307A0EB47003030E4
:1084300001F8010C0A20B3FBF0F000EB8007A3EB7E
:1084400047033033521E01F8023DE9D1083E012EA8
:1084500001F10807DBDBDDE9020100F021FC00F09F
:108460003FFC02460B46DDE9020100F047FC00221A
:108470004B4600F003FDCDE90201CAE7A0860100EA
:10848000000024400000F03F84D797410DF1110017
:10849000381A0DF1110702E0401E6D1E7F1C39785D
:1084A0003029F9D0BBF1660F02D12DB2691C04E06E
:1084B000BBF1650F0CBF01210021226B8E1836B273
:1084C000B042B8BF064636B231001AD4814204DA4F
:1084D000C85D3528A8BF392000DA3020CA19521EDD
:1084E00000E0761E12F80139491E8342F9D039287E
:1084F00002D1C85D401CC855002902D57F1E761CDC
:108500006D1C2DB29DF83810009533B23A462046C6
:1085100000F003F80FB0BDE8F08F2DE9F04786B00A
:1085200006468A4690461D4600F0C3FE012D406A6D
:10853000376B90F8009002DA01250FF270284AF0AC
:108540002000BDF93840662808BF641C12D0672897
:1085500076D114F1040F79DBBC4277DA96F8380053
:10856000641C000702D4BD42B8BF2F4624B23F1B93
:1085700048BF002724B2F068B169012C21DA4A1CF7
:1085800030230B54012F03DA96F83810090702D56F
:1085900002F80090521CB261E742B8BF7C4224B29C
:1085A0006142E7197162AF42B8BF3D46B3692DB26F
:1085B000F5612A4641461818FEF7FEFE781BB062A8
:1085C000BAE00818A54216DA2A464146FEF7F4FE3C
:1085D000B1696918601B012FB161706203DA96F806
:1085E0003800000705D5F06801F80090F069401CDC
:1085F000F061B762A0E022464146FEF7DDFEB069B9
:1086000020182D1B012F03DA96F83810090703D51F
:10861000F16800F80190401C2DB2B061AF42B8BFC4
:108620003D46F068B3692DB22A4604EB08011818DC
:10863000FEF7C2FEB0692818B061781B70627BE05B
:10864000BAF1610F14D14FF0700A16E0BD4204DA9E
:1086500096F83810090758BF2F467F1E48BF0027DD
:10866000BAF1670F14BF4FF0450A4FF0650A04E0F6
:10867000BAF1410F08BF4FF0500AB169F0684A1CC7
:10868000B261012F18F8013B0B5403DA96F8381049
:10869000090715D5531CB36102F80090012F0FDBB9
:1086A0006D1E2DB2AF42B8BF3D462DB22A4641469F
:1086B0001818FEF781FEB0692818B061781B706247
:1086C000F068B1690918200081F800A004D42B20BB
:1086D000487001F1020804E02D224A7001F10208FD
:1086E0006442002502AF08E00A22684600F0FAFD65
:1086F000019807F8010B6D1C009C21B20129F3DAE7
:10870000022D06DA4AF02000652804BF302008F860
:10871000010B4DB9302008F8010B07E06D1E02A8CF
:10872000285C303008F8010B012DF7DAF068B169E8
:108730000818A8EB0000F06196F8380000F014006B
:1087400010280DD17069B1690818716A0818F169AB
:108750000818B16A0818716B8842BCBF081A3062E9
:1087600006B0BDE8F087F8B504460D4616461F462C
:10877000002077B116F8011BA868A047A86030B1A7
:10878000E86A401CE86200207F1EF3D1F2BD4FF082
:10879000FF30F2BD00000000000000006E616E00BE
:1087A0004E414E00696E6600494E46003000F8B5F5
:1087B00004460D4616461F4600F0A5FD3B463246D0
:1087C0002946204601B0BDE8F04000F0B2BDFEE70A
:1087D0000278C9B28A421AB11CBF10F8012FF9E71A
:1087E00018BF00207047FEE700F10103810704D0A5
:1087F00010F8011B89B18107FAD10268B2F1013189
:10880000914311F0803F04BF50F8042FF6E710F8B1
:10881000011B11B110F8011BFBE7C01A7047FEE7FE
:10882000C9B2830706D0521E22D310F8013B9942E9
:10883000F7D11FE0083A13D302F1040241EA012103
:1088400041EA014150F8043B121F21BF4B40A3F104
:10885000013C2CEA030C1CF0803FF3D0C9B2001F8E
:10886000083210F8013B521E28BF91EA030FF8D8D6
:1088700018BF0120401E704780B500F044FD012064
:1088800002BDFEE770B5054605F10F00C408C046FD
:10889000C046E400A54232D2082C04D2082402E0EB
:1088A000083000F055F82248026811000CD1011D73
:1088B0000A6802B31368A34238BF111DF8D310E051
:1088C0001D68A5420DD2191D0B68002BF8D1126846
:1088D000011D00E0191D0B6893420CD01D68A542D4
:1088E000F8D361B10D682A68A2F10803A3420AD245
:1088F0006A680A600FE000F03FFD0028D0D1C04652
:10890000C046002070BD63190B60121B6E685E606C
:108910000B681A602C60096800291DBF4A68002A8C
:10892000091D00210160C046C04605F1080070BD68
:10893000C48C002070B504460D46164600F0E3FCDA
:10894000324629462046BDE8704000F0E5BCFEE70F
:1089500000B9704738B5A0F108042068082833D35F
:1089600010F0070F30D1C046C0461848416809B121
:108970008C4203D26160446017E019464B680BB12A
:10898000A342FAD30B685D18AC421BD3A54204D1B5
:108990002268D2180A600C4607E04A681AB12368B8
:1089A0001B199A420ED362604C60616851B1226813
:1089B00013198B4206D100230360086880182060D9
:1089C00048686060C046C04631BD0000C48C0020CD
:1089D0001B4213D1094236D12AB18446B0FBF2F0D2
:1089E00002FB10C2704700F0DDBCFCD30022002364
:1089F00070470B000200002100207047904271EB8D
:108A0000030CF6D370B5B1FA81F4B3FA83F52C1BDD
:108A1000A340C4F1200532FA05F63343A2405FF0CB
:108A20000046E64002E05B085FEA3202841A71EB1E
:108A3000030524BF204629467641F4D302000B00EB
:108A40003000002170BD012ACFD970B5140C20D0A0
:108A5000B1FA81F4B2FA82F5C4F120046419B4F1D8
:108A60002006D6D3B2405FF00044F440002502E077
:108A700052085FEA3303C61A71EB020E24BF304678
:108A8000714664416D41F3D302000B0020002900C0
:108A900070BD0C46B1FBF2F102FB11452D0445EA15
:108AA0001045B5FBF2F402FB145580B240EA0545CF
:108AB000B5FBF2F002FB105240EA044070BD30B446
:108AC000436803F0004201211B031B0B436004BFFA
:108AD0000368002B08D10DE00368DD0F45EA44046C
:108AE00044605B000360491E4468E302F4D523033D
:108AF0001B0B436043681A434260084630BC704712
:108B00004FF4001C1CEB410F94BF1CEB430F09E01A
:108B100041EA030C50EA4C0C52EA0C0C03D2994285
:108B200008BF9042704714BF8B4282427047FEE7F5
:108B30004FF4001C1CEB410F94BF1CEB430F09E0EA
:108B400041EA030C50EA4C0C52EA0C0C03D28B4263
:108B500008BF8242704714BF994290427047FEE7B7
:108B600070B504460D466068C0F30A5040F2FF71CC
:108B7000884207D16068000304BF2068002817D02E
:108B8000022070BD20B92046FFF799FF012866DA60
:108B9000012D0FDB40F2FF71091A8D420AD3606884
:108BA00000284CBF9FED2F0B9FED300B84ED000B89
:108BB000012070BD4142A942616806DA6FF31E517F
:108BC000401941EA0050606040E0401E636845196A
:108BD000012205F1350062F31F53352801F00041F1
:108BE000636003D361600020206070BD002015F138
:108BF0001F0F04DA206823600022203562606A4279
:108C000012D0401E25688041C2F12003C0439D4020
:108C100045EAD07025686668D54006FA03F32B4311
:108C200023606368D340636062680A43B0F1004F19
:108C3000626003D80DD12078C0070AD52068401C97
:108C40002060206828B96068401C60604FF0FF30E9
:108C500070BD6068884204BF20680028F6D10020FB
:108C600070BD00BF000000000000F0FF0000000029
:108C70000000F07FF446400D40EAC120490006D2D2
:108C800000F014F8004248BF6FF00040604700F069
:108C90000DF84FF0004188428CBF084640426047C3
:108CA000400D40EAC120490080F00D8040F00040B6
:108CB000490DA1F58061491C05D4D1F11F0154BFB4
:108CC000C840C01770474FF000007047010040F1E6
:108CD0000980F446404200F005F851F00041604739
:108CE000010000BF09D0B0FA80F18840C91CC1F56D
:108CF0008461090501EBD02140057047F0B44FF0C5
:108D0000004591EA030F44BF6B4000F04DBB00BF2C
:108D1000841A71EB030604D26E40001BB141121994
:108D200073414FF4001C1CEB410F34BF7CEB430636
:108D300084E00C0DA4EB1356362E7DDC012E43DCB3
:108D400045EAC32343EA525312BFD20292025B08A0
:108D5000240545EAC12141EA5051D2EBC020994196
:108D600025D407D1B0FA80F610FA06F164D00020BD
:108D7000203608E0B1FA81F6B140C6F1200220FAAF
:108D800002F21143B0404FEAF474B4EB465434F0AD
:108D900001064FEA74040AD8D6F50016760D04F0E1
:108DA0000044F04061FA06F25040F1404840C00AE9
:108DB00040EA415021F0004128BF5FEA500550F1E0
:108DC000000044EBD12137E045EAC323DB0A45EA42
:108DD000C121C90AB6F120050EDD42EA0242120C99
:108DE000C5F1200603FA06F6EB4042EA06056D429D
:108DF000984161F100010DE062FA06F5F24055403C
:108E000063FA06FC82EA0C02F3405A406D4290413C
:108E100061EB030111F4801F05D1641E620502D0CD
:108E20006D004041494121F48011430875F1004330
:108E300050F1000041EB0451F0BC70471CEB410FB6
:108E400015D223F0004352EA43060BD04FEA4C0CF4
:108E5000BCEB410F04D80C0D661E342EB7DDEBE7DA
:108E6000801A994150EA410608BF0021E4E708BF93
:108E70001CEB430F28BF6FF00001DDE7B0B581EABE
:108E8000030C0CF0004C40F2FF7515EA11541DBFA5
:108E900015EA1357AC42AF4239E0E41923EA4553CF
:108EA00043F48013C90241F0004141EA505EC70219
:108EB0001100A7FB020200284FF00000EEFB01208A
:108EC0004FF00001E3FB072118BF42F001024018F8
:108ED00000214941E3FB0E01A4F580640F0302D297
:108EE00052004041494154F101046CDD470872F1E0
:108EF000004250F1000051EB0451A1F580115CBF1C
:108F000041EA0C01B0BD4CEA05510020B0BD05EAB4
:108F10001357AC4214BFAF4241E050EA410E1CBFB0
:108F200052EA430E02E061460020B0BD24423C44B8
:108F30001BD15FEA070EF6D0090302BF01460020ED
:108F4000AEF1140EB1FA81F7AEEB070401FA07FE99
:108F50000C37C7F1200100FA07F7C8404EEA000EAF
:108F600023EA455343F48013A2E733F00043B3FAF6
:108F700083F704BFB2FA82FE77440B3FE41BB7F1DC
:108F8000200E2FBF02FA0EF3BB40C7F1200E22FACB
:108F90000EFE38BF43EA0E03BA40641C82E750EA73
:108FA000410E14BF52EA430E6FF000014FF4001758
:108FB00017EB430F8ABF194617EB410FB5E74CEA91
:108FC00005510020B0BDD4F10104B4F120070FDA3F
:108FD000C4F12007520828BF42F0010210FA07F539
:108FE00001FA07F7E1BF2A43E0403843E1400FE0D0
:108FF000352C98DCC7F1200452EA400220FA07F22F
:1090000018BF42F0010231FA07F0A1400A430021E3
:1090100072F1004250F1000051EB0C01B0BDFEE7CF
:109020002DE9F04140F2FF7581EA030C0CF0004C91
:1090300015EA11541DBF15EA1357AC42AF42E9E0DF
:10904000BC41C1F31301C3F31303801A994143F4E4
:10905000801304D2641E4000494180185941C9025E
:1090600041EA5051B1FBF3F603FB1611A2FB067562
:10907000D7EBC020A94102D2761E80185941C902FF
:1090800041EA5051B1FBF3FE03FB1E11A2FB0E752A
:10909000D7EBC020A94103D2AEF1010E801859418F
:1090A000890241EA9051760546EA8E2EB1FBF3F62D
:1090B00003FB1611A2FB0675D7EB8020A94102D253
:1090C000761E80185941C90241EA50514EEA060EF7
:1090D000B1FBF3F603FB1611A2FB0675D7EBC0201C
:1090E000A94102D2761E80185941C90241EA505165
:1090F000B1FBF3F703FB1711A2FB0735D3EBC0203D
:10910000A94167F100070CBF004247F0010766F371
:10911000D5274FEA1E31B80814F5806414DDBD0769
:1091200075F1004250EB0E5051EB045111F5801FC8
:109130005CBF41EA0C01BDE8F0814CF07F6141F079
:10914000E0410020BDE8F081BD076D0840EA0E5007
:1091500041F48011D4F10104B4F120060ADAC4F11B
:1091600020060200E04001FA06F3E1401843B24055
:1091700015430EE0342C14DCC6F1200445EA40050A
:109180006D0820FA06F2154321FA06F0A1400D43BE
:10919000002175F1004250F1000051EB0C01BDE8D7
:1091A000F08100205FEA0C01BDE8F081CFB9921890
:1091B0005B41B3FA83F704BFB2FA82F6BF190B3FE3
:1091C000B7F120062FBF02FA06F3BB40C7F1200615
:1091D00022FA06F638BF3343BA401CB1E419641EC4
:1091E0002FE77F4231F00041B1FA81F404BFB0FAB9
:1091F00080F6A4190B3CB4F120062FBF00FA06F14B
:10920000A140C4F1200620FA06F638BF3143A04041
:109210003C1B16E7AC421ABF05EA1357AF4214E0F5
:1092200050EA41061CBF52EA4306BFE750EA410735
:10923000304661461CBF41EA0551BDE8F08152EA63
:10924000430C08BFC143BDE8F08100204FF4001675
:1092500016EB410F98BF16EB430F08BF16EB410FFB
:1092600024BFC14305E016EB430F0CBF61464CEA37
:109270000551BDE8F081FEE780B51348C046C04601
:109280000FF24C020FF244010160426241600FF2A2
:109290004402826381600FF24402C1600161416156
:1092A00081618162C16201634163C263016441649F
:1092B00001BD10B50448C046C0460446206808B940
:1092C000FFF7DAFF204610BD5833002000000000F1
:1092D0002E00000066616C73650000007472756595
:1092E0000000000091FBF2F303FB1211C0E9003112
:1092F0007047FEE710B50446DFF81800C046C046C8
:1093000050F8240010BD80B5DFF80800C046C04604
:10931000806902BDEC32002030B430B90FF2480051
:10932000D0E90045C2E900451BE00170012030BCD6
:10933000704730B431B90FF23800D0E90045C3E9C5
:1093400000450EE01AB930BC6FF00100704708B15B
:109350000A7802800978481E804130BCC043C00FA3
:109360007047002030BC7047000000000000000083
:1093700000000000000000000749086808B1002054
:1093800070470648C008C00008600549C908C90000
:10939000091A0160704700BFCC8C002007540020E0
:1093A000007400207047FEE7841A71EB030603D2B5
:1093B000001BB141121973414FF4001C1CEB410F0B
:1093C00034BF7CEB430443E00C0DA4EB1356352E65
:1093D00050DC45EAC323DB0A45EAC121C912B6F1D4
:1093E00020050DDD63FA05F6EB4086EA030512421F
:1093F00018BF45F00105C01851F100010CD213E06F
:1094000062FA06F5F2405540F3415A40B340F3404A
:109410005A408018594107D349085FEA30005FEA93
:10942000350528BF45F0010501F58011420875F1A9
:10943000004250F1000041EB0451F0BC4FF4001C1D
:109440001CEB410F38BF70470020090D090570471C
:109450001CEB410F10D252EA43060BD0BCEB410F7C
:1094600005D80C0DAB43661E342EB5DD02E0AB43D0
:1094700080185941F0BC7047F0BC704710B5DFF858
:10948000A4080FF6F00401F0CDF818B12246AA2185
:1094900001F044F9012001F087FA28B12246BDE825
:1094A0001040AD2101F03AB910BD30B5044600F0CE
:1094B000CAF985B040F00305207804282BD006288F
:1094C00002D007280ED02FE00FF6E40001F016FBC3
:1094D000606848B305B0BDE830400FF69802BF2180
:1094E00001F01CB90FF6041001F008FBDFF8381882
:1094F0000120487060688179039141790291017976
:109500000191C1780091837842780FF614112846B2
:1095100001F080FC08E00FF63811284601F056FCF7
:1095200005B0BDE83040A9E705B030BD0146DFF821
:10953000FC0701F0E9BD70B50446DFF8F407DFF879
:10954000F4170FF63005401AC0080004217840F0E7
:10955000010019B1022930D037D370BDDFF8D847E8
:10956000DFF8D867B4F8F400001901F098FFB4F8F8
:10957000F400401CA4F8F40080B2011911F8011C99
:109580000A2902D0B18A88422BD30FF6501001F07D
:10959000B5FAB4F8F4202146301D01F069FE082820
:1095A00007D01328F5D020B12A4640F2651101F00A
:1095B000B5F80020A4F8F40070BD0FF6381101F0E2
:1095C00005FC2A4640F2711106E00FF65C1101F02D
:1095D000FDFB2A464FF4BB716068BDE8704001F0A6
:1095E0009DB870BDF8B504460D46DFF84407DFF8B6
:1095F0004417DFF83467401AC008000440F003073E
:109600002878032855D8DFE800F00225434A0FF6F2
:109610004411384601F0DAFB698805F10E02204654
:1096200001F05AFE0FF24C7520B12A4640F291111A
:1096300001F074F8204601F0FAFD20B12A464FF4FB
:10964000CA7101F06BF83846BDE8F4400FF6181106
:1096500001F0BCBB297B0FF6401001F04FFA2C7BC8
:10966000AD680FF2FC70214601F048FAE8780090EE
:10967000AB786A7829780FF61C0001F03FFA224691
:1096800029460FF6A84002F0EAFB00203070F1BD39
:10969000297B0FF64810BDE8F44001F02FBA0020F6
:1096A000707038460FF6781101F090FBBDE8F1407C
:1096B000E4E6F1BD38B50446002001F075F90FF27B
:1096C000B46520B12A464FF4DA7101F027F83CB9AD
:1096D00002F05FFC20B12A4640F2BB1101F01EF8F7
:1096E000012032BD70B582B0041DDFF84416DFF8EA
:1096F000442600880FF27C65891AC90809041028DD
:1097000041F003060ED0112835D0132847D01B286E
:109710003DD01F284DD0212853D03B285DD056285E
:1097200063D073BD0FF6081001F0E8F90FF634119D
:1097300000F01CFBDFF8046621880022301D01F0D8
:10974000CBFD20B12A4640F2D91100F0E7FF0720F7
:1097500001F02AF920B12A464FF4EE7100F0DEFF45
:10976000218806F1640002F0D6FE002846D02A4681
:109770004FF4F07140E00FF61C1001F0BFF92379AF
:1097800022880FF64811304601F02AFB73BD20797C
:10979000022833D10FF6641100F0E8FA73BD208877
:1097A0000023002285217FDF40B32A464FF4FA715F
:1097B00022E02088211D75DF00B32A4640F2FB110C
:1097C0001AE00FF6903000680090694620888FDF1D
:1097D000A0B12A4640F207210EE02088132176DF4F
:1097E00060B12A4640F20F2106E02088132176DF7F
:1097F00020B12A4640F2172100F090FF73BD38B522
:109800000C4640F67721208888421BD100F01BF8D7
:1098100040F003050FF60411284601F0D7FA0FF6C1
:10982000181001F06BF9A0880FF64011C21EDFF886
:109830000C058282284601B0BDE8304092B2134642
:1098400001F0CEBA31BDDFF8E804DFF8E814401AC1
:10985000C0080004704738B5DFF8E444DFF8E414CA
:109860000FF21055204602F0B6FF20B12A4640F212
:109870004F2100F053FFF721204602F0BBFF30B12B
:109880002A46BDE8384040F2522100F047BF31BDC2
:10989000042804D00A2811D1002003F074B9DFF89D
:1098A0009C04C088132176DF082818BF002805D043
:1098B0000FF2C04240F2692100F030BF704703F060
:1098C00012BA38B5DFF86814DFF868240FF2A44440
:1098D000DFF85454891AC9080904082841F0030222
:1098E00009D0092813D00A2826D00E2837D1BDE880
:1098F000314003F031BC0FF69C01104601F066FACE
:10990000FDF7B3FA58BBBDE8314003F023BC0FF6B6
:109910009801104601F05AFA05F1100004F088F998
:1099200020B1224640F2E32100F0F8FE0020A870AA
:10993000BDE8314003F01EBC0FF68001104601F077
:1099400045FA00F070F820B122464FF43C7100F067
:10995000E5FE0120A870BDE8314003F0FFBB31BD3A
:109960002DE9F041DFF8C803DFF8C8230FF2044403
:109970000FF6B818DFF8B053DFF8CC63801AC008D0
:109980000004032940F003074BD8DFE801F02F2C37
:10999000021B01223146404602F080FA05F1100018
:1099A00004F046F920B1224640F2123100F0B6FE32
:1099B000022003F07CF93846BDE8F0410FF60801BB
:1099C00001F004BA0FF61401384601F0FFF9A87847
:1099D00038B300F028F820B32246BDE8F04140F249
:1099E0001F3100F09BBE012028701AE00024DFF830
:1099F0005C73A8883178C155401CC0B2A880012290
:109A00002889401C28813146404602F047FA641CF0
:109A10000028EED00FF2D8702146BDE8F04101F0E9
:109A20006DB8BDE8F081022246F2666105F11000D2
:109A300004F0BFB870B504460D460FF2EC70BF4E8F
:109A400001F05CF82A462146301D01F011FC00208F
:109A5000307070BD70B50021BC48B34C0BE0E2889B
:109A6000165C89B24D19521C85F80062D2B2E280B0
:109A7000491C5A1E22812389B54D002BEFD189B292
:109A800019B105F50070FFF7D5FFE1890026B9B1DE
:109A90000FF2C07001F032F80CE0E1884919B6B25B
:109AA00091F800117155401EA189E081491CC9B28D
:109AB000761CA181E0890028EFD1B6B206B12070F2
:109AC00070BD994800218180C180018141818181DF
:109AD000C18141707047F0B5984C8DB0402104F1C0
:109AE0002400FDF76DFD0FF2A4730FF2987104F1DD
:109AF000180204F1240004F0CFF84FF400410020D4
:109B000001F00EF80FF26C2520B12A464FF42D71AA
:109B100000F004FE04F0DAF804F016F820B12A464A
:109B200040F29B3100F0FAFD8A4E0FF2F870324697
:109B3000012104F02BF820B12A4640F29D3100F0BB
:109B4000EDFD324601210FF2E07004F01FF820B164
:109B50002A4640F29F3100F0E1FD0FF2FC717E4A8F
:109B600006A891EC060B80EC060B04F560700190E2
:109B700004F590614FF480700290039104900723E4
:109B800001A906A801F03EFC20B12A4640F2892135
:109B900000F0C4FD7149012000F010FF20B12A46F9
:109BA0004FF4287100F0BAFD05A9002002F03EFA3A
:109BB00020B12A4640F2A32100F0B0FD684802F02F
:109BC0005EFC20B12A4640F2C13100F0A7FD02F050
:109BD000ADFF20B12A4640F2B93100F09FFD04F0FC
:109BE00085F804F0ABF820B12A464FF47B7100F001
:109BF00095FDFFF728FE40F003060FF29C6100F090
:109C0000B5F80FF26C7003F032FA20B12A4640F238
:109C1000F13100F083FD0FF2147003F0F8FB20B176
:109C20002A4640F2F53100F079FD0FF28C6000F029
:109C300065FF04F0ADF920B12A4640F2292100F079
:109C40006DFD002000906946012004F03EFA20B12D
:109C50002A4640F22F2100F061FD684604F0C4FA64
:109C600020B12A4640F2332100F058FDFFF7F3FD02
:109C70003C4800906946201D01F081FA20B12A4637
:109C800040F2952100F04AFD01A8002100220023A6
:109C900000278EC001208DF808008DF8100004F513
:109CA0004C74314A01A9204600F083FC18B12A46C1
:109CB000EE2100F033FD0FF298620321204600F000
:109CC0007AFB18B12A46F12100F028FD0022042178
:109CD000204600F08AFB18B12A46F42100F01EFD50
:109CE0000FF2F85000F00AFF0FF2146100F03EF896
:109CF000FFF7C4FB03F018FA20B12A4640F20941ED
:109D000000F00CFDFFF7DDFEFFF7A4FE03F030FBD3
:109D10000028FBD101F098F80028F5D102F014FFDB
:109D2000F2E70000402F002090310020142C00208A
:109D3000C41D03007C1D0300D8830020102C0020CC
:109D4000FC8B0020FF970200D0840020D8820020E6
:109D5000247B0020BF9802003795020091980200F2
:109D60002D950200E5950200AB940200304601F00B
:109D70002DB80000443A5C576F726B5C50524F4AEA
:109D80005C44535F50524F4A5C4E6F726469635C2F
:109D90004941525F70726A5C5573624C65427269E8
:109DA0006467655F7630315C6D61696E2E630000BB
:109DB0007363616E5F6576745F68616E646C657213
:109DC0002829203A204E52465F424C455F5343417A
:109DD0004E5F4556545F434F4E4E454354494E47A0
:109DE0005F4552524F523A2E0D0A00007363616E66
:109DF0005F6576745F68616E646C65722829203ACD
:109E0000204E52465F424C455F5343414E5F45569C
:109E1000545F434F4E4E45435445443A2E0D0A007D
:109E2000436F6E6E656374696E6720746F20746132
:109E300072676574202530327825303278253032CB
:109E4000782530327825303278253032780000009D
:109E50005363616E2074696D6564206F75742E00A4
:109E6000626C655F6E75735F63686172735F726564
:109E70006365697665645F756172745F7072696E3F
:109E80007428292E646174615F6C656E3D25640DD4
:109E90000A000000626C655F6E75735F63686172D3
:109EA000735F72656365697665645F756172745F1F
:109EB0007072696E7428292E62303D253032582028
:109EC00062313D253032582062323D2530325820F3
:109ED00062333D253032580D0A0000004150505F7A
:109EE000554152545F444154415F52454144593AAF
:109EF0002E0D0A00436F6D6D756E69636174696F35
:109F00006E206572726F72206F6363757272656422
:109F1000207768696C652068616E646C696E672083
:109F2000554152542E0000004572726F72206F63CB
:109F300063757272656420696E204649464F206DD4
:109F40006F64756C65207573656420627920554176
:109F500052542E00446973636F7665727920636F83
:109F60006D706C6574652E00436F6E6E656374650D
:109F70006420746F2064657669636520776974680E
:109F8000204E6F72646963205541525420536572AC
:109F9000766963652E000000626C655F6E75735FA5
:109FA000635F6576745F68616E646C6572282920F2
:109FB0003A206361736520424C455F4E55535F43C1
:109FC0005F4556545F4E55535F54585F4556543A5B
:109FD0006C656E3D25640D0A00000000626C655FD3
:109FE0006E75735F635F6576745F68616E646C65E0
:109FF000722829203A206361736520424C455F4EE8
:10A0000055535F435F4556545F4E55535F52585FFB
:10A010004556543A6C656E3D25640D0A00000000FB
:10A02000446973636F6E6E65637465642E0000002F
:10A03000626C655F6576745F68616E646C657228DA
:10A0400029203A206361736520424C455F474150A7
:10A050005F4556545F434F4E4E45435445443A0D79
:10A060000A000000626C655F6576745F68616E640B
:10A070006C65722829203A206361736520424C4543
:10A080005F4741505F4556545F434F4E4E454354E2
:10A0900045443A00446973636F6E6E65637465642A
:10A0A0002E20636F6E6E5F68616E646C653A20424D
:10A0B0004C455F4741505F4556545F444953434FB9
:10A0C0004E4E45435445443A0D0A000044697363BB
:10A0D0006F6E6E65637465642E20636F6E6E5F686D
:10A0E000616E646C653A20307825782C2072656149
:10A0F000736F6E3A2030782578000000436F6E6EE3
:10A10000656374696F6E2052657175657374207430
:10A11000696D6564206F75742E00000041545420F1
:10A120004D54552065786368616E676520636F6D77
:10A13000706C657465642E00676174745F65767415
:10A140005F68616E646C657228293A415454204DF1
:10A1500054552065786368616E676520636F6D7024
:10A160006C657465642E0D0A00000000426C652069
:10A170004E5553206D61782064617461206C656E6A
:10A180006774682073657420746F203078255828B0
:10A190002564290055534220706F776572206465ED
:10A1A000746563746564000055534220706F776571
:10A1B000722072656D6F7665640000005553422011
:10A1C00072656164790000004344432041434D209F
:10A1D000706F7274206F70656E6564004344432035
:10A1E00041434D20706F727420636C6F736564001F
:10A1F0004150505F555342445F4344435F41434D98
:10A200005F555345525F4556545F52585F444F4E19
:10A21000453A55736220676F742062797465733AAA
:10A2200020256C752E0D0A006368616E6E656C5793
:10A2300072697465426C6528293A626C655F6E7557
:10A24000735F635F737472696E675F73656E642EAC
:10A250000D0A0000436865636B496E636F6D6D693D
:10A260006E674461746128293A626C655F62756645
:10A270006665725F6C656E6774683D2564200D0AC3
:10A280000000000025732025730000004D6172203E
:10A2900032312032303139005553424420424C454E
:10A2A0002055415254206578616D706C652073743F
:10A2B00061727465642E00005553424420424C453F
:10A2C0002055415254206578616D706C652073741F
:10A2D00061727465642E0D0A00000000424C452036
:10A2E000554152542063656E7472616C20657861CB
:10A2F0006D706C6520737461727465642E0D0A0054
:10A30000424C4520554152542063656E7472616C15
:10A31000206578616D706C6520737461727465641A
:10A320002E000000988B0020A031002070870020B4
:10A330000C220300020001060102048281010000D8
:10A34000000001018101000061990200F833002042
:10A3500001000200000000000800000006000000EC
:10A3600005000000070000000000000000E0D70129
:10A3700000000000C39802000000000070B5044611
:10A3800086B0A67C207A0D4698B18BDF00F082F96A
:10A39000334604F10A0204F11401A81C8CDF0621E3
:10A3A0008DF80010019020B1616A08001CBF68465A
:10A3B000884706B070BD10B5002818BF002A01D12B
:10A3C0000E2010BD03290ED1011D0B780BB1042006
:10A3D00010BD03881488A34203D001230B701168B9
:10A3E0000160002010BD072010BD70B504000D46AF
:10A3F000164601D10E2070BD1F20054201D1072055
:10A4000070BD204600F007F8680744BF0120607166
:10A41000A671002070BD00280FBF0E2000214171E1
:10A42000002070472DE9F04D88B004460D461421F8
:10A4300001A804F0B9F804F1140005904FF00008E9
:10A44000204600F064F8002778B102208DF804005F
:10A45000029501A8616A884704F1480100208ADF5B
:10A4600029462046FFF78AFF4EE0A6796079C2466A
:10A4700020B3207900904FF00108A88BADF81800A8
:10A48000D34601E00BF1010B00995FFA8BFB8B4582
:10A4900026DABDF81810A86904EB8B0204F0A6F8C0
:10A4A000E0B17F1C002EEDD1FFB2FFB19DF80C0092
:10A4B00040F0040001278DF80C00C24602950EB151
:10A4C000474503D08AF00100304311D100208DF8B8
:10A4D000040029462046FFF751FF0CE0002ED1D0A2
:10A4E000002EE1D00098FFB28742DFD00295E9E765
:10A4F00003208DF80400616A08001CBF01A888478A
:10A5000004F1480100208ADF08B0BDE8F08D007D2D
:10A51000C0F3C100012816BF0328012000207047A6
:10A52000017D41F00401A0220175C28201F0E70122
:10A530005022028301750022012142834175704738
:10A540004FF4C871018206214181182181810021C7
:10A55000C181704730B585B004460D1D00F09AF8F2
:10A56000287801280DD1606A58B104208DF80000C8
:10A5700004F11400049028788DF804006846616A9C
:10A58000884705B030BD30B585B000F081F8606A0D
:10A5900068B105208DF80000291D04F11400049015
:10A5A000092201A8FCF708FF616A6846884705B0E0
:10A5B00030BD70B504000E4601D10E2070BD04F10F
:10A5C00008050020EA61002103C4083CD6B13079B7
:10A5D0002870307BA872316829B104F114000E2272
:10A5E000FCF7EAFE02E02046FFF79AFFB16829B1C6
:10A5F00004F10A000822FCF7DFFE0BE02046FFF71B
:10A600009FFF07E02046FFF78BFF2046FFF798FFEC
:10A610000020287004F1280028641F20A4F84C00B2
:10A62000002070BD10B586B0040008BF0E2027D0F2
:10A6300000F030F88BDF2046FFF769FF38B1616A20
:10A64000080004D001208DF800006846884704F116
:10A65000480104F114008ADF0446082C18BF002CBE
:10A660000DD00948094B0FF29001C01AC008000430
:10A67000224640F0010000F0ACFB204600E0002044
:10A6800006B010BD00000000AC1D03007C1D0300DF
:10A6900004460D461421684603F086BF30B585B0E8
:10A6A000FFF7F6FF07208DF80000281D019028888D
:10A6B000ADF8080004F114000490616A08001CBFA2
:10A6C0006846884705B030BD0A460388011D102B37
:10A6D0000ED01B2B08D01D2B02D0202B06D070478C
:10A6E00000F1080110469DE6104633E710464AE7A0
:10A6F0001046D3E70000000073645F626C655F671B
:10A7000061705F7363616E5F7374617274207265F0
:10A710007475726E656420307825780000B583B05A
:10A72000029000910192034871466A4603F0B6FF19
:10A7300003B000BD014000007047FEE7042838BFA9
:10A7400002F0F2BA002070472DE9F84380468946AE
:10A7500002F000FB002404282FD2DFF8585300EB4E
:10A7600040014E194719B9F1000F14D0B9F1020F89
:10A770001AD01AD23478707850B105F10F024FF424
:10A78000004105F15C0003F014FA08B985F80F8068
:10A79000B078387409E005F15C0003F049FAB47848
:10A7A000387CA04209D100E0747834B1A96908006E
:10A7B00003D02046BDE8F4430847BDE8F1830078A4
:10A7C0000221C1E710B5BB48807B50B1002401E0F5
:10A7D000022C02D0204602F06FFA641C042CF7D33E
:10A7E00010BDBDE8104002F06CBA00002DE9F8433E
:10A7F000B04D0746687B002410B16C73FFF7E2FF91
:10A80000172F4FF4C8764FF47A6840F6CD4967D8D1
:10A81000DFE807F00C1515242C36494F535A535ACC
:10A82000B0676767676795999FA6B0B0FFF7CAFFE3
:10A8300005F11C0003F0FCF90446002098E000F04C
:10A84000A2F830B100F0A2F8022F14D14FF4E16663
:10A850001FE002F02CFA022F1BD119E000F093F850
:10A86000A0B100F093F84FF4487612E000F08BF8B6
:10A8700018B100F08BF846460BE002F018FA08E039
:10A8800000F081F810B100F081F801E000F078F8F4
:10A89000C826F00300F5FA704FF47A712F73002286
:10A8A000B0FBF1F117E0002002F01DFA062028733A
:10A8B00007E000F065F807205AE00120687302F015
:10A8C00012FA0022494606E00120687302F00BFAF2
:10A8D00000224FF4804105F11C0003F06AF90446A0
:10A8E0004BE005F13C0003F0A3F9D7F11106044653
:10A8F0001FD0F4B9022E17D3B6B2C8207043C117C7
:10A90000C90341EA5041C00310F5FA7041F100015A
:10A910004FF47A720023FEF75BF80146002205F13E
:10A920003C0003F046F90446022002F0C0F9012081
:10A9300003E0022002F0C0F90020A8731DE0FFF739
:10A9400041FF122014E0FFF73DFF00F019F813203B
:10A950000EE0FFF737FF012002F0A9F9142007E00D
:10A96000FFF730FF00F00CF8012002F0A0F91520ED
:10A97000287302E002F0AEF92F732046BDE8F2839F
:10A98000002002F094B9002002F087B9002002F004
:10A9900093B94848017DC90744BF007BFFF726BF34
:10A9A0007047022002F09FB9424A127D0146002002
:10A9B000D20744BF0846FFF719BF704770B5044679
:10A9C0003C48002544618161A00720D50026012272
:10A9D0000121304600F032F8761C042E054601D2E3
:10A9E000002DF4D03DB940F2666204210FF2EC0074
:10A9F00003F09CFF054615B903F0CCFF054635B9B9
:10AA00002D4A0FF2D400002103F0C0F80546E007FC
:10AA100012D5012002F0B2F935B9284A0FF2B00080
:10AA2000002103F0B3F8054635B9254A0FF2A4001A
:10AA3000012103F0ABF80546284670BD10B5002390
:10AA4000042814D2012A04D101290CBF00F10E02FE
:10AA50000022184C00EB4000001931B1022902D04D
:10AA600005D2027004E0427002E0827000E0072329
:10AA7000184610BD10B5042819D2002914BF0324AC
:10AA8000002402F077F9202832BF0E4900F01F00A1
:10AA90000D4951F8202022F4403241F8202051F88D
:10AAA000202042EA044241F82020002010BD062068
:10AAB00010BD000078880020BFA7020093A9020003
:10AAC000A3A9020000070050000A00500121D1E7AD
:10AAD00094880020B4880020D48800200B00030054
:10AAE00049A702000C00030049A702001800030058
:10AAF00049A702001900030049A702000EB400B5DF
:10AB000082B003A9009102466B46012103487844B4
:10AB10000A30FCF799FD06BC5DF810FB6577000074
:10AB200080B5DFF8A005FF21816000210160416050
:10AB300000F21440416001600173DFF88C0503F0FE
:10AB400043FF20B90FF2B45003F0E5FF002002BD2F
:10AB500030B5A9B1DFF87415DFF874250568DFF8A2
:10AB60007435891A002200E0521CB2EBD10F05D2D5
:10AB700033F82240AC42F7D1026001E0052030BD3D
:10AB8000002030BD01B56846FFF7E2FF002803BF93
:10AB9000DFF84405009950F83100002002BD0000A4
:10ABA000491EDFF83425032902EBC0000BD8DFE88B
:10ABB00001F0020406080220704704207047007963
:10ABC0007047407970470020704700680022C0F34A
:10ABD000800383B100F00302012A02D0022A04D0CC
:10ABE00008E00A68C0F3831001E00A68800D801C49
:10ABF00080180860012210467047F0B5DFF8C45491
:10AC000085B005F58360FCF7D7FC05F214463046A5
:10AC1000FCF7D2FC6868AF680090002400E0009860
:10AC2000384005EB80000C306946FFF7CEFF002866
:10AC3000F5D101AA0099394005EB8101C96842F8B4
:10AC40002010401C0099491C02280091F2D3019960
:10AC5000BDF80A0001F00301012909D002290ED133
:10AC6000019904460098890DC91C00EB910005E08C
:10AC7000044601990098C1F38311081800903046EA
:10AC8000FCF79CFC08B100986860204605B0F0BD58
:10AC900080B50021DFF84404FCF738FC80F3100095
:10ACA00002BD2DE9F04781461F46089CDFF8148459
:10ACB000781C20408A46164608EB8005FFF7E8FF1F
:10ACC000000440EA194009F00701B201E86042EAD5
:10ACD000C101890504EA0700890D08EB800041EAFB
:10ACE0008A2141F00101C160BDE8F0872DE9F04102
:10ACF00082B088461646DFF8CC73054600208DF8F2
:10AD00000000AC1C6846FCF7CDFB3868C8F80000B2
:10AD100007F21C4809E001214046FCF727FCFFF739
:10AD20006CFF01464046FCF721FCB8683968401CBE
:10AD3000401A79680818A042EDD32EB1A80100F49A
:10AD4000707040F0050002E0A80540F00600396888
:10AD5000BA68114007EB8101C86038682018386074
:10AD60009DF80000FCF7B9FB0120BDE8F6812DE954
:10AD7000F043DFF8506383B004460D469046994691
:10AD8000B768012201A94846FFF7B0FFA8B10198B2
:10AD9000801C002108E007EA000206EB820258F856
:10ADA0002130D360401C491C4945F4D300974A46E2
:10ADB000019B29462046FFF774FF96F8200418B13E
:10ADC00000F042F80028FBD1BDE8F7830023002201
:10ADD000CDE780B5009201236A46FFF7C8FF01BDA9
:10ADE00000B583B0009201936A460223FFE7FFF7A4
:10ADF000BEFF07BD00B585B0009201930523069AFA
:10AE00000292079A0392089A04926A46FFF7AFFFEC
:10AE100005B000BD00B587B0009201930623089AE3
:10AE20000292099A03920A9A04920B9A05926A4630
:10AE3000FFF79DFF07B000BDA2484168006881424E
:10AE40000CBF0120002070472DE9F04786B0FFF7C6
:10AE5000F3FFD0B99B4C04F58265A860BFF34F8F18
:10AE60006068A6680090304001E006EA010004EB4B
:10AE700080000C306946FFF7A8FE40B1A86830B9E1
:10AE8000206800998142F0D360600020D5E04FF047
:10AE9000000901A90098304004EB8000C06841F827
:10AEA000290009F101090098401CB9F1020F009036
:10AEB000F0D30199844801F003010229019945D199
:10AEC0008F0DB946502FA8BF502767F39F510191AE
:10AED00007F1080103F07AFD5FEA00084FD003F0A4
:10AEE000BDFD00F0ADF800983040711C091A8A00D1
:10AEF000BA4204EB80001BD232B93E4604F10C0189
:10AF00004FF0000A002705E000F10C01164604F19D
:10AF10000C0ABF1AF6B208233246404603F0EDFD94
:10AF2000BAF1000F0BD006F10803FAB2514603E064
:10AF300008233A4600F10C01404603F0DEFD00987C
:10AF400009F1030100EB9100009036E001F00301EC
:10AF5000012957D10199C1F383110629A8BF062100
:10AF6000019A22F4707242EA811101910199C1F3B0
:10AF70008311891C890003F029FD5FEA000841D094
:10AF800003F06CFD00F05CF808274FF000090FE0BB
:10AF90000098411C0091304004EB800000F10C014E
:10AFA0003B460422404603F0A8FD3F1D09F101097C
:10AFB0000198C0F383108145EAD32E68A86868B170
:10AFC000404603F04FFD32E0F068407920B132682E
:10AFD0001268414630469047F0680668002EF3D16B
:10AFE000404603F03FFD00208DF8100004A8FCF758
:10AFF00059FAA86808B9009860609DF81000FCF73D
:10B000006CFA14E02C6805E02168896820468847BE
:10B01000E0680468002CF7D131482D4A0FF2C801CE
:10B02000801AC008000440F00200FFF7CFFEFFF7CF
:10B0300003FF00F0010080F0010006B0BDE8F087DA
:10B040000023082201A9404603F057BD10B5002196
:10B050001C4AD2F8103400E01B684BB1DB681C7945
:10B060008C42F9D1491C0A29F3DB4FF0FF3114E07F
:10B0700011F1010F11D0C3681971C368D2F81044DF
:10B0800024B9C2F810040020186006E0E4682468BF
:10B090001C60D2F81024D2681060084610BD10B5AC
:10B0A000104804680121017408E0E168012048713A
:10B0B0002046216849688847E0680468002CF4D17C
:10B0C00010BD000000740020A4220300141E030021
:10B0D0007C1D0300000000007C1D03001C78002084
:10B0E000C41D0300107800204261636B656E6473B9
:10B0F00020666C757368656400000000F8870020A6
:10B100007F000000D08B002030B585B004460D468E
:10B110001421684603F048FA2978002904BFA98859
:10B12000012902BFA9792278914205F10E0024D1AC
:10B13000002100E0491C2A7A914212D2122202FB1D
:10B1400001021388022B08D0032B01BF1389ADF82D
:10B150000E305289ADF81020ECE71289ADF81220BC
:10B16000E8E7E268100008D06888ADF80200694698
:10B1700000208DF800002046904705B030BD70B526
:10B18000040086B00D460FF26C100FC801AE86E8C1
:10B190000F0014BF002D0E2014D0214601A862DF3D
:10B1A00080B920788DF802000120ADF800004FF63C
:10B1B000FF7060802868E0600020A08020816846E1
:10B1C00001F06BF906B070BD0246080000D170476F
:10B1D00010B586B04AB341884FF6FF7399421CBF41
:10B1E0009488A14221D11488112C12D0392C1CD161
:10B1F0008188D1B153898B4217D1C168A9B101218E
:10B200008DF8001002F110010291D1898DF80C1017
:10B2100008E092888A4208D1C16831B103218DF8D3
:10B22000001043806946C268904706B010BD7FB5E4
:10B23000010008BF0E2019D048884FF6FF729042D7
:10B240001ABFC9880029082010D001228DF80020DB
:10B2500000220FF2E0038DF8012001AA70CB70C22A
:10B26000ADF80610CDF80CD001A9A3DF04B070BD75
:10B27000FEB508B90E20FEBD154B164C1B1BDB0896
:10B280001B04F52A43F0020306DB0FF2780118468F
:10B29000FFF79CFD0720FEBD44884FF6FF75AC42CA
:10B2A00006D10FF274011846FFF790FD0820FEBD8D
:10B2B0000FF28C04E0CC6B46E0C30389ADF802309A
:10B2C000ADF80620029169464088A3DFFEBD00006C
:10B2D0009C1D03007C1D030008B90E2070474180AF
:10B2E0002AB15188C1801188818091880181002014
:10B2F000704700009ECADC240EE5A9E093F3A3B5D5
:10B300000000406E436F6E74656E7420746F6F2022
:10B310006C6F6E672E000000436F6E6E656374691C
:10B320006F6E2068616E646C6520696E76616C6911
:10B33000642E000001010000000002000000000077
:10B3400002010000000000000000000010B50478B9
:10B35000754BE35C23B1BDE81040001D03F0D8BC81
:10B36000BDE810400C3003F03DBF10B504786E4BC3
:10B37000E35C23B1BDE81040001D03F00FBDBDE844
:10B3800010400C3003F0AABF1CB50178674C61B3C4
:10B39000022922D035D24068017804F1180004F067
:10B3A00006F9A16A20B101228DF80020019006E083
:10B3B000206A626A101A04D000208DF800006846E6
:10B3C0008847206AA18B626A101A814202D300F07A
:10B3D0007CF813BD0120207013BD8DF800100122F0
:10B3E000C068019000F072F808E000F092F810B91F
:10B3F00000F095F813BD03208DF800006846A16A9F
:10B40000884713BDF0B5494D89B004460F00AA62C4
:10B410001E4608BF072040D07A68396892B205F10D
:10B42000180004F0B3F8002837D1FA68B96892B26E
:10B4300005F1300004F0AAF878BB0FF24C11684611
:10B4400091EC080B80EC080B60690690207C00B141
:10B4500001208DF814008DF81C60607C00B10E2076
:10B460008DF815006946E068314A0290A0680390A3
:10B470002068019060680090281D04F0CFF860B942
:10B480002870206810F1010F06D0012205F12D016E
:10B49000281DFFF76AFF00E0002009B0F0BD70B57D
:10B4A000224C2578014604F1180004F08DF8064678
:10B4B0004DB10020207000F008F820B10FF27402A6
:10B4C000CE21FFF72BF9304670BD012204F12D018A
:10B4D000201D4AE738B5154C014604F1300004F050
:10B4E00066F8050013D121790F48085C20B104F1FA
:10B4F000080003F049FC03E004F1100003F0BEFE75
:10B5000028B900F006F810B900F009F805462846F9
:10B5100032BD04F12C0104F1300004F055B80122D1
:10B5200004F12C01201D11E7248C0020E0290020CB
:10B5300089B30200443A5C576F726B5C50524F4AB9
:10B540005C44535F50524F4A5C4E6F726469635C57
:10B550004E6F72646963536F757263655C636F6D80
:10B56000706F6E656E74735C6C696272617269652E
:10B57000735C756172745C6170705F756172745F29
:10B580006669666F2E630000FFFFFFFFFFFFFFFF8E
:10B59000FFFFFFFFFFFFFFFF0000000000000000B3
:10B5A0000000D60106010000027A91422FBF002060
:10B5B00001EB4101081809307047427891422FBFD2
:10B5C00000208278101808187047C269130018BF4D
:10B5D0001047704780B5002101E080B50121FFF7D9
:10B5E000E3FF0021FFF7E9FF007802BD80B50121EC
:10B5F000FFF7DAFF0121F5E780B508B1032002BDAE
:10B60000086810F80C1F202906D1811C07220C3075
:10B61000FBF7D2FE002002BD062002BD00680C3000
:10B620000021818281610162C16601674167816792
:10B6300000F128018166704770B5044686B08A78AB
:10B640002068202A00F10C0502D0222A2ED058E0D2
:10B65000B1F80720072A54D1202200F80C2F00222D
:10B66000B1F807104170002303A900252CC1811CEB
:10B670000391407804908DF800206846FBF712FF94
:10B6800003A9002001F06FFF05000BD10FF6B000F9
:10B6900001A9D0E90023CDE901230294002004F0A0
:10B6A000F6FA054600F047FC28462BE0B1F8070003
:10B6B00038BB287DB1F8031000F0010001F001064D
:10B6C000B042A9821BD0002E14BF022103212046C4
:10B6D000FFF77BFF9EB92046FFF77FFFFAF743FF96
:10B6E0002046FFF783FFFAF73EFF0020A86128629B
:10B6F000E86628676867A86705F12800A866002043
:10B7000000E0062006B070BD70B50C4684B06178CC
:10B7100005464809CA0900F003002DD010B10128E0
:10B720001AD031E001F01F00012804BFA0780628DC
:10B730002AD10020019002A804F0B9FA064601A817
:10B740000090E27821793346284601F065FB052810
:10B750001AD0019A31460BE02868A1780C302129D3
:10B7600004BFB4F8071007290ED1072200F10C011D
:10B77000601C04F056FA08E030B1012804D12146DB
:10B780002846FFF759FF00E0062004B070BD436073
:10B79000CA699A420ED38A6902608869181888615A
:10B7A000086F18180867C869C01AC86118BF012057
:10B7B000C0B2704701F1280202608B670020704719
:10B7C0002DE9FC410446206800F10C052046FFF7F6
:10B7D0000DFF80460FF27070D0E90023CDE9002301
:10B7E0000195E86978B9286F686700202867E866DE
:10B7F000286A30B1D5E90801C5E9060100202862B0
:10B8000044E0A8614AE0AF6F3E46B84238BF064602
:10B81000A869324605F12801FBF7CEFD286F3018E4
:10B82000686700202867B81BE86670192830A8668A
:10B830000FE0FBF7C1FDE86EE969401AE866E969C7
:10B84000A86E0818A8660021E86968672046FFF717
:10B85000BCFE286AF8B1D5E90801C5E90601EB6E1E
:10B860000020286283B1EA69A869A96E9342E0D2F8
:10B870001A46FBF7A1FDE86EE9692867081AE86136
:10B88000E96EA8690818A861A86930B16946404600
:10B8900001F07BFE02E00020A8610020BDE8F681F7
:10B8A00070B50D460446287800260E282BD8DFE810
:10B8B00000F02F2C2F2F2A080D2A2A2C2A2F2F2F69
:10B8C0002F002046FFF720FF064621E02046FFF725
:10B8D00081FEA97888421BD0E878090602D520B9F4
:10B8E00001210AE020B1012812D0032810D008E07D
:10B8F0002046FFF765FF064600212046FFF765FE5C
:10B9000006E0032604E0062602E02046FFF786FE56
:10B91000304670BD2DE9F04704468946206899F805
:10B920000880DFF880540027002816469A4600F069
:10B93000908040F21231401A00F09380401E00F0D7
:10B940009C80401E00F09F80401E00F0A280401EA0
:10B9500000F0A580401E00F0A880401E00F0AB80E3
:10B96000401E00F0B080C01F00F0BC80401E00F000
:10B97000BF80401F00F0CB80401E00F0D080401EF2
:10B9800000F0D780001F00F0DE80401E00F0E18054
:10B99000401E06D0401F00F0ED80401E00F0F280F7
:10B9A000401E00F0F780C01F00F0FD80401F00F037
:10B9B0000A81401E00F00D81401E00F01281401EE1
:10B9C00000F01981401E00F01C81C01E00F01F8194
:10B9D000401E00F02281401E00F02581401E00F034
:10B9E0002C81401E00F02F81C01E00F03281401ECD
:10B9F00000F03581401E00F03881401E00F03B8190
:10BA0000C01E00F03E81401E00F04181401E00F04B
:10BA10004881401E00F04B81401E00F04E811438DA
:10BA200000F05D81401E00F06081001F00F06B811E
:10BA3000401F00D0401F00F07B81C01F00F08181BB
:10BA4000401E00F08681401F00D0401F00F098810A
:10BA5000A3E108202071BAF1000F08BF40F21230B4
:10BA60000AD00EB12079307001270B20BAF1020FF5
:10BA7000207102D240F213308CE100F0C0F928BFEF
:10BA80004FF44570F8D200F0DDF928BF40F21530D0
:10BA9000F2D200F0D7F928BF40F21630ECD200F015
:10BAA000D1F928BF40F21730E6D200F09FF928BF45
:10BAB0004FF44670E0D200F077F900F0CBF928BFE0
:10BAC00040F21930D8D200F083F90020287028788D
:10BAD000404580F05D8109202071574528BF4FF413
