:020000040002F8
:10600000185C002071840300038802001B880200D2
:1060100053880200B7880200838902000000000054
:10602000000000000000000000000000638B020080
:10603000938B02000000000053900200AB9202001C
:10604000A184030027930200716E0300DB9302001A
:10605000B3A4020067C70200AD6C030007DA0200B8
:10606000674A0300874B0300C34B0300F357030049
:106070005F5C03007369030097740300A982030047
:106080003F830300B9E602004B830300AF840300A3
:1060900027E702005D8503000BFB02005F8503001C
:1060A0006185030063850300658503006785030040
:1060B000698503006B8503000000000000000000FC
:1060C0006D8503006F8503007185030073850300F0
:1060D000758503007785030079850300E56A020072
:1060E0007B8503007D8503007F85030000000000A1
:1060F000000000008185030000000000838503008C
:10610000000000000000000000000000000000008F
:10611000000000000000000000000000000000007F
:10612000000000000000000000000000000000006F
:10613000000000000000000000000000000000005F
:10614000000000000000000000000000000000004F
:10615000000000000000000000000000000000003F
:10616000000000000000000000000000000000002F
:10617000000000000000000000000000000000001F
:10618000000000000000000000000000000000000F
:1061900000000000000000000000000000000000FF
:1061A00000000000000000000000000000000000EF
:1061B00000000000000000000000000000000000DF
:1061C00000000000000000000000000000000000CF
:1061D00000000000000000000000000000000000BF
:1061E00000000000000000000000000000000000AF
:1061F000000000000000000000000000000000009F
:10620000011100EBD161DFF8C02C491152F82120B7
:10621000A0EB4110C24002F00100704728B10FF21C
:106220001001800141F001010847704700000000A3
:106230000338FDD870470000DFF8E42C01218150BD
:1062400000F0AFBFDFF8D82C0021815000F0A9BFCB
:10625000DFF8CC1C40588DE000F00F01DFF8DC2C9B
:1062600000064CBF10685068C840FCE0DFF8D00C56
:106270000168082904D14068401E8041C00F704762
:1062800000207047DFF8B80C0168082904BF426895
:10629000012A09D0082904BF4268022A04D008292B
:1062A00004BF4068032801D10120704700207047D7
:1062B00001064CBF0FF210010FF2200100F00F0099
:1062C00031F910007047000008010C0110011401A1
:1062D00018011C01200124012C01000030013401AF
:1062E00038013C014001440148014C0150010000CB
:1062F000010600F00F004CBF0FF210010FF2180161
:106300000122405C02FA00F070470000020304051D
:10631000060708090B0000000C0D0E0F10111213D8
:106320001400000030B54C689C4204D20025456042
:106330000968016007E04360E41A0D6805604C607D
:106340000868181808609A4203D1200002D0012082
:1063500000E00020C0B230BD4B689A4288BF1A46A8
:106360000B68036042604868801A4860086810182B
:106370000860486800B10120C0B270474B689A427B
:1063800088BF1A46002A0CBF00230B6803604260D6
:106390004868801A4860086810180860100018BF24
:1063A0000120C0B27047F8B50C4605466068DFF8BA
:1063B000647C1646864288BF0646216832463846C7
:1063C00000F0FAFF2F606E606068801B60602068DC
:1063D00030182060606800B10120C0B2F2BDF8B58D
:1063E0000C46064660681546854288BF054645B19D
:1063F000DFF8207C21682A46384600F0DDFF376050
:1064000001E00020306075606068401B60602068BB
:1064100028182060280018BF0120C0B2F2BDDFF8A4
:10642000841C020648BF903100F00F0001EB001001
:10643000704701064CBF0021102100F00F004018EA
:10644000C0B270471028ACBF103840F08000C0B216
:10645000704701064CBF0421282100F00F0001EB1A
:106460008000C0B2E8E600F0010070472DE9F0437B
:1064700083B0074600208DF804004FF0010801A802
:1064800001F010F83846FFF7CAFF04463806DFF877
:10649000886B1DD400F065F8F568E943C140C80772
:1064A00003D5384600F0BAFE0FE00020206000F06F
:1064B00058F808FA00F025EA000000F051F8B16839
:1064C00008FA00F021EA0000B0600320A0733EE06B
:1064D00007F00F01082917DA802FDFF8780C08D0B1
:1064E000490001F2B47101604168426841F0020163
:1064F00006E040F2B47101604168426841F0040175
:10650000C9B211434160406800F02BF8D6F80C90F6
:10651000B56869EA0501C140C80718D500F021F83F
:1065200008FA00F029EA000000F01AF808FA00F072
:106530002843B060002020600320A0730FF21C00ED
:106540000068716800908DF80270684688479DF871
:10655000040000F0C2FFBDE8F7830000060000035E
:10656000F060384665E781E770B5DFF8AC4AA168AE
:10657000E068090C50EA014512E095FAA5F0B0FA7E
:1065800080F6F0B2FFF75EFF00F00F00082804DA93
:10659000F0B2FFF757FFFFF769FF0120B0408543D6
:1065A000EBD140F2FF10A06070BD80B5DFF8681A33
:1065B0000020487088700FF2100000684968009051
:1065C0006846884701BD000001000000704770B5B3
:1065D0000546DFF8581BDFF8404A00200860E070ED
:1065E00001262846FFF71BFF817B03291CBF00689B
:1065F00000280BD12846FFF71CFF06FA00F0C14324
:1066000004F10C00BDE8704000F0B0BF70BD70B583
:106610000446DFF8181BDFF8005A82B0002008603B
:10662000E87001262046FFF7FAFE817B032904D19A
:1066300000F019F900F016F80EE0006860B900F0FB
:1066400012F900F00FF80FF2180000686968009066
:106650008DF802406846884700F099F973BD000044
:106660000600000006FA00F0C14305F10C0000F03E
:106670007DBF38B500F040F88020FFF7D0FE817B69
:1066800003291CBF006800280BD18020FFF7D1FE32
:1066900005FA00F0C14304F10C00BDE8344000F0FD
:1066A00065BF31BD812092E7822090E783208EE78D
:1066B00084208CE785208AE7862088E7872086E784
:1066C00038B500F019F88820FFF7A9FE817B03296F
:1066D00001D1882036E0006858B98820FFF7A9FE6C
:1066E00000F035F80FF20C0000F06BF8882000F095
:1066F00064F831BD06000000DFF8301ADFF88C4B7B
:1067000000200860E0700125704738B5FFF7F4FFFE
:10671000FFF785FE817B032901D1002012E000688C
:1067200058B9FFF786FE00F012F80FF2140000F0DF
:1067300048F8002000F041F831BD00F051FD31BDB6
:1067400006000000FFF775FE00F001F831BD05FA04
:1067500000F0C14304F10C0000F008BF012056E72F
:10676000022054E7032052E7042050E705204EE7BB
:1067700006204CE707204AE710B5DFF8B019DFF82C
:106780000C4B82B000200860E0700820FFF747FE45
:10679000817B032910D0006870B90820FFF749FEFB
:1067A000012101FA00F0FFF7D4FF0FF6843000F06A
:1067B00008F8082000F001F813BD8DF802006846C3
:1067C0000847006861680090704770B50FF6643044
:1067D000DFF8BC4A82B0006800900125206EADF859
:1067E00002008820FFF725FE05FA00F6206850B168
:1067F000C10302D410F1010F05D00820FFF719FEE4
:1068000005FA00F00643DFF8841A88683043886090
:1068100068464968884773BD10B5DFF8702A82B0B2
:10682000936801248C4023439360D368CB40516824
:10683000020604D5DA070AD40FF6FC2203E0DA07D1
:1068400005D40FF6F82212680092FFF7B6FF13BDC9
:1068500010B5DFF8380A847800F005F801462046C4
:10686000BDE81040D8E72046E3E5F8B5DFF8240A94
:10687000DFF8184A0568A168E068A678C94389B2BC
:1068800041EA00073046FFF7D4FDC740F80744BF90
:106890003046FFF7EBFD280654BF00208020A07093
:1068A00001260020FFF7C5FD05468020FFF7C1FD4A
:1068B00006FA05F106FA00F00843FFF74AFFA5685B
:1068C0008020FFF7B6FD06FA00F02843A0600FF61F
:1068D0007020FFF776FF68468847F1BD38B5DFF8CE
:1068E000B80900F08FFB00F08FFBE005DFF82857B8
:1068F00005D5012068700FF64C2000F01AF8A005AD
:1069000005D5002068700FF6402000F012F86005F1
:106910000ED5687860B1002068700120DFF87C191E
:1069200008605820FFF788FC0FF6202000F001F8DF
:1069300031BD0068696800906846084738B5DFF8DF
:10694000600900F05FFBFFF791FCB0B1DFF83C0994
:10695000016921F0011201F00111144301610CE001
:1069600094FAA4F0B0FA80F5E8B2FFF76BFD0121CC
:10697000A9408C43E9B2FFF74FFF002CF0D1BDE8EE
:10698000314004E090FAA0F0B0FA80F070472DE9B1
:10699000F041DFF8844684B0E078002840F0A08021
:1069A0000FE00220B073394604F10C0000F0DEFD68
:1069B0000FF69C100068616802908DF80A5002A8DA
:1069C0008847E068A168084000F08A8010F0012F35
:1069D00018BF00F00120FFF7D5FF0746FFF732FD93
:1069E0000546FFF71CFD06460120B840C7432806B0
:1069F00005D5B28971683368684698470FE0284624
:106A000000F096FB8046B2897168D6F800C0434614
:106A10006846E047009911B101994145C1D300B9D9
:106A20003060DFF80817822008600120E07005F070
:106A30000F02A06801993840A0601346B06808189A
:106A4000B0602C06019800990AD5082AA8BFDFF883
:106A5000542809DA142212FB03F2DFF84C380BE059
:106A6000082A04DBDFF844281160506007E0142294
:106A700012FB03F2DFF83838D150D1184860FFF725
:106A8000F5FB18B34FF48270FFF7DCFB2846FFF7E5
:106A9000E0FC0220FFF7C2FB4FF48270FFF7D8FB47
:106AA0000028EFD01E2000E00220FFF7B7FBDFF840
:106AB000040800688006F7D50120FFF7AFFB2846E1
:106AC000FFF7F6FBFFF7C4FB50B9DBE72846FFF7FB
:106AD000C0FC2846FFF7ECFBFFF7BAFB0028F8D014
:106AE000BDE8FF812DE9F843DFF8CC07D0F800803E
:106AF000474600264FF00109002F11E097FAA7F052
:106B0000B0FA80F0810001F5807409FA00F520B236
:106B1000FFF79EFB18B120B2FFF794FB2E43AF4363
:106B2000ECD1FFF7A3FBDFF8F014CA7882F0010282
:106B3000104264D0B00262D5DFF8800740F2A9723B
:106B400002604368DFB217B147683B40DBB240F2F6
:106B5000AA770760D0F804C05FFA8CF424B14468C7
:106B600004EA0C045FFA84FC40F2AB7EC0F800E05B
:106B70004468E5B215B145682C40E4B240F2AC750A
:106B8000056045682B40DBB22BB10D691D430D61DB
:106B900002604360426840F2AD720260426802EAFD
:106BA0000C02D2B232B10B6943EA02430B610760B7
:106BB0004260426840F2AE72026042682240D2B245
:106BC0005AB1D30748BF46F40006D30648BF46F083
:106BD0000106C0F800E042604068086930F0011228
:106BE0001CBF08F08072164310F0011F07D05FEA47
:106BF000485204D520F00110086146F48066F00D7B
:106C000000F0010536F400060FF2487709E096FA25
:106C1000A6F0B0FA80F457F82400804709FA04F08F
:106C20008643F4D1FFF7B3FE002D1CBFBDE8F1434E
:106C3000FFF71BBEBDE8F18370B5010001D107204D
:106C400070BDDFF848160A780AB1082070BD4860A8
:106C50000025012008704FF4007445F0800606F00E
:106C60000F000828ACBF21464021304600F06AF9E9
:106C70003046FFF7D4FB00F013F8EEDB002505F0FB
:106C80000F000828ACBF21464021284600F05AF9E1
:106C90002846FFF7C4FB00F003F8F0DB002070BDCE
:106CA000002181736D1C0160092D81607047DFF840
:106CB000DC050178012901D00820704700214160DE
:106CC0000170002070472DE9F041DFF8CC6582B0FB
:106CD0004FF40068C6F8008000F096F9FFF7D2FA8A
:106CE00049F27534DFF8D85570B100F017FA296809
:106CF000DFF8D00521B92C60032101602C6001E090
:106D00000321016000F010FB00F008FA286820B9A8
:106D10002C60C02068612C6001E0C02068619DF893
:106D20000000DFF8A47500F0D8FB0120386000F007
:106D30006BF930680005FCD5C6F8008000F064F9F6
:106D400000F0ECF9286818B92C6068612C6001E04B
:106D50000020686100F0E8FADFF8F80340F2E37120
:106D600001604021416000F04FF98020F86140F25D
:106D7000FF1100203863DFF8B423DFF810058160CD
:106D80000021C1601160C170817002210170BDE8F5
:106D9000F38180B500F047F8DFF81C050168416019
:106DA0000020DFF8241500F054F8DFF880130860A5
:106DB00000219948C17001210170FFF763FA90B179
:106DC00000F0ACF9DFF8F814DFF8F8040A6832B91B
:106DD00049F275320A60002303600A6001E0002175
:106DE000016000F0A1FA01BD10B58B4ADFF8DC4468
:106DF0000021517010B9FFF739FA08B1DFF8D0441B
:106E0000DFF8B404DFF8CC140460C02008708020E0
:106E1000DFF8C4140860DFF8C41408600120DFF84C
:106E2000C0140860A5E180B52720FFF7E9F978B123
:106E3000FFF79AFBDFF8A814002000F00AF8802082
:106E4000DFF8A01408604FF0FF30DFF89C140860F2
:106E500001BD0860BFF36F8FBFF34F8F7047DFF83E
:106E60002C04007800B101207047DFF8200400787E
:106E70000228ACBF01200020704710B582B000F09E
:106E800025F865484078E8B1FFF76EFBDFF80804A5
:106E90000168890516D4DFF8541401220A600068DD
:106EA000800548BF0C600DD4DFF81404016801248C
:106EB00031B949F27531016000224261016001E09F
:106EC0000021416124E0000000E100E000248DF891
:106ED0000040684600F0E6BA10B582B0FFF7F6FF52
:106EE0004D48407800281EBFDFF8000401680029E3
:106EF0000ED004600124DFF8C803016831B949F2FB
:106F000075310160C0224261016001E0C021416130
:106F100000F00AFA204616BDDFF8CC1304E00000AA
:106F200000700240DFF89013DFF8C4030860704778
:106F3000DFF85813002048707047000010750240B9
:106F40003001001010B50C46FFF769FA848110BDBE
:106F500080B5FFF764FA808902BDFFF77DB9F8B507
:106F60000446FFF7C5F9DFF8501308602046FFF725
:106F700073F940BB04F00F000125220605FA00F06A
:106F8000DFF8701303D50A681043086002E04A680E
:106F90001043486000F038F814F00F0013D02106B9
:106FA00011D408280FDA00F0B9F8204600F036F9BD
:106FB000B64EF768FFF757FC05FA00F027EA000025
:106FC000F06000F0B1F9F1BD10B50446FFF74EFADC
:106FD00004F00F00012101FA00F0C0432206DFF89F
:106FE000141303D50A681040086002E04A68104094
:106FF000486000F009F82046FFF77AF9BA490860BE
:1070000010BD000004680460BFF36F8FBFF34F8FA3
:107010007047000018970020F08E0020F8B5064653
:107020000C46FFF706FA00F078F80F200642974F5B
:1070300004D1B878864218BF102432D100F061F82C
:10704000E840C00748BF11242BD43046FFF7E7F9CA
:1070500006F00F010C2212FB0171320611D52368D4
:10706000143103F06043A268B3F1005F04D0D2078B
:107070004CBFA14AA14A06E0D2074CBFA04AA14A90
:1070800001E08031A04A02604CCC4CC10C39416017
:1070900000240021816081730121F868A94000F07B
:1070A00036F82AE0C48C0020F8B504460D46FFF7F8
:1070B000C0F9064600F032F80F200442734F04D1A5
:1070C000B878844218BF102417D100F01AF8F040A5
:1070D000C00748BF112410D42046FFF7A0F90021B3
:1070E0008160002429680160696841600021817322
:1070F0000121F868B14000F00AF800F015F92046C7
:10710000F2BDB968F868C94389B2084370470843BB
:10711000F86080207D4908607047054600208DF8A2
:107120000000684600F0BEB9794870471C7C0240F8
:1071300000F00F00082805DB55480068C10304D59E
:1071400000207047734951F820007047724925E0CC
:10715000000000000078024010B50446200606D466
:10716000204600F009F810B1204600F057F86A48B0
:107170000460FFF749FF10BD00F00F01082907DA8E
:1071800000064CBF6548664850F82100012800D031
:107190000020704763490860BFF34F8F40F4807050
:1071A0000860BFF36F8FBFF34F8F704710B5044671
:1071B000082100F01FFA37480168217041686170AA
:1071C0008168C26841EA022161800169426941EA3D
:1071D0000221A1808169C06941EA0020E08010BDE0
:1071E00010B5FFF743F858B1EFF3108472B64C2096
:1071F000FFF722F84C20FFF71FF884F3108810BD2A
:10720000BDE810404C20FFF717B85020FFF714B826
:107210005420FFF711B81D48807870472DE9F041E0
:1072200082B08046FFF722F808F00F040127174DBF
:1072300098B1FFF773FFAE684046FFF7FAF807FA18
:1072400000F026EA0000A86061001C4801F2C57148
:10725000016000214160406814E08DF80000FFF7F4
:1072600038FEAE684046FFF7E4F807FA00F026EA79
:107270000000082CA86005DA2649002041F8240007
:10728000FFF7C2FE00F050F8BDE8F381F08E002059
:10729000C0740240807402400074024008750240CD
:1072A0006C740240A076024000760240A077024053
:1072B0000077024074740240047302400078024078
:1072C00000EC064014ED0640007502400714C001B2
:1072D0000714E00127E400E084E200E004E100E0BC
:1072E0000475024084E100E0087302402C750240FE
:1072F0000414800110750240DF630200A7630200DE
:107300007D630200596302002563020004E200E08D
:1073100018970020A07402401875024020740240A3
:10732000447402400C7502409DF8000000F0D5B88E
:10733000060000000000000006000000060000013A
:10734000050000000200000003000000040000002F
:1073500006000002AB650200CD6502007366020004
:10736000A5660200A9660200AD660200B1660200D1
:10737000B5660200B9660200BD66020051680200EF
:10738000C16602000B6702005D67020061670200D0
:1073900065670200696702006D670200716702009D
:1073A0007567020079670200CB670200DD680200A2
:1073B0006B6802003D69020062B38B0708D0521E61
:1073C00011F8013B00F8013B00F024808B07F6D157
:1073D000830740F0208000BF103A07D330B4B1E8F3
:1073E0003810103AA0E83810F9D230BC530724BF47
:1073F000B1E80810A0E8081044BF51F8043B40F879
:10740000043BD20724BF31F8022B20F8022B44BFE3
:107410000B7803707047083A07D3B1E80810083AB0
:1074200040F8043B40F804CBF7D25307E4E7F0B44C
:10743000016844688368091801EB5402E40748BFF7
:107440004B440C3091422BD011F8014B14F0030542
:1074500004BF11F8015BED1C26090F2E07D111F8AE
:10746000016B0F3603E011F8017B03F8017B6D1E01
:10747000F9D1002EE6D0A40811F8015B04F0030452
:10748000032C08BF11F8014B05EB04241C1BB51C91
:10749000D8D014F8016B03F8016B6D1EF9D1D1E758
:1074A000F0BC704730B5EFF3108172B6134A9368A1
:1074B00073B90123124C93602568124B1D4015606F
:1074C0002360636853604FF0FF326260002200E087
:1074D0000122027001B962B630BD08498A6862B102
:1074E00058B9EFF3108072B6074A0B6813604B6807
:1074F000536000228A6000B962B67047109A00207B
:1075000080E100E0FC06FFBD00E100E010B550E8BE
:10751000002F0C4640E8004393F0000FF7D11046CF
:1075200010BD000010B550E8002F42EA010440E809
:10753000004393F0000FF6D1104610BD10B550E88F
:10754000004F44EA010240E8002393F0000FF6D117
:10755000104610BD10B550E8002F02EA010440E8C3
:10756000004393F0000FF6D1104610BD10B550E85F
:10757000004F04EA010240E8002393F0000FF6D127
:10758000104610BD10B550E8002F02EB010440E892
:10759000004393F0000FF6D1104610BD10B550E82F
:1075A000004F04EB010240E8002393F0000FF6D1F6
:1075B000104610BD10B550E8004FA4EB010240E8A2
:1075C000002393F0000FF6D1104610BD10B550E81F
:1075D000004F8C422CBF621A224640E8002393F0F1
:1075E000000FF4D1104610BD01219BE70121A5E752
:1075F0000021AFE7002200F00DB88268521C8260C3
:10760000426832B10268531C036011704168491E20
:1076100041607047401810F0030308D0C91A1FD307
:10762000DB0748BF00F8012D28BF20F8022D13000A
:1076300030B414461546103928BF20E93C00FAD86A
:10764000490728BF20E90C0048BF40F8042D8900F5
:1076500028BF20F8022D48BF00F8012D30BC70472C
:10766000C91818BF00F8012DCB0728BF00F8012D5D
:1076700070470268531C0360117070472DE9F04F8A
:1076800080460FF23060A5B015461E46D0E90023B3
:10769000CDE91223002004910D900DF1500A6FF0F6
:1076A000004900E065190020ADF8020012AB4FF070
:1076B000FF3229460DF1020001F093F80446012C37
:1076C00004DA2878441EA441E443E40FBDF8020024
:1076D00025280CBFA4F1010BA346BBF1010F0EDB63
:1076E0002F4617F8011B0498C0470028049000F0AB
:1076F000F3800D98401CBBF1010B0D90F1D1BDF84A
:107700000200252807D100200790089009900A90D0
:107710000B900C9005E00028C4D10D98D2E240F007
:10772000010015F8011F2029F9D023290DD02B299C
:1077300004D02D2906D030290AD00CE040F00200F8
:1077400080B2EEE740F00400FAE740F00800F7E707
:1077500040F01000F4E72A290ED13168316051F869
:10776000042B3160002A0F9204D5514240F00400EE
:107770000F9180B26D1C11E000210F9109E00F996B
:10778000494505D001EB810302EB430130390F91EC
:107790006D1C2A78A2F130010A29F0D329782E290C
:1077A00003D04FF0FF310E911DE015F8011F2A297B
:1077B00007D1316831606D1C51F8042B31600E9295
:1077C00011E000210E9109E00E99494505D001EB29
:1077D000810302EB430130390E916D1C2A78A2F12E
:1077E00030010A29F0D3ADF840000FF2D0402978DB
:1077F00001F008F808B115F8010B8DF842009DF86A
:107800004200682802BF29786829622005D06C28C8
:1078100004BF28786C2803D171208DF842006D1CBC
:1078200014A8069015F8014BB4F125002AD01C3895
:1078300000F0D480001F022840F2D080133800F0FE
:10784000F580093800F0CA80801E00F05C81401E7F
:1078500000F03581401E022840F2C080001F00F079
:107860002E81401F00F08B80401E00F0DF80401E04
:1078700035D0C01E0BD0801E00F0D880C01E00F096
:10788000D58063E125208DF85000012067E19DF847
:1078900042006C283068306014D050F8047B3060AF
:1078A00005970E9C002C04D5384600F0B7FF04461F
:1078B00006E022460021384600F0CCFF00B1C41B90
:1078C00008944DE150F8042B306002A9404600F0C6
:1078D00033FA002840F144814FF0FF30F2E1316883
:1078E00031603C2451F8040B31600021CDE90201E4
:1078F00014A80590DDE90201069F11B908B90E9A96
:10790000B2B10206120FA0EB02123032D2B2631EE5
:107910003A2AA8BF27320009DA5540EA017009095E
:1079200008BF00281C4603D0059AE3199A42E8D301
:10793000E0190590C4F13C010E980891814209DAE2
:10794000401A0A904FF6EF71BDF840000840ADF8BC
:10795000400005E1002840F103819DF8400000F05F
:107960001400102840F0FC800F98079A801A0A9A99
:10797000801A441A012CC0F2F3800A94F0E09DF8BA
:10798000420062281AD0682806D06A280CD06C28D9
:107990001CD0712808D019E03068306050F8041B02
:1079A00030600D980880DBE03068306050F8042BC0
:1079B00030600D98C117C2E90001D1E03068306035
:1079C00050F8041B30600D980870C9E030683060D2
:1079D00050F8041B30600D980860C1E03068C01D8D
:1079E00020F007023260D2E9000108323260CDE9AE
:1079F0000201002902D507982D210AE0BDF84000B8
:107A0000810702D507982B2103E0C00705D5079809
:107A1000202100F80A10401C079014A807990818A4
:107A20000590214602A800F091FB99E09DF84200E4
:107A30006C280DD0712818BF6A2809D13068C01D84
:107A400020F007023260D2E900010832326005E01E
:107A50003168316051F8040B31600021CDE9020139
:107A60009DF84200682803D1DDE9020180B20BE0F5
:107A7000622803D1DDE90201C0B205E0742818BF15
:107A80007A2804D1DDE902010021CDE902019DF847
:107A9000400000072ED5DDE90201002908BF0028BB
:107AA00028D044F02000782824D10798302100F80D
:107AB0000A10401C411C079100F80A401AE09DF88A
:107AC0004200314600F001F9CDE90201002902DA55
:107AD00007982D210AE0BDF84000810702D50798DC
:107AE0002B2103E0C00705D50798202100F80A10D4
:107AF000401C079014A8079908180590214602A871
:107B000000F0A0FA2CE09DF842006C2809D001207A
:107B100007903068306050F8041B30608DF85010CA
:107B20001EE03068306001AA50F8041B3060ADF8E8
:107B300004100020ADF8060002A94FF0FF300E90AF
:107B4000404600F0F9F800280AD5C5E625208DF852
:107B50005000012007901CB18AF8014002200790D4
:107B60000F980799401A0A99401A0899401A0B99D8
:107B7000401A0999401A0C99441A9DF84000400790
:107B800010D42020012C8DF800000BDB27460123A8
:107B90006A4602A9404600F000FE00287FF49CAE31
:107BA0007F1EF4D1DDF81CB0BBF1000F14AF0DD077
:107BB00017F8011B0498C047002804903FF48CAECE
:107BC0000D98401CBBF1010B0D90F1D130208DF8C8
:107BD00000000A9F012F0ADB01236A4602A94046E2
:107BE00000F0DBFD00287FF477AE7F1EF4D1DDF8D6
:107BF00020B0059FBBF1000F0DD017F8011B0498B2
:107C0000C047002804903FF467AE0D98401CBBF1BC
:107C1000010B0D90F1D130208DF800000B9F012F4A
:107C20000ADB01236A4602A9404600F0B6FD00289F
:107C30007FF452AE7F1EF4D105980899DDF824B088
:107C40000F18BBF1000F0DD017F8011B0498C047A7
:107C5000002804903FF440AE0D98401CBBF1010B8E
:107C60000D90F1D130208DF800000C9F012F0ADB20
:107C700001236A4602A9404600F08FFD00287FF4E8
:107C80002BAE7F1EF4D19DF8400040077FF50BAD71
:107C90002020012C8DF80000FFF605AD01236A4677
:107CA00002A9404600F079FD00287FF415AE641E5D
:107CB000F4D1F8E40000000000000000686A6C7471
:107CC0007A4C000025B0BDE8F08F622826D06828E5
:107CD0001DD06A2808D06C2827D0712804D07428B9
:107CE00023D07A280CD020E00868C01D20F00700BF
:107CF0000860D0E900230830086019461046704734
:107D00000A680A6052F8040B0A60002170470A688A
:107D10000A6052F8040B0A6000B20BE00A680A60BD
:107D200052F8040B0A6040B204E00A680A6052F894
:107D3000040B0A60C11770472DE9F44F0D4694B04B
:107D4000D5F830A0BAF1000F804648BF6FF0004A66
:107D500000F0ACFD696B401801900FF66C20D0E983
:107D60000023CDE9022395F83800400702D401989A
:107D7000412805D240200DF110090190002609E0AC
:107D800000F09AFD5FEA0009F8D14FF0FF3056E1AC
:107D9000AAEB040ABAF1010FC0F2CE801498018850
:107DA00002AA0DF1010000F0DFFD0028044600F1F9
:107DB000DE801498008810B9641E00F1D880A245B6
:107DC000C0F2BA80686901992218914280F0A280BD
:107DD0006E634042296A401AA969401A696A401ACA
:107DE000E969401AA96A461A95F83800400710D484
:107DF0002020012E8DF800000BDB374601236A4658
:107E00002946404600F0C9FC002840F0B0807F1EA3
:107E1000F4D1D5F814B0BBF1000F4F460DD017F8D0
:107E2000011BA868C0470028A86000F0A080E86A8D
:107E3000401CBBF1010BE862F1D130208DF800004D
:107E40002F6A012F0ADB01236A462946404600F0CB
:107E5000A4FC002840F08B807F1EF4D1D5F818B028
:107E6000EF68BBF1000F0CD017F8011BA868C047E2
:107E70000028A8607BD0E86A401CBBF1010BE862D7
:107E8000F2D130208DF800006F6A012F09DB012349
:107E90006A462946404600F080FC002867D17F1ED4
:107EA000F5D1E868A969D5F81CB00F18BBF1000F2F
:107EB0000CD017F8011BA868C0470028A86056D04E
:107EC000E86A401CBBF1010BE862F2D130208DF86A
:107ED0000000AF6A012F09DB01236A4629464046AC
:107EE00000F05BFC002842D17F1EF5D195F83800E8
:107EF00040070DD52020012E8DF8000008DB01235E
:107F00006A462946404600F048FC80BB761EF6D102
:107F100000266E61224668690DF101014844FFF7B1
:107F20004BFA6869201868611498801C1490801EB0
:107F3000008800287FF42CAF686B6969401A296AB1
:107F4000401AA969401A696A401AE969401AA96A7F
:107F5000A0EB010A95F83800400710D4BAF1010FE0
:107F60000DDB5446A8682021C047A86010B94FF027
:107F7000FF365DE0E86A401C641EE862F2D16B697E
:107F80004A462946404600F008FC0028EFD12C6AFA
:107F9000012C0ADBA8683021C0470028A860E6D081
:107FA000E86A401C641EE862F4D1AB69EA682946BD
:107FB000404600F0F2FB0028D9D16C6A012C0ADBA4
:107FC000A8683021C0470028A860D0D0E86A401CCB
:107FD000641EE862F4D1E868A969EB690A182946C9
:107FE000404600F0DAFB0028C1D1AC6A012C0ADB64
:107FF000A8683021C0470028A860B8D0E86A401CB3
:10800000641EE862F4D195F8380040070ED5BAF145
:10801000010F0BDBA8682021C0470028A860A6D06C
:10802000E86A401CBAF1010AE862F3D16E616E633E
:1080300004A881451CBF484600F0A4FC304615B09A
:10804000BDE8F08F2DE9FA4E05460A462F696F2AE2
:1080500008BF082405D041F02000782814BF0A2466
:1080600010243C26D5E90001642A18BF692A8146FC
:108070008A4605D1002903DAD9F100096AEB4A0AD8
:10808000BAF1000F08BFB9F1000F0CD1286B50B93D
:10809000082C36D195F83800000732D530203B2621
:1080A00087F83B002DE0E31748465146224600F092
:1080B000A9FCA4FB0023A9EB02023032D2B2A6F144
:1080C000010B3A2A5E4603DB9DF80030513B9A18BB
:1080D0000BF8072081465FEA010A08BFB9F1000FDB
:1080E00003D0E868F1198842DDD3082C09D195F84E
:1080F0003800000705D5F05D302802D0761E30200C
:10810000F055C6F13C00A861F119E960296B88427D
:1081100008DA081A28624FF6EF71288F084028877E
:10812000BDE8F38E00290ED595F8381001F0140142
:10813000102908D1696B6A69891A2A6A891A0E1A84
:10814000012EA8BF2E62BDE8F38E00002DE9F24F8C
:1081500004468EB0D4E90001CDE9020104AF9DF8D8
:10816000380040F0200BBBF1610F0AD0206B0028D3
:1081700048BF062004D408BFBBF1670F01D101201E
:1081800020636168C1F30A5040F2FF7290421CD133
:10819000080304BF2068002809D10320A0619DF8CE
:1081A000380061381A2836D30FF2306108E0032016
:1081B000A0619DF8380061381A2829D30FF21461A4
:1081C000E0680322FFF7F8F8BEE1012816DA20463E
:1081D00000F08FFC012811DB00250020BBF1610FAE
:1081E00020D1E168302201F8012B4A1CE2609DF8A1
:1081F0003820612A0CBF782258220FE0626840F2D2
:10820000FE3161F31E52451A62604FF0FF30E5E720
:108210000FF2BC51D4E70FF2C051D1E70A70616987
:10822000891C616110B90026002584E1BBF1610F52
:1082300040F09880206B00284CBF2126461CD4E9D2
:1082400000ABDDE902010022002300F073FC36B22E
:108250003ABF8BF00040CDE902A0CDE902AB06F1B8
:1082600001082D1FB8F1010F8DF810200DF1110735
:1082700036DBDDE902010022002300F073FC2FD27F
:108280001C2102A800F086FCDDE9020100F00CFDD3
:10829000A8F10708B8F1010F814609DB00F030FDB5
:1082A00002460B46DDE9020100F042FDCDE9020184
:1082B000F81D072105E009F00F0200F8012D4FEA33
:1082C0002919B9F1010F01DB491EF4D5491E5CBF24
:1082D000002200F8012DF9D5C71DB8F1010FC8DA49
:1082E0000DF11100391AB142B8BF0E4636B2300056
:1082F0000DF111072FD4884206DA04A941184978F4
:108300000829A8BF0F2100DA002104AA821800E082
:10831000761E12F80139401E8B42F9D00F2904D184
:1083200004A941184A78521C4A70002802D504AFAB
:10833000761C2D1D36B2701E0DD4C1190A7830324C
:10834000D2B23A2A03DB9DF838303A3B9A18401EE5
:1083500001F80129F2D5206B002840F1EC80701E55
:108360002063E8E0DDE902010022002300F0E2FBE7
:108370003CBF81F00041CDE902012DB247F2975098
:1083800068434B49DFF82C9190FBF1F52DB2C5F114
:10839000070ABAF1010F90461CDBDDE902675FEACC
:1083A000CA7007D542464B463046394600F080FD3C
:1083B00006460F464046494642464B464FEA6A0A41
:1083C00000F076FDBAF1000F80468946E7D1CDE98D
:1083D000026724E0CAF1000A0026374F14E05FEA82
:1083E000CA7007D542464B463046394600F060FD1C
:1083F00006460F464046494642464B4600F058FD69
:108400004FEA6A0A80468946BAF1000FE7D1DDE9F2
:10841000020132463B4600F01DFECDE90201BBF1F0
:10842000660F0CBF05F10A000620216BDFF88C9067
:108430004618142EA8BF132630208DF810000DF119
:108440001107012E3CDBDDE9020100F043FC07F1DE
:10845000080104220A23B0FBF3F303EB8307A0EB2C
:108460004700303001F8010C0A20B3FBF0F000EBBC
:108470008007A3EB47033033521E01F8023DE9D1D8
:10848000083E012E01F10807DBDBDDE9020100F007
:1084900021FC00F03FFC02460B46DDE9020100F042
:1084A00047FC00224B4600F003FDCDE90201CAE77C
:1084B000A0860100000024400000F03F84D79741CF
:1084C0000DF11100381A0DF1110702E0401E6D1E6A
:1084D0007F1C39783029F9D0BBF1660F02D12DB25B
:1084E000691C04E0BBF1650F0CBF01210021226B68
:1084F0008E1836B2B042B8BF064636B231001AD432
:10850000814204DAC85D3528A8BF392000DA30205E
:10851000CA19521E00E0761E12F80139491E834224
:10852000F9D0392802D1C85D401CC855002902D5B0
:108530007F1E761C6D1C2DB29DF83810009533B24D
:108540003A46204600F003F80FB0BDE8F08F2DE961
:10855000F04786B006468A4690461D4600F0C3FEA8
:10856000012D406A376B90F8009002DA01250FF276
:1085700070284AF02000BDF93840662808BF641C06
:1085800012D0672876D114F1040F79DBBC4277DA78
:1085900096F83800641C000702D4BD42B8BF2F46CD
:1085A00024B23F1B48BF002724B2F068B169012CF8
:1085B00021DA4A1C30230B54012F03DA96F83810C5
:1085C000090702D502F80090521CB261E742B8BF19
:1085D0007C4224B26142E7197162AF42B8BF3D46A6
:1085E000B3692DB2F5612A4641461818FEF7E4FE3C
:1085F000781BB062BAE00818A54216DA2A4641464E
:10860000FEF7DAFEB1696918601B012FB161706273
:1086100003DA96F83800000705D5F06801F80090F5
:10862000F069401CF061B762A0E022464146FEF7C7
:10863000C3FEB06920182D1B012F03DA96F83810FD
:10864000090703D5F16800F80190401C2DB2B06114
:10865000AF42B8BF3D46F068B3692DB22A4604EB7D
:1086600008011818FEF7A8FEB0692818B061781B39
:1086700070627BE0BAF1610F14D14FF0700A16E01E
:10868000BD4204DA96F83810090758BF2F467F1EFE
:1086900048BF0027BAF1670F14BF4FF0450A4FF0EB
:1086A000650A04E0BAF1410F08BF4FF0500AB16902
:1086B000F0684A1CB261012F18F8013B0B5403DA31
:1086C00096F83810090715D5531CB36102F80090CD
:1086D000012F0FDB6D1E2DB2AF42B8BF3D462DB24C
:1086E0002A4641461818FEF767FEB0692818B0619F
:1086F000781B7062F068B1690918200081F800A049
:1087000004D42B20487001F1020804E02D224A70A5
:1087100001F102086442002502AF08E00A2268461F
:1087200000F0FAFD019807F8010B6D1C009C21B2C6
:108730000129F3DA022D06DA4AF02000652804BF89
:10874000302008F8010B4DB9302008F8010B07E084
:108750006D1E02A8285C303008F8010B012DF7DAF5
:10876000F068B1690818A8EB0000F06196F83800CD
:1087700000F0140010280DD17069B1690818716AF1
:108780000818F1690818B16A0818716B8842BCBFF3
:10879000081A306206B0BDE8F087F8B504460D4609
:1087A00016461F46002077B116F8011BA868A0479F
:1087B000A86030B1E86A401CE86200207F1EF3D157
:1087C000F2BD4FF0FF30F2BD0000000000000000DD
:1087D0006E616E004E414E00696E6600494E460065
:1087E0003000F8B504460D4616461F4600F0A5FDBC
:1087F0003B4632462946204601B0BDE8F04000F035
:10880000B2BDFEE70278C9B28A421AB11CBF10F8A5
:10881000012FF9E718BF00207047FEE700F10103C0
:10882000810704D010F8011B89B18107FAD10268D1
:10883000B2F10131914311F0803F04BF50F8042F91
:10884000F6E710F8011B11B110F8011BFBE7C01A85
:108850007047FEE7C9B2830706D0521E22D310F834
:10886000013B9942F7D11FE0083A13D302F1040209
:1088700041EA012141EA014150F8043B121F21BFA6
:108880004B40A3F1013C2CEA030C1CF0803FF3D0D9
:10889000C9B2001F083210F8013B521E28BF91EAEE
:1088A000030FF8D818BF0120401E704780B500F0B4
:1088B00044FD012002BDFEE770B5054605F10F003D
:1088C000C408C046C046E400A54232D2082C04D2F7
:1088D000082402E0083000F055F822480268110030
:1088E0000CD1011D0A6802B31368A34238BF111DE1
:1088F000F8D310E01D68A5420DD2191D0B68002B9E
:10890000F8D11268011D00E0191D0B6893420CD0CC
:108910001D68A542F8D361B10D682A68A2F1080369
:10892000A3420AD26A680A600FE000F03FFD002807
:10893000D0D1C046C046002070BD63190B60121B29
:108940006E685E600B681A602C60096800291DBFA4
:108950004A68002A091D00210160C046C04605F191
:10896000080070BD709A002070B504460D4616468A
:1089700000F0E3FC324629462046BDE8704000F096
:10898000E5BCFEE700B9704738B5A0F108042068DF
:10899000082833D310F0070F30D1C046C04618481E
:1089A000416809B18C4203D26160446017E0194606
:1089B0004B680BB1A342FAD30B685D18AC421BD3D2
:1089C000A54204D12268D2180A600C4607E04A6822
:1089D0001AB123681B199A420ED362604C60616819
:1089E00051B1226813198B4206D100230360086835
:1089F0008018206048686060C046C04631BD0000F5
:108A0000709A00201B4213D1094236D12AB1844604
:108A1000B0FBF2F002FB10C2704700F0DDBCFCD3EB
:108A20000022002370470B00020000210020704745
:108A3000904271EB030CF6D370B5B1FA81F4B3FA3E
:108A400083F52C1BA340C4F1200532FA05F633430D
:108A5000A2405FF00046E64002E05B085FEA3202B7
:108A6000841A71EB030524BF204629467641F4D3CE
:108A700002000B003000002170BD012ACFD970B573
:108A8000140C20D0B1FA81F4B2FA82F5C4F12004BA
:108A90006419B4F12006D6D3B2405FF00044F4402C
:108AA000002502E052085FEA3303C61A71EB020E9A
:108AB00024BF3046714664416D41F3D302000B0080
:108AC0002000290070BD0C46B1FBF2F102FB1145FC
:108AD0002D0445EA1045B5FBF2F402FB145580B2B3
:108AE00040EA0545B5FBF2F002FB105240EA0440B3
:108AF00070BD30B4436803F0004201211B031B0B1F
:108B0000436004BF0368002B08D10DE00368DD0F4C
:108B100045EA440444605B000360491E4468E30284
:108B2000F4D523031B0B436043681A434260084695
:108B300030BC70474FF4001C1CEB410F94BF1CEB82
:108B4000430F09E041EA030C50EA4C0C52EA0C0CCA
:108B500003D2994208BF9042704714BF8B428242B1
:108B60007047FEE74FF4001C1CEB410F94BF1CEB59
:108B7000430F09E041EA030C50EA4C0C52EA0C0C9A
:108B800003D28B4208BF8242704714BF9942904281
:108B90007047FEE770B504460D466068C0F30A50A2
:108BA00040F2FF71884207D16068000304BF20686B
:108BB000002817D0022070BD20B92046FFF799FF8A
:108BC000012866DA012D0FDB40F2FF71091A8D4290
:108BD0000AD3606800284CBF9FED2F0B9FED300B30
:108BE00084ED000B012070BD4142A942616806DAA4
:108BF0006FF31E51401941EA0050606040E0401E92
:108C000063684519012205F1350062F31F533528C9
:108C100001F00041636003D361600020206070BDFB
:108C2000002015F11F0F04DA206823600022203590
:108C300062606A4212D0401E25688041C2F1200362
:108C4000C0439D4045EAD07025686668D54006FA65
:108C500003F32B4323606368D340636062680A4375
:108C6000B0F1004F626003D80DD12078C0070AD55B
:108C70002068401C2060206828B96068401C606043
:108C80004FF0FF3070BD6068884204BF2068002844
:108C9000F6D1002070BD00BF000000000000F0FF12
:108CA000000000000000F07FF446400D40EAC120C3
:108CB000490006D200F014F8004248BF6FF00040AF
:108CC000604700F00DF84FF0004188428CBF084625
:108CD00040426047400D40EAC120490080F00D80CD
:108CE00040F00040490DA1F58061491C05D4D1F147
:108CF0001F0154BFC840C01770474FF000007047B5
:108D0000010040F10980F446404200F005F851F0BE
:108D100000416047010000BF09D0B0FA80F18840EF
:108D2000C91CC1F58461090501EBD02140057047DC
:108D3000F0B44FF0004591EA030F44BF6B4000F0E0
:108D40004DBB00BF841A71EB030604D26E40001BBA
:108D5000B141121973414FF4001C1CEB410F34BF99
:108D60007CEB430684E00C0DA4EB1356362E7DDC21
:108D7000012E43DC45EAC32343EA525312BFD20219
:108D800092025B08240545EAC12141EA5051D2EB29
:108D9000C020994125D407D1B0FA80F610FA06F127
:108DA00064D00020203608E0B1FA81F6B140C6F167
:108DB000200220FA02F21143B0404FEAF474B4EBFF
:108DC000465434F001064FEA74040AD8D6F500166A
:108DD000760D04F00044F04061FA06F25040F14094
:108DE0004840C00A40EA415021F0004128BF5FEAF4
:108DF000500550F1000044EBD12137E045EAC32390
:108E0000DB0A45EAC121C90AB6F120050EDD42EAB6
:108E10000242120CC5F1200603FA06F6EB4042EAC4
:108E200006056D42984161F100010DE062FA06F518
:108E3000F240554063FA06FC82EA0C02F3405A40C5
:108E40006D42904161EB030111F4801F05D1641E56
:108E5000620502D06D004041494121F48011430870
:108E600075F1004350F1000041EB0451F0BC704734
:108E70001CEB410F15D223F0004352EA43060BD0FE
:108E80004FEA4C0CBCEB410F04D80C0D661E342E7F
:108E9000B7DDEBE7801A994150EA410608BF00218F
:108EA000E4E708BF1CEB430F28BF6FF00001DDE7CC
:108EB000B0B581EA030C0CF0004C40F2FF7515EAE6
:108EC00011541DBF15EA1357AC42AF4239E0E41903
:108ED00023EA455343F48013C90241F0004141EABB
:108EE000505EC7021100A7FB020200284FF00000ED
:108EF000EEFB01204FF00001E3FB072118BF42F019
:108F00000102401800214941E3FB0E01A4F58064F1
:108F10000F0302D252004041494154F101046CDD7B
:108F2000470872F1004250F1000051EB0451A1F5E5
:108F300080115CBF41EA0C01B0BD4CEA0551002034
:108F4000B0BD05EA1357AC4214BFAF4241E050EA4E
:108F5000410E1CBF52EA430E02E061460020B0BD44
:108F600024423C441BD15FEA070EF6D0090302BF3E
:108F700001460020AEF1140EB1FA81F7AEEB070402
:108F800001FA07FE0C37C7F1200100FA07F7C840C5
:108F90004EEA000E23EA455343F48013A2E733F070
:108FA0000043B3FA83F704BFB2FA82FE77440B3F63
:108FB000E41BB7F1200E2FBF02FA0EF3BB40C7F13E
:108FC000200E22FA0EFE38BF43EA0E03BA40641C9C
:108FD00082E750EA410E14BF52EA430E6FF00001DF
:108FE0004FF4001717EB430F8ABF194617EB410FD9
:108FF000B5E74CEA05510020B0BDD4F10104B4F14D
:1090000020070FDAC4F12007520828BF42F00102FE
:1090100010FA07F501FA07F7E1BF2A43E0403843A9
:10902000E1400FE0352C98DCC7F1200452EA400201
:1090300020FA07F218BF42F0010231FA07F0A1400E
:109040000A43002172F1004250F1000051EB0C0183
:10905000B0BDFEE72DE9F04140F2FF7581EA030C57
:109060000CF0004C15EA11541DBF15EA1357AC4221
:10907000AF42E9E0BC41C1F31301C3F31303801A0B
:10908000994143F4801304D2641E40004941801882
:109090005941C90241EA5051B1FBF3F603FB1611E5
:1090A000A2FB0675D7EBC020A94102D2761E80181C
:1090B0005941C90241EA5051B1FBF3FE03FB1E11B5
:1090C000A2FB0E75D7EBC020A94103D2AEF1010E71
:1090D00080185941890241EA9051760546EA8E2E60
:1090E000B1FBF3F603FB1611A2FB0675D7EB80204C
:1090F000A94102D2761E80185941C90241EA505155
:109100004EEA060EB1FBF3F603FB1611A2FB067541
:10911000D7EBC020A94102D2761E80185941C9025E
:1091200041EA5051B1FBF3F703FB1711A2FB0735DE
:10913000D3EBC020A94167F100070CBF004247F004
:10914000010766F3D5274FEA1E31B80814F580648D
:1091500014DDBD0775F1004250EB0E5051EB045188
:1091600011F5801F5CBF41EA0C01BDE8F0814CF0B5
:109170007F6141F0E0410020BDE8F081BD076D084E
:1091800040EA0E5041F48011D4F10104B4F12006FC
:109190000ADAC4F120060200E04001FA06F3E140D9
:1091A0001843B24015430EE0342C14DCC6F1200401
:1091B00045EA40056D0820FA06F2154321FA06F04B
:1091C000A1400D43002175F1004250F1000051EB28
:1091D0000C01BDE8F08100205FEA0C01BDE8F081E0
:1091E000CFB992185B41B3FA83F704BFB2FA82F6A3
:1091F000BF190B3FB7F120062FBF02FA06F3BB40A1
:10920000C7F1200622FA06F638BF3343BA401CB134
:10921000E419641E2FE77F4231F00041B1FA81F476
:1092200004BFB0FA80F6A4190B3CB4F120062FBF9E
:1092300000FA06F1A140C4F1200620FA06F638BF74
:109240003143A0403C1B16E7AC421ABF05EA135756
:10925000AF4214E050EA41061CBF52EA4306BFE7A2
:1092600050EA4107304661461CBF41EA0551BDE85E
:10927000F08152EA430C08BFC143BDE8F0810020F1
:109280004FF4001616EB410F98BF16EB430F08BFC3
:1092900016EB410F24BFC14305E016EB430F0CBF93
:1092A00061464CEA0551BDE8F081FEE780B5134800
:1092B000C046C0460FF24C020FF244010160426208
:1092C00041600FF24402826381600FF24402C16088
:1092D0000161416181618162C16201634163C26375
:1092E0000164416401BD10B50448C046C04604464F
:1092F000206808B9FFF7DAFF204610BD5C3B00206C
:10930000000000002E00000066616C736500000024
:10931000747275650000000091FBF2F303FB1211FB
:10932000C0E900317047FEE710B50446DFF81800C9
:10933000C046C04650F8240010BD80B5DFF80800D4
:10934000C046C046806902BDF03A002030B430B952
:109350000FF24800D0E90045C2E900451BE001706A
:10936000012030BC704730B431B90FF23800D0E979
:109370000045C3E900450EE01AB930BC6FF00100AA
:10938000704708B10A7802800978481E804130BCD5
:10939000C043C00F7047002030BC70470000000081
:1093A00000000000000000000000000007490868FD
:1093B00008B1002070470648C008C0000860054991
:1093C000C908C900091A0160704700BF7C9A0020D3
:1093D0001F5C0020187C00207047FEE7841A71EBA8
:1093E000030603D2001BB141121973414FF4001C54
:1093F0001CEB410F34BF7CEB430443E00C0DA4EBAA
:109400001356352E50DC45EAC323DB0A45EAC12159
:10941000C912B6F120050DDD63FA05F6EB4086EAC8
:109420000305124218BF45F00105C01851F10001B3
:109430000CD213E062FA06F5F2405540F3415A406F
:10944000B340F3405A408018594107D349085FEAB6
:1094500030005FEA350528BF45F0010501F58011B0
:10946000420875F1004250F1000041EB0451F0BC9C
:109470004FF4001C1CEB410F38BF70470020090D52
:10948000090570471CEB410F10D252EA43060BD07E
:10949000BCEB410F05D80C0DAB43661E342EB5DD79
:1094A00002E0AB4380185941F0BC7047F0BC7047F4
:1094B00000F07DBF00F0EEBF017851B9016940684E
:1094C000DFF8F42A0123801C8CDF002818BF00F08D
:1094D000E1BF704780B5DFF8E40A01F0C0F9002869
:1094E0001CBFBDE8024000F0D5BF01BD80B5002023
:1094F00001F021FB60B9FFF7EDFF002000F03BFF1A
:1095000000F02EFA00281CBFBDE8024000F0C2BFE8
:1095100001BD10B5044601F076FC204601F0F1FDD6
:10952000204601F0ABFC20780C2804BFBDE81040B9
:10953000FFF7DCBF10BDF8B5DFF8804A204601F028
:1095400023F8050018BF00F0A5FF0FF6C42630462B
:10955000FFF764F940B132460021204600F0ECFFED
:10956000050018BF00F096FFDFF8547A38884FF6F0
:10957000FF76B04205D07888B04202D100F049FDB4
:1095800005467888B04207D03888B04204D104F646
:10959000382200F040FD054625B12846BDE8F240DE
:1095A00000F078BFF1BD70B504460D4600F0ABF891
:1095B000297800F0A2F802D0022925D070BDDFF88A
:1095C000006A31884FF6FF72914237D16A880FF6F0
:1095D0005021328002F085F9FFF7ADFF31882A1D56
:1095E000204602F00BFC08B100F054FF3088002147
:1095F00002F032FD11281CBF002800F04BFF20466E
:1096000002F0D4FB002814E0AA880FF6382102F0FB
:1096100068F9A988DFF8AC0903F077F8002818BFCB
:1096200008280BD0132818BF112807D043F2014196
:1096300088421CBFBDE8704000F02CBF70BD7FB5F4
:1096400005460C4600F05FF8217800F056F802D08D
:10965000022925D07FBDDFF8686971884FF6FF7257
:10966000914249D162880FF6EC11728002F039F90B
:10967000FFF761FF7188221D284603F034F908B115
:1096800000F008FF7088002102F0E6FC11281CBFE2
:10969000002800F0FFFE284603F04DF9002828E0DE
:1096A00022890FF6F41102F01CF9A0798DF802005E
:1096B000694620798DF8000060798DF80100A08955
:1096C000ADF80800A07A8DF806002089ADF80400F6
:1096D00020690390DFF8F00803F02CFA002818BF87
:1096E000082809D0132818BF112805D043F20141DA
:1096F000884218BF00F0CEFE7FBDC00800040129DB
:1097000040F003007047DFF8C408DFF8C418401ABF
:10971000704710B500214FF6FF74DFF8B8280C230E
:1097200003FB01225388A34208D10146104603F0EF
:1097300047FA30B1BDE8104000F0ACBE491C032927
:10974000EBD310BD2DE9F04182B0041DDFF87C1889
:10975000DFF87C280088DFF86488DFF86478891AED
:10976000C9080904102841F003054FF6FF760ED012
:1097700011283ED01B2876D01F287DD0212800F04C
:109780007F803B2818BF562800F0828086E00FF6C5
:109790001811284602F0A2F83888B0421CBF788819
:1097A000B04214D122880FF61411284602F099F81D
:1097B000218808F5946003F0D8FC112804D1218891
:1097C00008F26C7003F0D1FC08B100F063FE208851
:1097D000FFF79FFF012000F0CEFD03F0B4FE02284A
:1097E00008BF00203CD0002000F0C5FDFFF772FE4E
:1097F00054E02088398888420FD122790FF6EC0195
:10980000284602F06EF83E8008F6382203214046D2
:1098100000F092FE08B100F03DFE20887988884271
:109820000FD122790FF6EC01284602F05AF87E801B
:1098300008F63C220321404600F07EFE08B100F00D
:1098400029FE7888B0421CBF3888B04204D1FFF7A7
:1098500041FE002000F08FFD03F075FEF0B90120FD
:1098600000F08EFD1AE02079022817D10FF6CC0106
:10987000284602F033F811E02088211D75DF0AE048
:109880000FF66C2000680090694620888FDF02E0A8
:109890002088132176DF08B100F0FCFDBDE8F381DC
:1098A00010B5014682B00C1D00F055F80988801AE9
:1098B000C0080004102940F0030008D0112914D07A
:1098C00021291CD03B2918BF562920D013BD0FF6E3
:1098D0008C0102F003F8022000F052FD032000F09A
:1098E0004AFD2088FFF715FF13BD237922880FF664
:1098F000840101F0FDFF032000F042FD13BD0FF6CF
:10990000F41000680090694620888FDF02E020880C
:10991000132176DF08B100F0BDFD13BD80B588B11D
:10992000032817D100F017F80FF68401801AC00839
:10993000000440F0030001F0D1FFBDE80240022026
:1099400000F019BD00F00CF800281CBFBDE8024073
:1099500000F0A0BD01BDDFF87406DFF87426704783
:109960000321DFF8740603F00FBF38B50446DFF8B3
:109970004C56A08803F0B1FD01281CBF2188262980
:1099800012D0022818BF1D290DD105F503712046FC
:1099900002F0A2F905F50671204602F0AEFF20465E
:1099A000BDE83240CEE631BD05F5D071204602F06B
:1099B000D4FD05F5F871204602F0EFFF2046BDE822
:1099C00032406DE738B50446DFF8F055214605F51D
:1099D000037002F02FF9214605F50670BDE834400A
:1099E00002F02EBF00F056BD30B58DB0DFF8EC05AB
:1099F000DFF8E055019000240C2001A900FB045081
:109A000003F0CAF808B100F045FD641C032CF3D341
:109A100003208DF80000002102A80022002300246A
:109A20001EC0012002918DF80C008DF814008DF8F5
:109A30001500CDF810D002A9DFF8804504F5D070EC
:109A400002F0F8FD08B100F025FD182106A803F08A
:109A5000D7FF0020069006A90520ADF81E000120C2
:109A60008DF81D008DF81C0004F5F87002F0FBFF66
:109A700008B100F00FFD0DB030BDDFF85015DFF874
:109A8000502510B5891AC9080904082841F00302B5
:109A9000DFF84C4509D0092813D00A2823D00E2816
:109AA00031D1BDE8104004F068B90FF238711046AA
:109AB00001F014FFFDF7D9F928BBBDE8104004F010
:109AC0005AB90FF23471104601F008FF04F1240076
:109AD00004F09EFE08B100F0DDFC00206070BDE8DF
:109AE000104004F058B90FF22471104601F0F6FE50
:109AF00000F063F808B100F0CDFC01206070BDE813
:109B0000104004F03CB910BD2DE9F041FFF723FFF0
:109B10000FF2B878DFF8C844801AC008000403299F
:109B200040F0030547D8DFE801F02926021801229A
:109B3000211D404605F01AFB04F1240004F068FEE4
:109B400008B100F0A7FC022000F015FC2846BDE893
:109B5000F0410FF2C46101F0C1BE0FF2D06128469E
:109B600001F0BCFE607830B300F027F818B3BDE810
:109B7000F04100F08FBC012020701CE00026DFF8CF
:109B80006474208B2179C155401CC005C00D208311
:109B90000122A08B401CA083211D404605F0E6FA5F
:109BA000761C0028EDD032462846BDE8F0410FF281
:109BB000906101F096BEBDE8F081022246F2666136
:109BC00004F1240004F0E5BD80B50A4601460FF219
:109BD000FC6005F0ACFADFF8081410E0DFF8EC03E5
:109BE000DFF8EC33C01A80B5C0080A4600040FF253
:109BF000646140F0030001F074FEDFF8EC13002014
:109C0000087001BDF8B5DFF8E4432078A8B300215F
:109C1000DFF8D003DFF8C8530CE06A8B165C89B21A
:109C20000F19521CD20587F80464D20D6A83491CAF
:109C30005A1EAA83AB8B002BEFD189B219B104F263
:109C40000440FFF7CBFF00210EE06B8B04F501729F
:109C500089B29A5C0B19401E1A71491C2A8C6884BF
:109C6000521CD205D20D2A84688C0028EDD189B20D
:109C700019B1201DBDE8F440A6E7F1BDDFF860038F
:109C80000021018341838183C18301844184704722
:109C9000F0B5CA4C04F5B075BBB04021284603F0BE
:109CA000AFFE0FF2DC530FF2D05104F5AA72284632
:109CB00005F0C0FA4FF40041002001F0B9FC08B1F2
:109CC00000F0E8FB05F0D0FA04F02EFD08B100F03A
:109CD000E1FBC74D0FF2EC502A46012104F046FD8E
:109CE00008B100F0D7FB2A4601210FF2DC5004F046
:109CF0003DFD08B100F0CEFB0021032005F0FAFB8A
:109D000008B100F0C7FB03A9002005F0C1FC08B1B1
:109D100000F0C0FB9DF80C0002280CBF01250025B7
:109D200005F0D0FC08B100F0B5FB05F003FD05F02F
:109D300029FD08B100F0AEFBFFF7E5FCC008000408
:109D400040F003060FF24451304601F0C7FD0FF218
:109D5000A85003F0A6FF08B100F09CFB0FF26C5076
:109D600004F066F908B100F095FB05F046FE08B175
:109D700000F090FB002000906946012005F0E1FE14
:109D800008B100F087FB684605F055FF08B100F008
:109D900081FB0BA800210022002300278EC004F5C0
:109DA00024600B900BA9934A204600F01FFD08B1D8
:109DB00000F070FB0FF258273846FEF72FFD38B140
:109DC0003A460021204600F0B7FB08B100F062FBE4
:109DD00004F638273A4600F01EF908B100F05AFBA5
:109DE00000F017F908B100F055FB00221F212046B2
:109DF00000F0DAFB08B100F04DFB11208DF80000F7
:109E00000C220FF2D03168467CDF08B100F042FB33
:109E100001A80021002206C0208EADF80400608E4B
:109E2000ADF80600A08EADF80800E08EADF80A008F
:109E300001A87ADF08B100F02DFB002104F50970BC
:109E400006F0CFF808B100F025FB1C2104A803F0B0
:109E5000D7FD002004904FF4203005904FF470207F
:109E6000069003208DF81C004FF6FF70ADF81E0021
:109E700001208DF82000002009905F480A9004A876
:109E800006F0C7FA08B100F005FB5C4803F021F9C1
:109E900008B100F0FFFA02F06CF808B100F0FAFA2D
:109EA000052101A803F0ACFD31208DF80400072046
:109EB0008DF8050010208DF806009DF8070040F091
:109EC00003008DF807009DF8080040F003008DF8AE
:109ED000080001A802F0B7F808B100F0DBFA484822
:109EE00002F09FF808B100F0D5FA464800906946A4
:109EF00004F5037001F0D6FE08B100F0CBFA424839
:109F00000090694604F5067002F0D3FC08B100F039
:109F1000C1FAFFF769FDAC210FA803F071FD022023
:109F20008DF83C00062101208DF83E0004F51274E6
:109F30000DF13E00149741700221C18101208DF87E
:109F4000B8004FF496712EA8C16044F250610161CF
:109F50002E49816220460FA903F098FB08B100F05A
:109F600099FA0121204603F08EFB03F0F2FE08B1BE
:109F700000F090FAFFF782FE0FF23031304601F028
:109F8000ADFC55B10FF23C21304601F0A7FC02F0C8
:109F9000BCF820B100F07EFA01E0FFF7A7FAFFF766
:109FA00031FE03F0F6FF0028FBD101F0C9FC0028C8
:109FB000F5D105F095FBF2E7702F0020402F00202F
:109FC000E43B0020E030002030310020707F0300AF
:109FD000007F0300A098002088310020E59902004E
:109FE0009039002040890020E93B0020187C0020A7
:109FF000B1940200B9940200B5940200C599020020
:10A0000013950200A79502003F9602001D990200D9
:10A01000000004F63C220321204600F08DBA000027
:10A0200048525320646973636F7665726564206F6C
:10A030006E20636F6E6E5F68616E646C6520307851
:10A040002578000048656172742052617465203D76
:10A050002025640052756E6E696E672053706565C9
:10A060006420616E6420436164656E63652073657E
:10A07000727669636520646973636F76657265647F
:10A08000206F6E20636F6E6E5F68616E646C65201A
:10A09000307825780000000053706565642020202A
:10A0A0002020203D2025640043656E7472616C2081
:10A0B000636F6E6E6563746564000000417474655F
:10A0C0006D707420746F2066696E6420485253204E
:10A0D0006F7220525343206F6E20636F6E6E5F6805
:10A0E000616E646C652030782578000048525320FA
:10A0F00063656E7472616C20646973636F6E6E6504
:10A10000637465642028726561736F6E3A202564FC
:10A11000290000005253432063656E7472616C2005
:10A12000646973636F6E6E6563746564202872651D
:10A1300061736F6E3A20256429000000436F6E6ED4
:10A14000656374696F6E20526571756573742074F0
:10A15000696D6564206F75742E000000506572692A
:10A1600070686572616C20636F6E6E6563746564A0
:10A17000000000005065726970686572616C20644F
:10A180006973636F6E6E65637465642E20636F6EB2
:10A190006E5F68616E646C653A20307825782C209B
:10A1A000726561736F6E3A20307825780000000088
:10A1B00046617374206164766572746973696E6751
:10A1C0002E000000457261736520626F6E6473211A
:10A1D000000000006E5246204453204272696467BA
:10A1E0000000000055534220706F7765722064654F
:10A1F000746563746564000055534220706F776521
:10A20000722072656D6F76656400000055534220C0
:10A2100072656164790000004344432041434D204E
:10A22000706F7274206F70656E65640043444320E4
:10A2300041434D20706F727420636C6F73656400CE
:10A2400055736220676F742062697465733A2025C4
:10A250006C752000424C45206368616E6E656C57DA
:10A2600072697465426C6520627974657320636FEE
:10A27000756E743A20256400257320257300000054
:10A280004665622032332032303139005553424422
:10A2900020424C452055415254206578616D706CC8
:10A2A0006520737461727465642E000052656C6180
:10A2B00079206578616D706C652073746172746566
:10A2C000642E0000E8980020B4390020309400206B
:10A2D000D482030002000106010204828101000011
:10A2E0000000010181010000099B0200E83B002001
:10A2F0000000000000000000000000007B9A020047
:10A300000000000010B5202841EA420132BF4FF0A2
:10A31000A04400F01F00314C41EA8302029942EA56
:10A320000122039904EB800042EA0141C0F80017C2
:10A3300010BD10B52A4A2B4B012449B9202832BF41
:10A34000191D00F01F00111D04FA00F0086010BD77
:10A35000202834BF1A4600F01F0004FA00F01060F5
:10A3600010BD0FF22811405C202832BF1E4900F0BA
:10A370001F001E494AE00FF21412805C0021D8E74A
:10A380000FF20812805C0121D3E710B500242046AB
:10A39000FFF7F6FF641C042CF9D310BD10B50024A0
:10A3A0002046FFF7E8FF641C042CF9D310BD0FF220
:10A3B000DC01405C202832BF4FF0A04100F01F00BC
:10A3C000064901F2045101230A6803FA00F020EA69
:10A3D00002034B601040886070470000000300508B
:10A3E00008080050080500500405005004080050FB
:10A3F0000FF29C01405C202832BF024900F01F0090
:10A40000014903E010050050100800500968C140E0
:10A4100001F00100401E8041C00F704710B54FF0A1
:10A42000FF3100220FF26803D45C844201D111464F
:10A4300002E0521C042AF7D3084610BD7CB504463E
:10A44000E00710D500250FF244060020019000908F
:10A450000023A85D01220121FFF754FF6D1C042D8C
:10A46000F3D3FFF792FFA0070ED500240FF22005CB
:10A470000020019000900323605D00220021FFF77F
:10A4800041FF641C042CF3D373BD00000D0E0F10AC
:10A490000B0C181910B584B0694600220023002463
:10A4A0001CC102906A46002144F2010006F07AF8CD
:10A4B0001FBDFEE770B5044604F12E0086B0867A13
:10A4C00000780D4698B18BDF00F000FA334604F1B6
:10A4D000300204F13A01A81C8CDF06218DF800102F
:10A4E000019020B1A16C08001CBF6846884706B0E7
:10A4F00070BD70B50D4604462846FEF78FF904F18D
:10A500002006C0B208B1212801DB0C2070BD3078D4
:10A5100008B1042070BD2946204606F087F850B1E6
:10A520002846FEF77BF90246012030702946204676
:10A53000FCF742FF002070BD70B5002818BF002A4C
:10A5400001D10E2070BD11B1032904D01AE0BDE87D
:10A5500070401146CDE700F1220110F82A3F1C4659
:10A56000022C01DB042070BD15880E88AE421CBF92
:10A570008E88AE4204D05B1C0370106841F8240042
:10A58000002070BD072070BD10B50446202103F0E7
:10A5900037FA002084F82000223408212046FDF7F5
:10A5A00029F80020207210BD70B505000E46144633
:10A5B00001D10E2070BD1F20064201D1072070BDC1
:10A5C000284600F00DF805F12100F10744BF0121F4
:10A5D0000170710744BF01218172C472002070BDF7
:10A5E00008B90E207047002100F8211F8172002059
:10A5F00070472DE9F04F8BB081460D46142105A818
:10A6000003F0FEF909F13A0009900026484600F0EF
:10A6100099F8B24609F1200778B102208DF81400AC
:10A62000069505A8B96A884709F5A67100208ADF52
:10A6300029464846FFF73EFF81E0387B0490D0462C
:10A64000FC7A7878F8B1387802900126A88BADF8BA
:10A650000000D34601E00BF1010B02995FFA8BFB7E
:10A660008B4510DABDF80010A86909EB4B1206F013
:10A670008BFA0028EFD09DF81C00B24640F0010094
:10A680008DF81C00D0466CB309F122000290002422
:10A69000387B0190761CB87A0390A346A88BADF85E
:10A6A000000001E00BF1010B03995FFA8BFB8B4576
:10A6B00031DA0299A86901EB8B02BDF8001006F0AF
:10A6C00087FA28B30198641C0028EBD1E4B24CB19E
:10A6D0009DF81C0040F004000AF1010A8DF81C00EE
:10A6E0004FF001080498069520B15FFA8AF0F6B29F
:10A6F000B04205D0049888F001010843C0B290B977
:10A7000000208DF8140029464846FFF7D3FE0DE0DF
:10A7100001980028C6D001980028D7D00398E4B249
:10A720008442D5D0DEE703208DF81400B96A080012
:10A730001CBF05A8884709F5A67100208ADF0BB069
:10A74000BDE8F08F90F83A00C0F3C100012816BFB1
:10A75000032801200020704710F83A1F41F004013F
:10A76000A0220170428001F0E70150228280017036
:10A7700000220121C280417070474FF4C871C18628
:10A78000062101861821418600218186704730B557
:10A7900085B004460D1D00F099F8287801280DD1E8
:10A7A000A06C58B104208DF8000004F13A00049028
:10A7B00028788DF804006846A16C884705B030BD44
:10A7C00030B585B000F080F8A06C68B105208DF838
:10A7D0000000291D04F13A000490092201A8FCF7A9
:10A7E000EBFDA16C6846884705B030BD70B504002C
:10A7F0000D4601D10E2070BDA2642E2103F000F998
:10A8000004F12E06D5B128793070287BB072296802
:10A8100029B104F13A000E22FCF7CEFD02E02046F9
:10A82000FFF79AFFA96829B104F130000822FCF76C
:10A83000C3FD0BE02046FFF7A0FF07E02046FFF72F
:10A840008BFF2046FFF799FF0020307004F5A670BB
:10A8500004F14C010160FF218180002070BD10B522
:10A8600086B0040008BF0E2027D000F02FF88BDF41
:10A870002046FFF767FF38B1A16C080004D0012023
:10A880008DF800006846884704F5A67104F13A0087
:10A890008ADF0446082C18BF002C0DD00848094B4D
:10A8A0000FF28C01C01AC0080004224640F00100DB
:10A8B00001F017F8204600E0002006B010BD0000AF
:10A8C000507F0300007F030004460D4614216846B4
:10A8D00003F096B830B585B0FFF7F6FF07208DF886
:10A8E0000000281D01902888ADF8080004F13A0006
:10A8F0000490A16C08001CBF6846884705B030BDB5
:10A900000A460388011D102B0ED01B2B08D01D2BCF
:10A9100002D0202B06D0704700F10801104668E6EF
:10A92000104634E710464BE71046D3E7000000001E
:10A9300073645F626C655F6761705F7363616E5FB4
:10A9400073746172742072657475726E6564203000
:10A950007825780038B50D468A498B4BC91AC90845
:10A96000090441F001040FF258230FF2682120B9C5
:10A970000E2000900FF2882204E02DB90E200090E6
:10A980000FF28422204605E0056011462A68BDE8E2
:10A990003840104700F0B3FF0E2032BD3A4629463A
:10A9A0002046F9E02DE9F04700F072F80FF26C292B
:10A9B00000F05EF882B000F056F814B900F062F8CA
:10A9C00005E046B90E2000904B460FF2642200F0DD
:10A9D00055F80E2041E0206818B900F05EF8082014
:10A9E0003BE027B9092000904B4665A20BE0606868
:10A9F0004068B7FBF0F100FB117040B109200090F6
:10AA00004B460FF2342200F039F8092025E02846A1
:10AA100000F0CFF820B900F022F80FF248220FE042
:10AA2000304600F0C6F820B900F019F80FF24C22B9
:10AA300006E0FFF7B3FF38B900F011F80FF260221B
:10AA400000F01CF8102008E00A9800903B462046D1
:10AA50002468E46832462946A047BDE8F6871020FE
:10AA600000904B46704716461F4640F0010870475D
:10AA70000FF2601A401AC008000470475146404661
:10AA800000F03DBF0E2000904B460FF2741270474D
:10AA900004460D463B483C497047082000904B4611
:10AAA0000FF26C125146404600F029BF2DE9F047E5
:10AAB000FFF7EEFF0FF21029FFF7DAFF82B0FFF782
:10AAC000D2FF2CB9FFF7DEFFFFF7D8FF0E2028E0FA
:10AAD000206818B9FFF7E1FF082022E01EB900F056
:10AAE00022F809201DE060680068411E0D4204D074
:10AAF000FFF7B5FF0FF2E41208E000FB06F2FFF7E4
:10AB00004EFF38B9FFF7ABFF0FF2F812FFF7B6FFB1
:10AB1000102006E02046246824693B463246294638
:10AB2000A047BDE8F687092000904B4614A2514685
:10AB3000404600F0E4BE38B500281CBF016800297B
:10AB400019D10025114C00E06D1C11481149401A23
:10AB50001421B0FBF1F085420BD2142000FB05401C
:10AB600001680029F0D0C96988470028ECD001208D
:10AB700032BD002032BDBDE83440C969084700003D
:10AB80006C656E00687F0300007F0300EC3B0020D3
:10AB9000143C0020EC3B0020C368994207D30069B5
:10ABA0005118491E88428041C043C00F70470020A1
:10ABB000704700F00300401E8041C00F7047000046
:10ABC0006E72665F6673746F726167655F696E69E6
:10ABD00074000000257320636865636B20666169FB
:10ABE0006C656420696E2025732829207769746854
:10ABF0002076616C756520307825782E0000000085
:10AC0000705F667300000000705F61706900000093
:10AC1000705F66732D3E705F617069006E72665F73
:10AC20006673746F726167655F777269746500003F
:10AC3000705F73726300000021286C656E20252010
:10AC4000705F66732D3E705F666C6173685F696EDE
:10AC5000666F2D3E70726F6772616D5F756E69749D
:10AC600029000000616464725F69735F616C6967E9
:10AC70006E6564333228646573742900616464729C
:10AC80005F69735F616C69676E656433322828752C
:10AC9000696E7433325F7429705F737263290000C8
:10ACA000616464725F69735F77697468696E5F621B
:10ACB0006F756E647328705F66732C20646573749F
:10ACC0002C206C656E2900006E72665F6673746F6F
:10ACD000726167655F6572617365000061646472CB
:10ACE0005F69735F706167655F616C69676E6564FA
:10ACF00028705F66732C20706167655F61646472A1
:10AD000029000000616464725F69735F7769746829
:10AD1000696E5F626F756E647328705F66732C2056
:10AD2000706167655F616464722C20286C656E20B9
:10AD30002A20705F66732D3E705F666C6173685F7A
:10AD4000696E666F2D3E65726173655F756E6974BD
:10AD5000292900002DE9F04182B0044643F20205A2
:10AD600069B9694601F085F9A8421CBF0028FFF7C0
:10AD700091FB9DF80000C0F34000002840D1002165
:10AD8000204601F069F9060018BF112E38D000F0F6
:10AD90001FF907040D2E47F0020814D122460FF2C6
:10ADA000B831404600F09DFD1321204676DF0600B5
:10ADB00026D005F065FF024623460FF210414046BB
:10ADC00000F096FD1CE00B2E03D122460FF2344119
:10ADD00004E0AE4206D122460FF28841404600F020
:10ADE00080FD0DE0304605F04BFF024623460FF292
:10ADF000C04147F0010000F07BFD3046FFF74AFB01
:10AE0000BDE8F381A6E710B5044600F0E7F8207826
:10AE100018B96088BDE8104094E1072813D1DFF825
:10AE20002803DFF828230FF2C441801AC008000469
:10AE300040F0010000F052FDA06800281CBFBDE8F2
:10AE40001040FFF727BB10BD00B587B00FF2B071FF
:10AE5000684691EC060B80EC060B0BE000B587B062
:10AE60000FF2B472694692EC060B81EC060BADF85A
:10AE70000400684600F002F807B000BDF8B50546CA
:10AE8000B34C287868B1022827D006282ED008288D
:10AE900018BF0A2873D0132874D0142800F08C80AF
:10AEA000F1BDA88801F0E2F9862818BF11280DD15C
:10AEB0006069A98804EB4002401C9180811000EB7E
:10AEC0005171C910A0EBC10060617EE006281CBF73
:10AED000072813287BD000284DE0287A012818BFC6
:10AEE000002874D1A888FFF7B9FFF1BD20780028A9
:10AEF0006DD100F06DF8050445F003070FF2F8314D
:10AF0000384600F0EBFC6078A8B900236A460021BF
:10AF100001F043F9060019D1BDF800200FF2F43119
:10AF2000384600F0DEFCBDF8000001F0E6F806004F
:10AF300008D10120607006F049FD06001AD10120F9
:10AF40002070F1BDFFF7A6FA01206070052E04D134
:10AF50000FF2EC3145F0010005E0062E06D10FF2AC
:10AF6000004145F0020000F0B9FCF1BD002EE2D036
:10AF7000304601E008282AD0FFF78CFAF1BD012005
:10AF80006070F1BD002065692070607000264FF68A
:10AF9000FF77A919881001EB5070C010A1EBC00019
:10AFA00004EB40029088B8421CBF9780FFF756FF21
:10AFB000761C082EEDDBF1BD00202070287B30B11F
:10AFC000A8680E2818BF012801D1FFF73DFFF1BD89
:10AFD0005D485E49401AC008704700002DE9FC41F9
:10AFE00004465948594922785A4E401AC00800046C
:10AFF000142A40F0030740F0010840F002056AD827
:10B00000DFE802F071710B1671712125712B3F433E
:10B010004B527159717171716300608802F05DFA71
:10B0200000F063F80FF27831384600F068FC5AE01F
:10B03000608802F052FA6189019100F056F80FF22F
:10B04000A03138461AE00FF2EC31284628E000F033
:10B0500055F802460FF2F4312BE0206905F010FE9E
:10B0600001900FF21441607A06EB8000006C0090B2
:10B07000207AA28806EB80008369284600F049FC0C
:10B0800031E0A2880FF23C4113E000F037F80346AC
:10B09000A2880FF25841404612E00FF28041384634
:10B0A000BDE8FC4100F01ABC00F028F802460FF29F
:10B0B0008041404612E0A38862880FF298412846FA
:10B0C00002B0BDE8F04100F013BC00F017F80246F2
:10B0D0000FF2BC4101E00FF2E841284602B0BDE8A2
:10B0E000F04100F0FEBBBDE8F381217A06EB81015F
:10B0F000C968009156F8202063887047A06805F061
:10B10000BFBD10B50446207803281AD10E480F4B56
:10B1100062880FF2CC41C01AC008000440F002005F
:10B1200000F0DFFB6088132176DF08281CBF43F2A4
:10B130000201884205D000281CBFBDE81040FFF77F
:10B14000A9B910BD00215DE6D87F0300007F030090
:10B15000743A00202C3A0020706D5F636F6E6E5F52
:10B160007365637572652829206661696C65642062
:10B170006265636175736520616E20534D50207464
:10B18000696D656F75742069732070726576656E80
:10B1900074696E67207365637572697479206F6E68
:10B1A00020746865206C696E6B2E20446973636F30
:10B1B0006E6E656374696E6720636F6E6E5F686143
:10B1C0006E646C652025642E0000000073645F626D
:10B1D0006C655F6761705F646973636F6E6E6563F2
:10B1E0007428292072657475726E65642025732039
:10B1F0006F6E20636F6E6E5F68616E646C65202594
:10B20000642E0000706D5F636F6E6E5F73656375B3
:10B2100072652829206661696C65642062656361D6
:10B22000757365207468652073746F72656420643B
:10B2300061746120666F7220636F6E6E5F68616E0D
:10B24000646C6520256420646F6573206E6F7420C4
:10B250006861766520612076616C6964206B657930
:10B260002E000000706D5F636F6E6E5F73656375B7
:10B2700072652829206661696C6564206265636176
:10B2800075736520636F6E6E5F68616E646C6520B8
:10B290002564206973206E6F7420612076616C696B
:10B2A0006420636F6E6E656374696F6E2E000000BC
:10B2B000417373657274696E672E20706D5F636F82
:10B2C0006E6E5F736563757265282920726574758B
:10B2D000726E6564202573206F6E20636F6E6E5FE3
:10B2E00068616E646C652025642E0000417373658F
:10B2F0007274696E672E0000417474656D707469B4
:10B300006E6720746F20636C65616E20666C61737C
:10B31000682E000044656C6574696E67206C6F77F9
:10B320006573742072616E6B656420706565722050
:10B3300028706565725F69643A2025642900000001
:10B34000546865726520617265206E6F2070656556
:10B35000727320746F2064656C6574652E00000044
:10B36000506565722072616E6B732066756E6374D2
:10B37000696F6E616C6974792069732064697361A7
:10B38000626C65642C20736F206E6F20706565722F
:10B3900073206172652064656C657465642E0000BD
:10B3A000436F6E6E656374696F6E2073656375724B
:10B3B00065643A20726F6C653A2025732C20636FA8
:10B3C0006E6E5F68616E646C653A2025642C207037
:10B3D000726F6365647572653A2025730000000022
:10B3E000436F6E6E656374696F6E2073656375720B
:10B3F000697479206661696C65643A20726F6C6566
:10B400003A2025732C20636F6E6E5F68616E646CEA
:10B41000653A20307825782C2070726F63656475EA
:10B4200072653A2025732C206572726F723A20255E
:10B4300064000000466C6173682073746F7261670A
:10B44000652069732066756C6C000000556E657828
:10B4500070656374656420666174616C20657272E6
:10B460006F72206F636375727265643A20657272E1
:10B470006F723A2025730000506565722064617414
:10B48000612075706461746564206661696C6564CF
:10B490003A20706565725F69643A2025642C2064E7
:10B4A0006174615F69643A2025732C20616374695B
:10B4B0006F6E3A2025732C206572726F723A2025C8
:10B4C00073000000506565722064656C6574656486
:10B4D000207375636365737366756C6C793A20705D
:10B4E0006565725F69643A20256400005065657285
:10B4F0002064656C6574696F6E206661696C656453
:10B500003A20706565725F69643A2025642C206575
:10B5100072726F723A20257300000000416C6C203B
:10B5200070656572732064656C657465642E0000D7
:10B53000416C6C20706565722064656C6574696F20
:10B540006E206661696C65643A206572726F723A4A
:10B55000202573004C6F63616C20444220636F753B
:10B560006C64206E6F74206265206170706C696518
:10B57000643A20636F6E6E5F68616E646C653A203A
:10B5800025642C20706565725F69643A202564002B
:10B59000466C617368206761726261676520636FE2
:10B5A0006C6C656374696F6E206661696C6564209C
:10B5B00077697468206572726F722025732E00009F
:10B5C000556E657870656374656420504D206576AE
:10B5D000656E742049443A20307825782E000000AA
:10B5E000446973636F6E6E656374696E6720636F21
:10B5F0006E6E5F68616E646C652025642E000000CD
:10B600000600000000000000000000000000000034
:10B61000000000000000000000000000000000002A
:10B62000000000000000000000000000000000001A
:10B6300080B5DFF88805FF2181600021016041604D
:10B6400000F21440416001600173DFF8740506F0F8
:10B6500019FA20B90FF29C5006F0BBFA002002BD87
:10B6600030B5A9B1DFF85C15DFF85C250568DFF8B7
:10B670005C35891A002200E0521CB2EBD10F05D2D2
:10B6800033F82240AC42F7D1026001E0052030BD22
:10B69000002030BD01B56846FFF7E2FF002803BF78
:10B6A000DFF82C05009950F83100002002BD0000A1
:10B6B000491EDFF81C25032902EBC0000BD8DFE888
:10B6C00001F0020406080220704704207047007948
:10B6D0007047407970470020704700680022C0F32F
:10B6E000800383B100F00302012A02D0022A04D0B1
:10B6F00008E00A68C0F3831001E00A68800D801C2E
:10B7000080180860012210467047F0B5DFF8AC548D
:10B7100085B005F58360FBF769FF05F214463046F6
:10B72000FBF764FF6868AF680090002400E00098B1
:10B73000384005EB80000C306946FFF7CEFF00284B
:10B74000F5D101AA0099394005EB8101C96842F899
:10B750002010401C0099491C02280091F2D3019945
:10B76000BDF80A0001F00301012909D002290ED118
:10B77000019904460098890DC91C00EB910005E071
:10B78000044601990098C1F38311081800903046CF
:10B79000FBF72EFF08B100986860204605B0F0BDA9
:10B7A00080B50021DFF82C04FBF7B0FE80F3100019
:10B7B00002BD2DE9F04781461F46089CDFF8FC8357
:10B7C000781C20408A46164608EB8005FFF7E8FF04
:10B7D000000440EA194009F00701B201E86042EABA
:10B7E000C101890504EA0700890D08EB800041EAE0
:10B7F0008A2141F00101C160BDE8F0872DE9F041E7
:10B8000082B088461646DFF8B473054600208DF8EE
:10B810000000AC1C6846FBF745FE3868C8F800001D
:10B8200007F21C4809E001214046FBF7B7FEFFF78D
:10B830006CFF01464046FBF7B1FEB8683968401C12
:10B84000401A79680818A042EDD32EB1A80100F47F
:10B85000707040F0050002E0A80540F0060039686D
:10B86000BA68114007EB8101C86038682018386059
:10B870009DF80000FBF731FE0120BDE8F6812DE9BF
:10B88000F043DFF8386383B004460D46904699468E
:10B89000B768012201A94846FFF7B0FFA8B1019897
:10B8A000801C002108E007EA000206EB820258F83B
:10B8B0002130D360401C491C4945F4D300974A46C7
:10B8C000019B29462046FFF774FF96F8200418B123
:10B8D00000F036F80028FBD1BDE8F78300230022F2
:10B8E000CDE780B5009201236A46FFF7C8FF01BD8E
:10B8F00000B583B0009201936A46022306E0E0B5EA
:10B90000009201930323049A02926A46FFF7B7FF5D
:10B9100007BD00B585B0009201930423069A0292F8
:10B92000079A0392FFE76A46FFF7A9FF05B000BD3B
:10B93000A2484168006881420CBF01200020704786
:10B940002DE9F04786B0FFF7F3FFD0B99B4C04F523
:10B950008265A860BFF34F8F6068A6680090304092
:10B9600001E006EA010004EB80000C306946FFF7B5
:10B97000B4FE40B1A86830B9206800998142F0D384
:10B9800060600020D5E04FF0000901A90098304028
:10B9900004EB8000C06841F8290009F10109009812
:10B9A000401CB9F1020F0090F0D30199844801F0D6
:10B9B00003010229019945D18F0DB946502FA8BF27
:10B9C000502767F39F51019107F1080106F05CF8D9
:10B9D0005FEA00084FD006F09FF800F0ADF800983D
:10B9E0003040711C091A8A00BA4204EB80001BD255
:10B9F00032B93E4604F10C014FF0000A002705E081
:10BA000000F10C01164604F10C0ABF1AF6B2082325
:10BA10003246404606F0CFF8BAF1000F0BD006F1DF
:10BA20000803FAB2514603E008233A4600F10C013C
:10BA3000404606F0C0F8009809F1030100EB9100C0
:10BA4000009036E001F00301012957D10199C1F3BB
:10BA500083110629A8BF0621019A22F4707242EAD6
:10BA6000811101910199C1F38311891C890006F0AC
:10BA70000BF85FEA000841D006F04EF800F05CF8E1
:10BA800008274FF000090FE00098411C009130405A
:10BA900004EB800000F10C013B460422404606F016
:10BAA0008AF83F1D09F101090198C0F3831081450F
:10BAB000EAD32E68A86868B1404606F031F832E053
:10BAC000F068407920B132681268414630469047AC
:10BAD000F0680668002EF3D1404606F021F80020F9
