:020000040002F8
:10600000A0470020914B0300BBA00200B54903004C
:106010002FA1020003B7020063B7020000000000D6
:10602000000000000000000000000000EBC80200BB
:1060300003C902000000000067C9020033CA020061
:10604000A14B030013CC0200C114030043CC020097
:1060500003D102005BD3020011230300D7D3020057
:1060600067D4020047EE0200BBEE02001F0B0300E4
:10607000273D0300EB490300C94A0300634B0300BB
:106080006F4B0300211E0300AF4B0300094C0300BC
:106090008F1E03000B4C03000D4C03000F4C03003C
:1060A000114C0300134C0300154C0300174C030064
:1060B000194C03001B4C030000000000000000000E
:1060C0001D4C03001F4C0300214C0300234C030014
:1060D000254C0300274C0300294C030039AE020075
:1060E0002B4C03002D4C03002F4C0300000000003C
:1060F00000000000314C030000000000334C03009E
:10610000000000000000000000000000000000008F
:10611000000000000000000000000000000000007F
:10612000000000000000000000000000000000006F
:10613000000000000000000000000000000000005F
:10614000000000000000000000000000000000004F
:10615000000000000000000000000000000000003F
:10616000000000000000000000000000000000002F
:10617000000000000000000000000000000000001F
:10618000000000000000000000000000000000000F
:1061900000000000000000000000000000000000FF
:1061A00000000000000000000000000000000000EF
:1061B00000000000000000000000000000000000DF
:1061C00000000000000000000000000000000000CF
:1061D00000000000000000000000000000000000BF
:1061E00000000000000000000000000000000000AF
:1061F000000000000000000000000000000000009F
:10620000002818BF01F04EBF704710B50446206843
:10621000FFF7F6FFA168CA7C06E010B504462068C7
:10622000FFF7EEFFA1688A7C497B8018B0FBF1F292
:1062300001FB1200401E8041C00F10BD2DE9F0414E
:1062400082B00446884616461F4600251DE0606859
:10625000D0F800C0DCF80CC06B46324605EB0801F4
:10626000E04700984519361A78B9A06801780329E3
:106270000BD0D0F83C11C1F340110029F9D0D0F86F
:106280003C1121F02001C0F83C11002EDFD10FB1EC
:1062900000983860BDE8F3810A4600693CA101F02E
:1062A00062BF10B5406804682469A04710BD2DE99D
:1062B000F047064692461D46C9B901F043F9C608A3
:1062C000B24528D20027DFF8608DDFF8609D00E03E
:1062D0007F1CB7421FD209EBC700446858F82A0058
:1062E000216801F053FF0028F2D12C6015E096B12F
:1062F000307840B1089F72683946504690473868F8
:1063000050B12F6009E071684FEA0A10415811B18D
:106310007168401800E000202860BDE8F08738B5BB
:106320008568006805F10804FFF76AFFA071A1798C
:10633000E87C00F018F82070A179E87C00F00DF8F6
:10634000A070A179A87C00F008F8E070A179A87C81
:1063500000F009F86070204632BD0818617990FBA2
:10636000F1F0401C70470818617990FBF1F201FBD5
:106370001200401C704700690FF2040205E00000A3
:106380001B5B4A0000690FF20C02BFA101F0EBBEDB
:10639000256300001B37000000690FF20402F4E7D8
:1063A0001B38000000690FF20402EEE71B450000F5
:1063B00029B10A4600690FF2080101F0D4BE704706
:1063C0001B5B25644400000029B10A4600690FF2F6
:1063D000080101F0C8BE70471B5B25644300000044
:1063E00029B10A4600690FF2080101F0BCBE7047EE
:1063F0001B5B25644100000029B10A4600690FF2C9
:10640000080101F0B0BE70471B5B2564420000002C
:1064100070B50446FFF783FF0546A878E9788842FF
:106420000CBF012600262046FFF7EFFE18B92046D4
:10643000FFF7F3FE08B100F0DFFD56B901F04BFBAA
:1064400068782978884204D2091A2046BDE870404D
:1064500096E168782978411A2046BDE87040C9B2B3
:10646000A6E738B50446FFF75AFF0546AB792A7808
:10647000A8785B1C9A4208BF012812D0022802D3D8
:10648000411E01F02BFBA8792978884203D2491ECE
:1064900001F042FD02E0401C01F073F9A168002008
:1064A000C87431BD38B50446FFF739FF0546287872
:1064B0006978884202BFA878E978884212D0E878E3
:1064C000A978814202D2411A00F00DF86878297843
:1064D000884202D201F020FD01E001F052F9A068EB
:1064E000817CC17431BDC9B2204685E72DE9FC41EC
:1064F000044600258DF800508021A068943001F0FA
:1065000075FE20690FF2EC0101F02DFE01F090F80C
:10651000002600274FF47A7800F08DFE019878B9B4
:106520000FF2DC014FF6C01041F0010188470198DD
:10653000002808BFB8F10108EED10D20BDE8F681B2
:106540009DF80010A0681B2947D090F894201B2AC2
:10655000E2D1522941D1381880F89450A06800F156
:1065600094014A785B2A02D00D700B20E6E70227DF
:1065700039180A2291F894107F1C3B29FFB209D0E8
:1065800016FB02F252FA81F1A1F13006802FB6B269
:10659000EEDB10E0802F0EDA391891F8941061B11B
:1065A00015FB02F37F1C53FA81F1FFB2A1F1300514
:1065B000802FADB2F0DB0C20C0E7FB2D26BFFA2107
:1065C00001720572A068FB2E26BFFA2181728672C5
:1065D000A168002081F89400B0E738187F1CFFB252
:1065E0000A2F80F89410A2D3A16881F89450042057
:1065F000A4E700001B5B366E0000000000000000F6
:106600000338FDD8704700007CB50A0083681EA1DE
:1066100012D0DB7B934216D00FF22C0460CC6B4679
:1066200060C302F12F038DF805308368DA736A4680
:10663000006901F098FD73BD0022DA7300690FF262
:10664000100201F090FD73BD1B5B313B33006D0008
:106650001B5B6D0001B9704730B583B08268127C56
:106660008A420FD00FF2240330CB6A4630C201F1C8
:106670002F028DF80320826811746A46006902A116
:1066800001F071FD37BD0000257300001B5B340075
:106690006D000000806810F80F2F0A7042784A7071
:1066A0007047F8B504460E4600F0FCFF01F0010506
:1066B00000F112014A7809788F1AFFB21DBB7F29B9
:1066C00054DA37B1101800F114013A46153001F0D0
:1066D0009DFD00F0EAFA06750DB900F048F8EFB13B
:1066E00000F087FCB6A68178C078814210D02046A1
:1066F000FFF748FE00F0ACF82046FFF74DFE012101
:1067000001F041F811E07F29E3DB002FE1D1F1BD79
:1067100000F09EF8791B01F000FC06E00DB100F0DE
:1067200026F831462046FFF7B7FD00F06EFCFFF774
:106730006CFD002820461CBFBDE8F240FFF732BECA
:10674000FFF76BFD90B100F054FC0546E878A9789E
:10675000401A411EFFF7C7FE00F04EFC01F0BBF9E6
:106760002878411E2046BDE8F44009E0F1BDA0684C
:10677000817C491C81740022C9B2081802757047D7
:10678000C9B221E670B50446A068817C00291CBF0F
:10679000C27C002A2FD08D1A1018EDB200F114011E
:1067A0006A1C133001F032FDA068C17C491EC1741F
:1067B00083A6A068817C491E8174A5B1082120466A
:1067C000FFF76AFD00F015FC8178C078814200D0A7
:1067D00048E000F03DF82046FFF7CDFD2946204671
:1067E000BDE87040E4E520690FF20C023146BDE8D7
:1067F000704001F0B8BC70BD0820080070B50446B8
:10680000A068C17C827C551AEDB2002D1CD00818FE
:1068100000F115012A4600F045FAA068817C491E66
:10682000817400F0E6FB66A68178C078814200D0D2
:1068300018E000F00DF820690FF21002314601F067
:1068400092FC2046691E08E670BD00001B5B4B00F1
:10685000A068C17C081800F11403324608212046C4
:1068600000F0ECBE2046FFF78DFD2046FFF783FDCC
:10687000FFF7EEFF2046BDE870408DE52DE9F047BB
:1068800080460024894616469A46C8F80040357866
:1068900055B1284601F00AFD70B1002006F8010B41
:1068A000D8F800005045F2D30020D8F8001049F87D
:1068B00021002046BDE8F087D8F80000411CC8F848
:1068C000001049F82060002404E000F035FA00F0E0
:1068D00061F8761C3578002DE2D064B9222D18BFFE
:1068E000272D02D05C2DF0D005E000F025FA00F055
:1068F00051F82C46EEE7AC4204D100F01DFA00F04E
:1069000049F8E0E7002C3FD05C2DE2D17078A0423E
:10691000DBD0302819D100250227B85DA0F1300165
:10692000082905D27F1C41EAC505052FEDB2F4DB2D
:10693000032F0ADB00F000FAC01B821CB819411EAD
:1069400000F02AF806F8015BC4E77828C1D10025D9
:106950000227B85DA0F130020A2A38BF30380AD3C6
:10696000A0F16102062A38BF573804D3A0F14102D2
:10697000062A06D237387F1C40EA0515042FEDB2EF
:10698000E7DB032FA5DBD5E7284601F08FFC0028C5
:1069900086D19EE70246711C304601F037BC826802
:1069A000022911700AD1002111758268D1748268A0
:1069B000917403A20368032100F040BE70470000F9
:1069C000257300003EB504466846002200230025DA
:1069D0002CC0A06800F59870826819BB002A78D096
:1069E0002046FFF73EFDA068D0F8380100F0D8F847
:1069F000A16801988D7CC1F8380100283DD101F1D2
:106A00009400FFF7FDFB30B1A06800F19401143051
:106A100001F056FC01E0A168087500F003F98DF85B
:106A200008003BE041688A421CBF0068002850D043
:106A30002046FFF716FDA168D1F83801A8B901F189
:106A40001400FFF7DDFB0546A06800F59871EDB274
:106A50000A688A602DB100F11401943001F030FC15
:106A60000BE0002180F8941007E000F099F8A1688D
:106A70009DF808500098C1F838010023A068D0F8AC
:106A8000380100F08EF89DF80810A0684A1C00F14B
:106A90001401D0F83801092301F0D2FCA1689DF857
:106AA0000800C874A1689DF8080088749DF8080063
:106AB000A8423CBF2046FFF75EFC00F0ACFA20463F
:106AC000FFF7A3FB18B92046FFF7A7FB08B100F0BA
:106AD00093FA37BD3EB504460D46A16801F598729C
:106AE000106838B91560556000900190887C8DF869
:106AF000080016E000F054F801950023A068D0F8D3
:106B000030010922694601F096FC00200190A0683E
:106B1000D0F830110091807C8DF80800A068C0F892
:106B2000305100F037F8A068817C4A1C00F1140154
:106B30000923284601F07FFC37BD3EB50446A06816
:106B4000D0F834512DB3002309226946284601F0BC
:106B500077FCA1680198C1F834010921684601F069
:106B600045FB00F017F8284601F000FCA06800F58E
:106B70009871486808B9086037BD00F011F8002026
:106B800000900023A068D0F834010922694601F082
:106B900052FC37BD002309226946284601F04BBC50
:106BA00000230922694601F04BBC70B5044684B04D
:106BB00000F038F8C5B2A06800F598700021816037
:106BC0007DB30068E0B1FFF7EBFF9DF80800854258
:106BD00016D1A668421CD6F83001092306F19401AB
:106BE00001F02EFCA66806F1940106F1140001F0F4
:106BF000CDFA10B986F894007FBD002086F8940085
:106C00000826606905F10A0101F07EFB20B101460A
:106C10002046FFF75FFF7FBD2046FFF78EFF761E01
:106C2000EFD17FBDA0681430FFF7EABAF8B504468B
:106C30000D46A068C37C817C1646CF1A56FA81F1B6
:106C40008029FFB22CDA5EB31918F31818187A1CD1
:106C500000F027F8A068C37C18183246294600F0D7
:106C600021F8FFF7DFFFA168887430A200F01DF85B
:106C700000F1140300F004FCA068C17C7118C17419
:106C80002046FFF7C2FA18B92046FFF7C6FA08B146
:106C900000F0B2F927B12046BDE8F240FFF7B8BBDB
:106CA000F1BD1431143001F0B1BAA068C17C0818EC
:106CB00070472DE9F0410D0082B00446174603D11C
:106CC000A168002048742EE0D6A600F035F8C71958
:106CD00000F032F8A168497B081AFFB2B0FBF7F860
:106CE0002846FFF78DFA3F1AA068417C4A1C42747F
:106CF0005FFA88F291FBF2F002FB101040B90095A8
:106D000033460FF22C020721204600F097FC04E0E6
:106D10002B4606A2072100F0B4FBF9B22046BDE8DD
:106D2000FC41FFF751BBBDE8F38100002573000073
:106D30000D0A2573257300003046FFF761BA2DE96F
:106D4000F04F9DB0044600250695A946A068817CB9
:106D5000C1F17F085FFA88F8B8F1000FAA4600F089
:106D60001A81C27C00F11401943001F087FBA06805
:106D7000C27C101880F89450FFF797FFC07C01F098
:106D800095FA00B1012005900C23A068C0F8385195
:106D900000F194020FA904A8FFF770FD0F98FFF708
:106DA0002FFAC6B2039501950295049828B105986B
:106DB00004990818401E81455BD3059808B1002648
:106DC00005E00FA850F82900FFF71AFAC6B200270D
:106DD00000F007F901987F1C002872D0D0F800B0AD
:106DE0000FA8324650F82900594601F072FB0028DE
:106DF000029802D00028EBD055E068B9781E0690C2
:106E00005846FFF7FDF95FFA80FAAAEB0600404505
:106E100023DA5FFA80F820E05846FFF7F1F9C0B2B4
:106E20008245B8BF8246B8F1000F16D00BA800F01B
:106E3000D1F80298006831180198006832180020D3
:106E4000835C3BB1455CAB4204D1401CC0B200281E
:106E5000F6D1FF204045B8BF80467D1E01980290C4
:106E6000002FB5D10FF234120421204600F0E6FBCA
:106E700019E0002700F0B5F87F1C06D104210FF2BD
:106E80001C12204600F0DAFB85E001980028FBD0B8
:106E900001680FA850F8290001F078F90028E9D11D
:106EA000019880680390039858B1019848B109F19E
:106EB00001005FFA80F90498059908188145FFF4EC
:106EC00074AF0298002866D00698A84244D103986F
:106ED000007810B107A800F07DF8029800F05EFD80
:106EE000B04201D000F08BF8FFF7DFFE007D01F02B
:106EF000DDF90028A06819D1D0F83C11C90710D5D8
:106F0000D0F83C1149084900C0F83C112046202126
:106F1000FFF7C7FB00F0C6FB41F00101C0F83C11D0
:106F200039E020212046FFF7BCFB34E012304178E5
:106F3000007881422FD200F05CF8857800F065F887
:106F4000FFF7EDF98078854203D1012100F01BFCA9
:106F500021E000F051F81EE0524600212046FFF7E4
:106F6000A8FE069F08E000F03CF801980168524630
:106F70002046FFF79EFE7F1CBD42F4D223680FF22D
:106F80004C02032100F07DFA00F045F82046FFF79F
:106F90003FFA00F034F81DB0BDE8F08F5461622074
:106FA00066756E6374696F6E3A20636F6D6D616EA6
:106FB000647320636F756E746572206F7665726698
:106FC0006C6F7765642E0D0A000000000D0A2573B2
:106FD00000000000009002AB03982A464946FFF7E4
:106FE00066B907A8009001AB03983A464946FFF7F7
:106FF0005EB92046FFF793B92046FFF7D3B9029850
:10700000006831184246204610E6A068C17C491C41
:10701000C17420467047A06800F1140304A208213F
:1070200020460BE320200000802700203C4903007D
:107030002573000030B583B004460020019001E0C4
:107040000021017000F0F7F8019800B937BD9DF8F4
:1070500000008028F6D2C046C046A168481C0278CD
:10706000032AEDD8DFE802F0036B7102E8E79DF830
:107070000020237E9A420ED1407C20B9C1F838010D
:10708000FFF7BAFF02E0204600F01FF90221204678
:10709000FFF785FC37BD002AD4D0082A11D0092A71
:1070A00006D01B2A02D07F2A14D01CE00121C8E799
:1070B00001F59C7040680007C4D52046FFF73FFEED
:1070C000C0E701F59C7040680007BBD52046FFF77C
:1070D00059FBB7E701F59C7040680007B2D5204620
:1070E000FFF78CFBAEE71546A5F120005F2808D31B
:1070F000284601F0C7F820B9284601F0CDF800284D
:10710000A0D000F0CFFA09079DF8001003D5204663
:10711000FFF7C7FA96E710F8122F7F2A92DA427823
:10712000531C4370A068101801750021A068C27C30
:1071300010180175A068817C491C817482E79DF854
:1071400000105B2992D102217BE70022027001F539
:107150009C714A6812079DD59DF80020312A59D0AC
:10716000322A5DD0332A62D0342A4DD0412A0CD045
:10717000422A0FD0432A0FD0442A2AD0462A45D08B
:10718000482A49D04C2A4DD05CE701212046FFF720
:1071900019FC57E70021F9E7FFF72BFF0546287890
:1071A0006978884202BFA978EA789142F1D069797A
:1071B00088420AD10121FFF797F9697900F0AEFE04
:1071C000A068C17C491CC1743CE7012100F0DBFAD6
:1071D000F6E7FFF70EFF0546A9792878491C884293
:1071E00004BFA9780129EFD0012809D1012100F0BD
:1071F00076FC697900F0C7FAA068C17C491EE2E715
:10720000012100F08BFEF7E7032101702046FFF714
:1072100049F917E7032101702046FFF722F911E72A
:1072200003220270486880F0010048600AE70322E8
:107230000270486851E701AB012269462046FFF71A
:1072400030B870B504460025A068007D002833D012
:10725000A06828186D1C007D01F028F830B1EDB24F
:10726000002DF5D1A1680020087570BD6D1E08D0F5
:10727000A068817C491C4A1B2918FFF712FD00F009
:107280001CF80025A068817C081800F1130601E0B5
:107290006D1C761E307801F009F80028F8D1A0683E
:1072A000817C0A181332964206D0EDB2491B0818A9
:1072B0000021017500F001F870BDA068817C491BB8
:1072C0008174A068817CC17470472DE9F04F95B03E
:1072D0000446FFF7B6FF2046FFF767FC2046FFF79E
:1072E000E1F820460025FEF790FFA84608B9FFF711
:1072F00083FEA06800F114020C2308A902A8FFF77E
:10730000BDFA029911B9FFF777FE98E030B1034654
:107310000FF23012022100F0B4F890E0DFF8300BE9
:10732000DFF8301BDFF830AB401A00274FEAD009F6
:107330004F450AD30FF22410089B0FF2341200902D
:107340000221204600F07AF979E00AEBC70670685E
:107350000168089800F01AFF10B17F1CB945E7D208
:107360000195A9467068C168039109B1A168486098
:107370004FF0010A7068866811E0016808A850F8AB
:107380002A0000F003FF58B90198C06818B15546AB
:10739000A7F10108B146019886680AF1010A0027A1
:1073A0000298824521D208A89EA150F82AB05846DA
:1073B00000F0ECFE28B10FF2C001584600F0E6FEE6
:1073C00030B900F06FF941F00201C0F83C110CE057
:1073D00004A8009001AB3A4651463046FEF767FFDD
:1073E0007F1C1CBF01980028C7D1B9F1000F12D033
:1073F00004A8009001AB424629464846FEF757FFD5
:10740000A3680198586008A800EB85025B680298A1
:10741000DB68411B04E0039828B10299039B08AA8A
:107420002046984705E00FF2BC720221204600F08A
:1074300005F900F037F921F00201C0F83C1115B050
:10744000BDE8F08F6E6F74207465726D696E617443
:1074500065643A2025630D0A000000003A20636F3E
:107460006D6D616E64206E6F7420666F756E640062
:10747000257325730D0A00002D2D68656C700000C2
:1074800008212046DAE00968006800F07FBE30B1CC
:107490008868D0F83C1141F02001C0F83C117047D9
:1074A00070B504461546E068DFF8B029406884608E
:1074B0002346606806683668B047002841D1606995
:1074C00000F020FF00283CD1A06800F59871002250
:1074D0000A604A604FF4A07100F088FEA068DFF8EF
:1074E0007839D0F83C1141F02001C0F83C1100225D
:1074F000D0F83C1165F38201C0F83C11D0F83C1182
:1075000041F00801C0F83C11012101705021417384
:107510001820A168087300F015F8C108DFF84009C9
:1075200006E003EBC2046468246840F82240521C61
:107530008A42F6D321B1DFF82C39042201F061FA36
:10754000002070BDDFF80809DFF80819401A7047FD
:1075500070B504461D46FFF7A3FF06000CD15DB1D0
:107560000499E06801F076FD002801D5042070BD83
:10757000E168C96801204871304670BD38B50446DD
:10758000A0680078012801D0082032BD6068026838
:1075900092680021904705000FD108212046FFF78F
:1075A00033F801212046FFF755F820691EA100F0AD
:1075B000DAFD02212046FFF7F2F9284632BD38B540
:1075C00004461021A06800F59E7002F0E5F8A0685E
:1075D0000078022819D12046FFF72CFD0021204613
:1075E00000F0E3F988B111A523682A460321FFF7CB
:1075F00048FF00F057F8090707D500F114032A46A1
:10760000FFF73EFF2046FEF703FF00F011F8A068E9
:10761000BDE834406FF0100100F59E7002F0D4B860
:10762000000000002D6800000D0A0A00257300000C
:10763000206900F08DBD0023FEF700BE08B470B5D0
:1076400004460FF6342083B0006801900D4607A869
:107650000190164600F026F8C1F3800100291CBFF6
:10766000C07B854214D069462046FFF713F82946AF
:107670002046FEF7C9FF00F010F89DF800102046E4
:10768000FEF7C2FF9DF801102046FEF7E3FF01E080
:1076900000F003F877BC5DF808FB206901AA3146C9
:1076A00002F077B9A068D0F83C1170472DE9F04797
:1076B0000D000446904601D1BDE8F0871BB15FFA8A
:1076C00088F1FEF781FE002700E07F1C785D00F066
:1076D000EDFD0028F9D12846FEF792FDA168497B0F
:1076E0000026C01BA1EB080A824507EB050921D340
:1076F000864213D216F809100A2918D1FFF798FF0D
:107700000023324649462046FEF798FD701CC719F3
:10771000FFF772FC5FFA88F100F035F820697919FB
:1077200000F021FD2046BDE8F047FEF73BBE761C89
:10773000DEE7761C16F8090000F0B8FD20B116F857
:1077400009000A28B24605D0A168497B08EB06006B
:107750008842EED3FFF76CFF00235246494620468D
:10776000FEF76CFD574400E07F1C785D00F09EFD45
:107770000028F9D1FFF740FC5FFA88F100F003F828
:10778000A9E7411AC9B22046FEF71EBE2DE9F44F03
:107790000FF6F8040FF6E807804686B089463846AB
:1077A000FEF72EFD064600F0FCF8009408210FF2CB
:1077B0007472361A00F0DCF803684046FFF73EFFAB
:1077C00000F0D6F800F0EAF805462046FEF718FD6E
:1077D000421900F0CDF8416800F0CEF80FF24C727B
:1077E00008214046FFF72AFF0698002818BFB9F184
:1077F000000FB6B221D000241CE00C2000FB04F5E1
:1078000005EB090ADAF80400FEF7FAFC834655F89E
:107810000900FEF7F5FC5844B1B2814209D2DAF80A
:107820000400FEF7EDFC064655F80900FEF7E8FCFB
:107830008619641C06988442DFD300F0B2F88019E0
:10784000861CB6B2009700F09BF8F01CADF808005B
:107850000023BDF808400FF2E86122464046FFF7DA
:1078600025FFB9F1000F46D0002703E04046FEF7A0
:1078700099FD7F1C069887423DD20C2000FB07959E
:107880006B6828683BB320B3019008210FF2EC70BD
:107890000FF2C0620090B41C4046FFF7CFFE68684C
:1078A000FEF7AEFC83462868FEF7AAFC824600F08D
:1078B00078F8A4EB0B01A1EB0A01891E091AC9B2E1
:1078C0004046FEF781FD3A214046FEF7E5FC641C88
:1078D00007E0009301E020B1009000F051F8BDF8FE
:1078E0000840A9680029C1D0A4B20023224640461E
:1078F000FFF7DCFEBDE700F03BF8856815B907B07F
:10790000BDE8F08F002001900026002708E000F07D
:1079100045F8B1B2814203D2019800F03FF8064623
:1079200000F034F801987F1C0028F0D1012FE6D038
:107930000FF22C6208214046FFF780FE002702E08C
:10794000E21C00F019F800F021F801987F1C0028D3
:10795000D5D000680090B41CA4B2234600F011F802
:10796000019841680029EBD14046FEF71BFDEAE78C
:10797000D8F8080040687047002392B2404695E668
:1079800033460FF2B4520821404657E602A8009051
:1079900001AB3A4601212846FEF789BC0068FEF794
:1079A0002FBC0FF2D860FEF72BBCF0B504468FB0A9
:1079B000E068406800680D46002201A902F09EF9C7
:1079C000002608B1002084E06DB1019800F0E8FCC9
:1079D000A068D0F82C11491CC0F82C1101F0070048
:1079E000012875D10126FFF704FB0546A878022877
:1079F00002D3411E00F072F82878022802D3411EFB
:107A000000F08BFA2046FEF7B6FC36B10FF260525A
:107A100002212046FFF712FE5AE0019800230822B7
:107A200002A900F00DFD049805900825BDF80C0092
:107A3000ADF81800BDF80E00ADF81A0000208DF862
:107A40001D00029800F003000128029816D1850A53
:107A5000C0F3C2008DF81C0008230298C0F38316FF
:107A60000198B20008A900F0EBFC2069009005AB7A
:107A7000324608A9284602F047FA1DE000F003004C
:107A8000022819D10298860DC0F3C2008DF81C009F
:107A90000827082E98BF374601982B463A4608A972
:107AA00000F0CEFC236905AA394608A802F06CFA5A
:107AB0007D19F61B002EEBD1019800F071FCE068F7
:107AC00040680068002201A902F018F90028A4D03B
:107AD00001200FB0F0BDE878A978411AC9B220465C
:107AE000FEF77EBC73B54468A568A86800780428D2
:107AF00017D0032814BF0026012604E086F00101F8
:107B00002846FFF752FF206801A902F0A8F80028D4
:107B1000F4D1019800F040FC1EB100212846FFF787
:107B200044FF73BD10B582B04068846800680022CD
:107B3000694602F0E3F818B900212046FFF735FF47
:107B400013BD10B5406884686068026892680121BE
:107B5000904700280CBF03200420A168087010BDC6
:107B600038B514461A468368D3F83C51AD0703D59F
:107B70002146FFF70BFE07E041B159680FF22042A2
:107B80000B680221FFF75AFD012032BD002032BDF3
:107B900038B50229044608D1A068D0F83C01800716
:107BA00003D52046BDE838402CE0A6A520690FF299
:107BB000E042294600F0D7FA20690FF2D842294660
:107BC000BDE8384000F0CFBA012906D0022905D11E
:107BD0008168D1F83C11890700D513E00FF2040247
:107BE00002212BE5506C65617365207370656369D4
:107BF0006679206120737562636F6D6D616E642EAE
:107C00000D0A000000220021C0E510B5012914BFB3
:107C10000121002100F0AAF828B9FFF743FD21F067
:107C20000401C0F83C1110BD10B5012914BF012199
:107C3000002100F09BF828B9FFF734FD41F0040162
:107C4000C0F83C1110BD30B5012983B0044615467B
:107C500003D103B0BDE83040D4E7022914BF0121AD
:107C6000002100F02EF808B900F04AF937BD7CB5C4
:107C70000D46032D89411646C943044600F020F8FD
:107C8000E8B9022D0CD170680FF230320190022158
:107C90000FF23430009020463368FFF7CFFC73BDFD
:107CA000A0680FF23C32D0F83C01000720464CBFE0
:107CB00065A366A302B0BDE870400821BEE473BDB1
:107CC000C90F002300224BE710B5012914BF012181
:107CD000002100F04BF828B9FFF7E4FC21F008017F
:107CE000C0F83C1110BD10B5012914BF01210021BD
:107CF00000F03CF828B9FFF7D5FC41F00801C0F8C6
:107D00003C1110BDF0B585B0012914BF012100213F
:107D100000F02CF840BBA0680FF2D827D0F83461EF
:107D200000251AE00023092201A9304600F088FB53
:107D30009DF80C00421CA06800F194010923304614
:107D400000F07EFBA068029E943000902B463A46DD
:107D500008212046FFF772FC6D1C0EB1082DE1D3FF
:107D6000A168002081F8940005B0F0BD044600230E
:107D70000022F5E600B5012983B003D103B05DF818
:107D800004EB3FE702290BD1516801910FF2382132
:107D90000091022113680FF22422FFF74FFC07BD68
:107DA0000329894103B0C9435DF804EBC90F0023DF
:107DB0000022D5E63EB5012914BF01210021FFF7BD
:107DC000D5FFC0B9E068406805682846006880684B
:107DD000C0B26422A968019002915043B0FBF1F057
:107DE000C0B200900821A0680FF21422D0F82C3104
:107DF0002046FFF723FC37BD10B5012914BF012130
:107E00000021FFF7B3FF48B9A168C1F82C01E06871
:107E100040680068BDE8104001F0D2BF10BD10B549
:107E2000012914BF01210021FFF7A0FF40B92069FB
:107E30000FF2682203A100F096F9A16800F05AF849
:107E400010BD0000257300006F6E00006F666600B5
:107E50007C4903003C4903003C4903008F74020045
:107E600080270020877402002DE9FC410129044687
:107E7000154635D1A06800F10C0500F10D0620462D
:107E8000FEF734FB00BBA068077A90F80A80FA215D
:107E9000FFF779FCFA21FEF727FB2046FEF726FBC9
:107EA00090B9A068007A3070A068807A2870307825
:107EB000C11B00F032F82878A0EB08012046BDE88D
:107EC000FC41C9B2FEF78CBAA1680FF2701200F043
:107ED00011F8204602B0BDE8F0410421FFF7AEBB27
:107EE00003298941C943FFF7EBFE08B900F008F800
:107EF000BDE8F381502048731820A16808737047CB
:107F000068680FF2B802019002210FF2BC000090E5
:107F100020462B68FFF792BB091AC9B22046FEF72C
:107F200047BA000025732573000000004F70746984
:107F30006F6E733A0D0A00002020252D2A733A0037
:107F400053686F7720636F6D6D616E642068656C38
:107F5000702E00002020257325732573000000007B
:107F6000537562636F6D6D616E64733A0D0A000044
:107F70004C6F7374206C6F6773202D20696E637271
:107F800065617365206C6F67206261636B656E6409
:107F90002071756575652073697A652E0D0A00007C
:107FA00025733A2077726F6E6720706172616D651C
:107FB00074657220636F756E740D0A0025733A251F
:107FC0007325730D0A00000020756E6B6E6F776E5F
:107FD00020706172616D657465723A200000000066
:107FE0004563686F207374617475733A2025730D4F
:107FF0000A0000005B2533645D2025730D0A000034
:108000004C6F7374206C6F67733A2025750D0A4DA1
:108010006178206C6F67207175657565207574696E
:108020006C697A6174696F6E3A2025752525205B2D
:1080300025752F25755D0D0A000000004E6F20721A
:108040006573706F6E73652066726F6D20746865FE
:10805000207465726D696E616C2C20617373756D2F
:1080600065642038307832342073637265656E2021
:1080700073697A650D0A0000000000002C200000E2
:108080002D682C202D2D68656C700000202D20009F
:108090001B5B48001B5B324A000000001B5B3F3348
:1080A0006C00000000F10103810704D010F8011BEF
:1080B00089B18107FAD10268B2F10131914311F01F
:1080C000803F04BF50F8042FF6E710F8011B11B1F0
:1080D00010F8011BFBE7C01A7047F0B40168446850
:1080E0008368091801EB5402E40748BF4B440C3085
:1080F00091422BD011F8014B14F0030504BF11F885
:10810000015BED1C26090F2E07D111F8016B0F360C
:1081100003E011F8017B03F8017B6D1EF9D1002EFD
:10812000E6D0A40811F8015B04F00304032C08BF97
:1081300011F8014B05EB04241C1BB51CD8D014F816
:10814000016B03F8016B6D1EF9D1D1E7F0BC7047EC
:1081500010B50446A2682AB121682069636998476E
:108160000020A06010BD01B970470CB480B50FF2BB
:1081700018021268009202AA00926A4601F009FCF5
:1081800001BC5DF80CFB000000000000820707D076
:1081900010F8012B11F8013BBAB19A42F6D014E065
:1081A00002680B689A42A2F1013301BF934313F0B6
:1081B000803F50F8042F51F8043FF3D010F8012B02
:1081C00011F8013B0AB19A42F8D0D01A70470368FF
:1081D0001AB95A1E026008467047197800290FBF65
:1081E0004FF0FF30591C016018787047002201F0F1
:1081F0004BBF8268521C8260426832B10268531CD5
:10820000036011704168491E4160704781423ABF66
:108210005318984200F022B98018990707D0521ECF
:1082200024BF13F8011D00F8011DF6D8704781071F
:108230001CD1103A07D330B433E93210103A20E998
:108240003210F9D230BC1032121F24BF53F8041D73
:1082500040F8041DF8D838BF121D521E24BF13F871
:10826000011D00F8011DF8D8704700BF083A07D378
:1082700033E90210083A40F804CD40F8041DF7D263
:108280000832EAE710B50446012001F017FF204646
:10829000BDE8104001F024BF10B50446012001F0F4
:1082A0000DFF2046BDE8104001F025BF10B5044683
:1082B000012001F003FF2046BDE8104001F02DBF72
:1082C0005FEA000C830706D011F8013B00F8013B80
:1082D000B3B18307F8D10A68B2F1013323EA02038C
:1082E00013F0803F02BF40F8042B51F8042FF3E74E
:1082F00011F8013B00F8013B13B111F8013BF9E71C
:108300006046704701F06EBF2DE9F04104460F460C
:10831000208B061F204601F07CFF050021D00020A5
:108320002871EE8001206871A846F019C01CB0FBCE
:10833000F6F0C0B2461EC8F80040002707E0697991
:10834000491C6971C8F80000046080467F1CB74270
:1083500009D2204601F05DFF0028F0D1284600F048
:1083600005F8002000E02846BDE8F081F8B5447922
:108370000546611E002200E0521C2D688A42FBD394
:10838000002606E007680146284601F061FF3846EE
:10839000761CA642F6D3F1BD0121001D01F020BAE2
:1083A00010B5044682B00121201D01F025FA00908D
:1083B0009DF8000018B92046BDE81640D6E713BD69
:1083C0002DE9F047C7881668044640798846784307
:1083D000011F03EB060C181D6145B0FBF7F538BF14
:1083E000CE1A07FB15001660002D01E024686D1EF3
:1083F000FCD1391AB2468E4288BF8A46089D4FF09A
:1084000000090AE000F02AF800202468A6EB0A061A
:10841000D144B246BE4288BFBA4656B10019001DCB
:1084200009EB0803002D52461ABF014618461946AB
:10843000E8E7BDE8F08700B583B00192002203E0D1
:1084400000B583B001920122009201AAFFF7B8FFA4
:1084500007BD0268531C03601170704762B38B073D
:1084600008D0521E11F8013B00F8013B00F02480B7
:108470008B07F6D1830740F0208000BF103A07D366
:1084800030B4B1E83810103AA0E83810F9D230BC56
:10849000530724BFB1E80810A0E8081044BF51F802
:1084A000043B40F8043BD20724BF31F8022B20F8EC
:1084B000022B44BF0B7803707047083A07D3B1E82A
:1084C0000810083A40F8043B40F804CBF7D25307B1
:1084D000E4E701E0491C521E6AB10B7890F800C035
:1084E0009C4504D034BF4FF0FF300120704710F896
:1084F000013B002BEED100207047F0B51646402E10
:10850000A1B004460D460AD20EB32078297804F8AB
:10851000011B761E05F8010BF7D121B0F0BD8027B5
:10852000802E98BF37463A4621466846FFF796FFA9
:108530003A4629462046FFF791FF3A4669462846C3
:10854000FFF78CFFF61B3C197D19002EE7D121B0F7
:10855000F0BD2DE9F0411F46402FA0B004460D4666
:1085600090460DD257B3207898F8001004F8011BFC
:108570007F1E297808F8011B05F8010BF3D11DE0D7
:108580008026802F98BF3E46324621466846FFF738
:1085900065FF324641462046FFF760FF32462946D6
:1085A0004046FFF75BFF324669462846FFF756FF15
:1085B000BF1B34197519002FB044E1D120B0BDE8BC
:1085C000F0812DE9F04304460D469046281BA1B0EA
:1085D00008EB00095FEA080616E08027802E98BFA6
:1085E0003746A8EB070041193A466846FFF736FFC1
:1085F000A9EB070221463819FFF708FE3A466946FB
:108600002046FFF72BFFF61BE7D121B0BDE8F08332
:108610002DE9F04104460D46069F16469846214630
:108620002846B847002804D5424629462046FFF789
:1086300064FF29463046B847002804D542463146F3
:108640002846FFF75AFF21462846B847002805D597
:10865000424629462046BDE8F0414EE7BDE8F0819C
:108660002DE9F84F0546009148009846871C0A9E60
:10867000144608FB015908FB075A15E0A742AAEB6C
:10868000080B04D059465046B047002801D57F1E3C
:10869000DA46424651464846FFF72FFF39467800F2
:1086A000D146871C08FB075ABC42E7D20098884293
:1086B00010D2481E440808FB045739464846B047C4
:1086C000012807DB424649463846FFF716FF214698
:1086D000B946EBE7BDE8F18F2DE9F54FA3B01D4694
:1086E00068420E460190BFE0C008401C05FB00F93F
:1086F0002E9800902B46239800EB490209EB0001CD
:10870000FFF786FF2E980090C9F100072B4609EB72
:108710000A02514607EB0A00FFF77AFF2E980090F5
:1087200047442B4642463946A8EB4900FFF770FF05
:108730002E9800902B4623983A4651464844FFF71E
:1087400067FF00E03E462398B04207D201982E9A78
:1087500087193146384690470028F3D00298844262
:1087600007D22E9A314620469047002808BF2C1980
:10877000F4D0A246B04608E02B4622463146504689
:10878000FFF7E7FEAA44AE192C19029882452BD2B6
:108790002E9A514630469047002807D4012823DA04
:1087A0002A4651462046FFF7A8FE2C19AA44ECE7BA
:1087B0002F464FF0800B802F98BFBB465A4641464C
:1087C00003A8FFF74BFE5A4649464046FFF746FED0
:1087D0005A4603A94846FFF741FEB7EB0B07D844BA
:1087E000D944E6D1DDF80080239840451ED2019897
:1087F0002E9A40440090314690470028F2D4012838
:1088000014DA0198DDF800908619402DB046CFD2D9
:10881000002DE7D0284698F8001099F8002008F8B5
:10882000012B401E09F8011BF5D1DBE72398804599
:108830003BD1029882454BD12498400800EB500070
:1088400024902B462398249A301AB0FBF5FA02980C
:10885000001BB0FBF5F62E98009056454ED323989A
:108860005146FFF739FF2394249800284CD0212E3D
:108870004AD32398710805FB010A05FB06000199FC
:10888000029001EB00082398A8EB0000B0FBF5F084
:108890002928564605EB0A04BFF426AF2E9800900F
:1088A0002B4623984246514649E7019840440090A0
:1088B0000298DDF8008082451AD1019804198619C2
:1088C000B0450ED12A4621463046FFF716FE5CE73A
:1088D00054457FF451AF2A4631465046FFF70DFE0E
:1088E00050E72B46324621464046FFF732FE4CE722
:1088F0002A4641465046FFF700FE57E731462046DC
:10890000FFF7EAFE5646AFE7212E54D374080AD08B
:108910002E980090641E23982B4632462146FFF77E
:108920009FFE002CF4D1239805FB060800EB450AB6
:10893000684201900198804423982A464146FFF7F7
:10894000DCFDDDF88C90761E00240227D34618E06B
:108950000198B74200EB0B0405D02E9A21465846E9
:108960009047002801D57F1EA3462A46594648460F
:10897000FFF7C3FD3C467800871C2398D94605FBCA
:10898000070BBE42E4D254B1601E440823982E9ACD
:1089900005FB0407394648469047012804DA022EB1
:1089A000C8D225B0BDE8F08F2A4649463846FFF7C1
:1089B000A4FDB946E7E7022EF3D3239C6842019059
:1089C00004E023982A462146FFF7FBFD761EE8D0F7
:1089D0002C1923992E9A204690470028F1D4A246BC
:1089E000A04600E0C24601982E9A804441462046A7
:1089F00090470028F6D4A245E8D02A4621465046A2
:108A0000E2E780B5009313460A46FFF765FE01BD15
:108A10002DE9F843DFF8A40AFF21816000210160FD
:108A2000416000F21440416001600173DFF8900A78
:108A3000FFF768FC88BB0FF21430DFF8888ADFF894
:108A4000889A01F06DFC00F048FBC408002611E094
:108A5000AE4209D059F8351059F836001422FFF704
:108A600038FD0128A8BF7F1C6D1CA542F0D328F853
:108A70002670761CA64202D200270025F5E70020CA
:108A8000DFF8481A002205E008EB80035A8041F81D
:108A90002020401CA042F7D30020BDE8F28330B56F
:108AA000A9B1DFF82C1ADFF82C2A0568DFF8143A90
:108AB000891A002200E0521CB2EBD10F05D233F824
:108AC0002240AC42F7D1026001E0052030BD002019
:108AD00030BD01B56846FFF7E2FF002803BFDFF8AD
:108AE000E809009950F83100002002BD00000000A4
:108AF000491EDFF8D429032902EBC0000BD8DFE8B8
:108B000001F0020406080220704704207047007933
:108B10007047407970470020704770B5DFF8A4397E
:108B2000DFF8A84903EB810304EB810100EB40046B
:108B300007200D6800FA04F602F00702B543A240D0
:108B40002A430A600021002400FA04F51540E5409C
:108B5000ADB2A94238BF2946E41C0A2CF4D359808F
:108B600070BD32B500250446002B114668460FD073
:108B7000FFF795FFA8B9DFF85419009A51F82210B1
:108B800004EB44000722824002EA0105C54008E0E8
:108B9000FFF785FF28B90099DFF82C0900EBC10029
:108BA0008579E8B232BD00680022C0F3800383B14A
:108BB00000F00302012A02D0022A04D008E00A6869
:108BC000C0F3831001E00A68800D801C80180860E3
:108BD000012210467047F0B5DFF8E05885B005F582
:108BE000836000F025FE05F21446304600F020FEBA
:108BF0006868AF680090002400E00098384005EBFA
:108C000080000C306946FFF7CEFF0028F5D101AA9D
:108C10000099394005EB8101C96842F82010401CD9
:108C20000099491C02280091F2D30199BDF80A006D
:108C300001F00301012909D002290ED1019904464E
:108C40000098890DC91C00EB910005E004460199CC
:108C50000098C1F3831108180090304600F0EAFD37
:108C600008B100986860204605B0F0BD80B50021CD
:108C7000DFF8640800F078FD80F3100002BD2DE9F4
:108C8000F04781461F46089CDFF83088781C20405A
:108C90008A46164608EB8005FFF7E8FF000440EA25
:108CA000194009F00701B201E86042EAC1018905F3
:108CB00004EA0700890D08EB800041EA8A2141F0AF
:108CC0000101C160BDE8F0872DE9F04188461746F3
:108CD000DFF8E8570646002001F03DFC2868C8F898
:108CE0000000B41C00F02AF805F21C480BE001213A
:108CF000404600F075FDFFF76EFF0146404600F06C
:108D00006FFD00F01BF8A042F1D32FB1B00100F4C9
:108D1000707040F0050002E0B00540F006002968E0
:108D2000AA68114005EB8101C860286820182860F6
:108D3000002001F011FC0120BDE8F081A86829683D
:108D4000401C401A6968081870470000E47200204F
:108D50007F000000B87600202DE9F043DFF85C6763
:108D600083B004460D4690469946B768012201A992
:108D70004846FFF7A9FFA8B10198801C002108E030
:108D800007EA000206EB820258F82130D360401C4B
:108D9000491C4945F4D300974A46019B2946204681
:108DA000FFF76DFF96F8200418B100F037F800289F
:108DB000FBD1BDE8F78300230022CDE780B5009208
:108DC00001236A46FFF7C8FF01BD00B583B00092DA
:108DD00001936A46022306E0E0B500920193032363
:108DE000049A02926A46FFF7B7FF07BD00B585B047
:108DF000009201930423069A0292079A0392FFE7D6
:108E00006A46FFF7A9FF05B000BDDFF8B00641686C
:108E1000006881420CBF0120002070472DE9F04F0F
:108E200085B0FFF7F2FFD8B9DFF8904604F5826508
:108E3000A860BFF34F8F6068A6680090304001E0E3
:108E400006EA010004EB80000C306946FFF7ABFE38
:108E500040B1A86830B9206800998142F0D36060C1
:108E60000020F0E04FF0000801A90098304004EB2A
:108E70008000C06841F8280008F101080098401CF3
:108E8000B8F1020F0090F0D30199DFF8340601F039
:108E900003010229019946D18F0DB846502FA8BF72
:108EA000502767F39F5101910199C1F3C20A07F15D
:108EB0000801FFF729FA5FEA00094FD0FFF76CFAC3
:108EC00000F0C2F800983040711C091A8A00BA42BA
:108ED00004EB800019D22AB9BB4604F10C0100262C
:108EE000002705E000F10C01934604F10C06BF1ABF
:108EF0005FFA8BFB08235A464846FFF79CFA5EB19F
:108F00000BF10803FAB2314603E008233A4600F1B8
:108F10000C014846FFF78FFA009808F1030100EBB7
:108F20009100009038E001F00301012969D1019915
:108F3000C1F383110629A8BF0621019A22F4707299
:108F400042EA811101910199C1F3C20AC1F383116F
:108F5000891C8900FFF7D8F95FEA000951D0FFF7B3
:108F60001BFA00F071F808274FF000080FE0009896
:108F7000411C0091304004EB800000F10C013B46A5
:108F800004224846FFF757FA3F1D08F101080198EF
:108F9000C0F383108045EAD32E68A86808B348461A
:108FA000FFF7FEF949E0F0684179C1B1DFF81C151F
:108FB000BDF80820007951F8221000EB400007228C
:108FC00082401140C140BAF1050F08BF4FF0030ABB
:108FD000514504D332681268494630469047F068DC
:108FE0000668002EDFD14846FFF7DAF9002001F0CD
:108FF000B2FAA86808B900986060002001F0ACFAE5
:109000001BE02C6805E02168896820468847E068F5
:109010000468002CF7D1DFF8C404408802280CDB78
:10902000DFF8BC04DFF8AC240FF25051801AC008FE
:10903000000440F00200FFF7BEFEFFF7E6FE00F07E
:10904000010080F00100E0E00023082201A9484669
:10905000FFF7F1B92DE9F04104460D460026DFF88F
:109060005C04D0F8101400E0096849B1C9680A79B5
:10907000B242F9D1761C0A2EF3DB4FF0FF3629E01D
:1090800016F1010F26D0E1680E71E168D0F81024C6
:1090900022B9C0F810440020086006E0D2681268C7
:1090A0000A60D0F81004C06804600027DFF8188454
:1090B0000BE008EBC7003946C279AA4288BF2A46AE
:1090C000E0680079FFF729FD7F1C00F006F8B7EB98
:1090D000D00FEED33046BDE8F081DFF8F403DFF8BF
:1090E000F413401A704710B5DFF8F8030468012143
:1090F000017408E0E1680120487120462168496850
:109100008847E0680468002CF4D110BD2DE9F84FC1
:1091100004460D469246DFF8D003DFF8D0135AF824
:10912000048CDFF8CC93401A00099B46009000267F
:1091300000E0761C009886420ED209EB06174046E6
:10914000B968FFF723F80028F3D12FB153462A4618
:1091500039462046D84707E04346204601B0BDE8DF
:10916000F04F0FF22C420EE1BDE8F18F2DE9F04FE8
:1091700080460D46D648D74985B0401AC0080390AE
:10918000E868407928B90FF2204202214046FEF7F4
:1091900055FA0FF248430FF2244208214046FEF7E9
:1091A0004DFA0FF2444208214046FEF747FA0024E8
:1091B000DFF840A3AFA712E001212046FFF789FCAA
:1091C0000346029608215AF82B000FF25C420190E8
:1091D000641C5AF8290000904046FEF72FFA0398C5
:1091E000844212D2E8680679012300F011F8814622
:1091F000002300F00DF80328B4BF83464FF0030BA3
:10920000834534BF3E46ACA6D6E705B0BDE8F08F37
:10921000012221463046FFF7A4BC13460A46C16826
:10922000A4E7B54B72E770B5164604460D46002319
:109230000022FFF796FCB04201D2002070BD3246FA
:1092400029462046FFF769FC012070BD2DE9FE4F3D
:109250008146C8681546002400790190002D1E46FD
:1092600000F08F8030680FF20C310722FFF731F9E0
:1092700000283ED1012D06D1484603B0BDE8F04F8D
:109280000FF2BC3255E1022D08BF01240027DFF8A0
:10929000648258F8271070680A22FFF71AF910B193
:1092A0007F1C052FF5D3052F03D173680FF2A83269
:1092B00030E0B8460227FFF710FFC008002C0090EE
:1092C0004FD00027009887425BD201985FFA88F25E
:1092D0003946FFF7A8FF50B900213846FFF7F9FBE0
:1092E00003460FF2AC3202214846FEF7A7F97F1C75
:1092F000E8E730680FF274210822FFF7EAF830B986
:10930000012D08BF01244FF000080127D3E733687F
:109310000FF26432484603B0BDE8F04F33E00AF183
:10932000010ADA4527D200215046FFF7D2FB029905
:109330002022FFF7CEF80028F1D1544601985FFAB9
:1093400088F22146FFF76FFF50B900212046FFF752
:10935000C0FB03460FF2383202214846FEF76EF991
:109360007F1CAF420DD256F82700DDF800B0029006
:109370000024A246D5E7E1D156F827300FF2343267
:10938000EAE7BDE8F78F0221FEF758B913460A460F
:10939000C1685BE7594BB9E610B50C460021E160A6
:1093A00061600FF2B431A1600121FFF792FB2060F0
:1093B00010BD0022CA604A6005280FF29C328A6004
:1093C0003ABF4F4A52F82000002008607047C96831
:1093D0000020487170474B4B98E613460A46C16817
:1093E000F5E7C968012048717047474B8EE6134680
:1093F0000A46C168F5E72DE9F04F044683B0A0683E
:10940000D0F83C01800704D5204603B0BDE8F04FFA
:1094100083E0354835490FF2D0270FF2F82B0FF2D1
:10942000EC280FF2A429DFF8C8A0401A050900268D
:1094300008E001910090082193683A462046FEF723
:10944000FDF8761CAE4212D20AEB0612D068017902
:10945000FF2906D193684A4608212046FEF7EEF818
:10946000EFE74079002814BF40465846E1E7BDE8E1
:10947000F78F00002A00000070B50022CA604A6021
:1094800000230FF2DC221A4C8A6000220A6001E0FD
:10949000521C5B1C144D154EAD1BB3EB151F09D2AE
:1094A00004EB0315EE683679FF2EF2D09042EFD12F
:1094B000A868086070BD000000000000A0670020E0
:1094C00098490300F0260020A84603003827002012
:1094D00038470300A8460300BC6B00201C2700206F
:1094E00000470300B06B00200C4B0300EC4A030064
:1094F000EC4A0300882500206D9102004D92020085
:109500009C250020CF930200E39302008168D1F8EC
:109510003C11890700D500E009E000220021FEF798
:1095200035B98168D1F83C11890700D5F5E70FF20C
:10953000F0120221FEF782B800B5012983B004D0F1
:109540008168D1F83C11890703D503B05DF804EBBD
:10955000E3E7516801910FF2E811009102211368CD
:109560000FF2D012FEF76AF807BD0000646973615C
:10957000626C6500656E61626C6500004261636BE0
:10958000656E647320666C75736865640000000026
:10959000496E76616C6964206261636B656E643AE2
:1095A0002025730D0A0000004C6F677320617265FF
:1095B0002068616C746564210D0A0000252D34302B
:1095C00073207C2063757272656E74207C206275D6
:1095D000696C742D696E200D0A0000006D6F647552
:1095E0006C655F6E616D65002D2D2D2D2D2D2D2D42
:1095F0002D2D2D2D2D2D2D2D2D2D2D2D2D2D2D2D9B
:109600002D2D2D2D2D2D2D2D2D2D2D2D2D2D2D2D8A
:109610002D2D2D2D2D2D2D2D2D2D2D2D2D2D2D2D7A
:109620002D2D0D0A00000000252D343073207C20E4
:10963000252D3773207C20257325730D0A0000002B
:1096400042616420706172616D6574657220636F40
:10965000756E742E0D0A0000556E6B6E6F776E205E
:109660007365766572697479206C6576656C3A20ED
:1096700025730D0A00000000556E6B6E6F776E202B
:109680006F7074696F6E3A2025730D0A0000000038
:109690004C6576656C20756E617661696C61626C93
:1096A0006520666F72206D6F64756C653A20257356
:1096B0000D0A0000556E6B6E6F776E206D6F6475CE
:1096C0006C653A25730D0A0025730D0A092D205388
:1096D00074617475733A206465616374697661744A
:1096E00065640D0A0D0A000025730D0A092D20532B
:1096F00074617475733A2025730D0A092D2049444D
:109700003A2025640D0A0D0A00000000656E6162B2
:109710006C65640064697361626C656400000000DC
:109720004E6F7420737570706F727465642E0D0ABD
:109730000000000025733A257325730D0A00000010
:1097400020756E6B6E6F776E20706172616D6574DF
:1097500065723A20000000000100000099930200A9
:10976000000000006030030010B550E8002F0C46E8
:1097700040E8004393F0000FF7D1104610BD000001
:1097800010B550E8002F42EA010440E8004393F08E
:10979000000FF6D1104610BD10B550E8004F44EA56
:1097A000010240E8002393F0000FF6D1104610BDEF
:1097B00010B550E8002F02EA010440E8004393F09E
:1097C000000FF6D1104610BD10B550E8004F04EA66
:1097D000010240E8002393F0000FF6D1104610BDBF
:1097E00010B550E8004F04EB010240E8002393F06D
:1097F000000FF6D1104610BD10B550E8004FA4EB95
:10980000010240E8002393F0000FF6D1104610BD8E
:1098100010B550E8004F8C422CBF621A224640E837
:10982000002393F0000FF4D1104610BD0121A7E7EB
:109830000121B1E70021BBE70021C5E710B582682F
:10984000531C83600468115541688B4224BFBDE8F6
:109850001040FEF77DBC10BD2DE9F84F81468846CB
:1098600092461E4640464FF0010B03E0B0FBFAF073
:109870000BF1010B5045F9D2B34538BFB3460B9DF0
:109880000A9CE8070ED46CB1A80700D50EB12027BA
:1098900000E03027A34505D2394600F078F8641E71
:1098A000002CF7D1012702E0761E0AFB07F7022EF3
:1098B000FAD2B8FBF7F0504528BF0AFB07F7F8D2F9
:1098C0000FF28C21B8FBF7F007FB1088415C00F029
:1098D0005EF8B7FBFAF7002FF2D1E80707D534B1ED
:1098E000A34504D200F052F8641E002CF8D1BDE864
:1098F000F18F2DE9FC4781460D46280092461F4610
:1099000048BF40424FF0010803E090FBFAF008F135
:1099100001085045F9DAB84538BFB8460A9E0B9C95
:1099200026B1002D01D4600700D5761EA00700D512
:109930004FB1E00707D436B1B04504D200F026F8A5
:10994000761E002EF8D1002D02D56D422D2102E0A9
:10995000600702D52B2100F01AF804F0030002285A
:1099600008BF002F08D13EB1B04505D2302100F02C
:109970000EF8761E002EF7D1019400963B46524613
:1099800029464846FFF768FFBDE8F387202148468F
:1099900054E72DE9F0430D0083B08046164600F0F1
:1099A000C98015F8011B002900F0BC80252940F072
:1099B000B380002002E040F001006D1C29782B29C3
:1099C00007D02D29F7D0302908BF40F00200F4D08D
:1099D00002E040F00400F0E700270A2204E002FB66
:1099E00007136D1CA3F130072A2907D131683160B4
:1099F0006D1C51F8043B3160DF1904E02978A1F1B6
:109A000030030A2BEBD3297800232E290BD16D1CB0
:109A100004E002FB03116D1CA1F130032978A1F1D0
:109A200030040A2CF5D3297801E015F8011F6C29C0
:109A300018BF6829F9D025296AD058291ED0632972
:109A40000CD0642918BF69290FD070294AD0732916
:109A50001DD075290FD0782910D05BE030683060B8
:109A600050F8041B3060C9B252E000F065F840467F
:109A7000FFF73FFF4EE000F05FF845E032683260EC
:109A800052F8041B32600190009710223CE03168CC
:109A90003160C00751F8044B31604FF0000909D420
:109AA000B4B12046FEF7FEFA814611E000F04EF810
:109AB00009F1010914F8011B0029F7D1B94529D290
:109AC00047B300F042F87F1EF8E700F03EF87F1E33
:109AD000B94501D2002FF8D114F8011BD1B100F023
:109AE00035F8F9E730683060302150F8047B306099
:109AF00000F02CF8782100F029F8002001900823CC
:109B000008200090102239464046FFF7A5FE01E0EC
:109B100000F01CF86D1C01E000F018F8287800280F
:109B20007FF43FAF98F80C0020B14046BDE8FE43FB
:109B3000FEF70EBBBDE8F7833268326052F8041BB3
:109B40003260019000970A2270472021404675E656
:109B50003031323334353637383941424344454663
:109B60002DE9F04F804689B0D8F80800D0F83C01C4
:109B7000800707D5404609B0BDE8F04F002200211C
:109B8000FDF704BE022908D3404609B0BDE8F04FF6
:109B90000FF238220221FDF751BD1F481F49DFF89F
:109BA00080B0401A1C21B0FBF1F00890002564261B
:109BB00017E00791069406FB09F1B1FBF4F1CDF82B
:109BC0001490049103940290CDF800A07043B0FB70
:109BD000F4F0019008210FF208224046FDF72EFD17
:109BE0006D1C0898854214D21C2000FB05B738680C
:109BF000D0F80890D7F80CA0BC68384600F0CEF832
:109C0000397C7B6900290CBF0FF250210FF25821DB
:109C1000CFE709B0BDE8F08F444B0300284B0300A9
:109C2000284B03008068814234BF481C00207047E5
:109C300001680A684968914201D3881A70478068B0
:109C4000401C801A0818704710B501680C684968F4
:109C5000FFF7E8FFA0420CBF0120002010BD2DE956
:109C6000F04104460E4600F096F82046FFF7ECFF60
:109C700000255FEA00081CBF207C00283CD120683A
:109C8000476800F07FF82168B8F1000F486004D001
:109C9000096800F078F821680860E268012A06D0B7
:109CA000022A08D0042A0BD0082A0ED015E06168D9
:109CB0003078785417E06168308821F8170012E096
:109CC0006168306841F827000DE06268D6E900015C
:109CD00002EBC702C2E9000105E06068314602FB01
:109CE0000700FEF7BBFB00F050F821688A6882424B
:109CF00038BF02468A6000E004253EE02DE9F041CD
:109D000007460C46904600F046F8384600F050F8FA
:109D1000002588BB38680668B8F1000F05D10168D6
:109D20003846FFF77FFF39680860FA68012A06D0D5
:109D3000022A08D0042A0BD0082A0ED015E0786831
:109D4000305C207019E0786830F81600208014E04C
:109D5000786850F8260020600FE0786800EBC600B5
:109D6000D0E90023C4E9002307E0786802FB06017C
:109D70002046FEF773FB00E0052500F008F82846B2
:109D8000BDE8F081416820464CE7204650E70020BE
:109D900000F0E2BB0446002000F0DDBB10B5FFF789
:109DA000F9FFFFF7F2FF0446FFF7F1FF204610BD71
:109DB00000680168406881420CBF012000207047A4
:109DC000006800218160704700000000426164204B
:109DD000617267756D656E7420636F756E740000D7
:109DE00025730D0A092D20456C656D656E74207311
:109DF000697A653A0925640D0A092D205573616752
:109E0000653A092575252520282575206F7574204C
:109E10006F6620257520656C656D656E7473290D00
:109E20000A092D204D6178696D756D3A09257525F2
:109E30002520282575206F7574206F6620257520D4
:109E4000656C656D656E7473290D0A092D204D6F63
:109E500064653A090925730D0A0D0A004F7665728B
:109E6000666C6F77000000004E6F206F766572663B
:109E70006C6F770070B5044682B0E3880D464BB135
:109E80000FF2C0100FF2C4120FF2C8110090284652
:109E9000FEF769F9217A05291CD0607A684E48B12D
:109EA000A088FEF725FE06EB80005FA142692846E8
:109EB000FEF759F9A0880021FEF70BFE0346207A31
:109EC00056F82020284602B0BDE870400FF29C11E1
:109ED000FEF749B973BD38B50C46017A052953A57B
:109EE00008D0407A38B10FF25C124FA12046FEF73D
:109EF0003AF900E01AB129462046FEF734F9204627
:109F0000BDE83240FEF724B92DE9F04385B0814623
:109F10000C9D2E7B002028730C4698461746294638
:109F20004046FFF7A7FF062F25D8DFE807F0040912
:109F30000F1C1A18160049462846FEF714F91AE0B5
:109F4000226849462846FEF70EF914E06368226845
:109F500049462846FEF707F90DE06069039020693D
:109F60000290E06801904946A0680090636822680A
:109F70002846FEF7F8F8002229464046FFF7ABFFD7
:109F80002E7305B0BDE8F0832DE9F84F0D46092D7D
:109F9000044691469A4644D29AF80C800FF2D80BA8
:109FA00000208AF80C0051464846FFF763FF002660
:109FB0001FA7AE4205D2325D59465046FEF7D3F890
:109FC00003E039465046FEF7CEF8761C082EF0D353
:109FD00018A15046FEF7C7F80026AE4213D2375DEF
:109FE000A7F120005F2808D33846FEF74BF920B9C7
:109FF0003846FEF751F900B92E273A460EA15046D1
:10A00000FEF7B1F803E00DA15046FEF7ACF8761C60
:10A01000082EE2D3012251464846FFF75CFF8AF83A
:10A020000C80BDE8F18F0000257300000D0A0000D0
:10A03000202020007C00000025630000200000009C
:10A04000B02500201B5B306D000000001B5B313B26
:10A0500033316D0025734C6F67732064726F7070BD
:10A060006564202825642925730D0A003C25733E6C
:10A070002025733A200000002025303278000000AF
:10A0800062F30F2262F31F4200B500BF1300964631
:10A090009446103928BFA0E80C50FAD85FEA417CFA
:10A0A00028BF0CC048BF40F8042BC90728BF20F8C0
:10A0B000022B48BF00F8012B00BDFEE710B5044697
:10A0C000DFF81800C046C04650F8240010BD80B527
:10A0D000DFF80800C046C046806902BDF4250020B4
:10A0E000A0F161011A2901D20120704741381A28D4
:10A0F0008041C00F7047A0F121010F2921BFA0F1BD
:10A100003A010729A0F15B01062904D37B38042812
:10A110008041C00F704701207047A0F10901052957
:10A1200001D3202801D10120704700207047FEE7AD
:10A130002DE9F043044689B0A068D0F83C018007BF
:10A1400007D5204609B0BDE8F04300220021FDF705
:10A150001DBB022908D3204609B0BDE8F0430FF229
:10A160001C120221FDF76ABA1B481C490FF2201885
:10A17000DFF86C90401A1C21B0FBF1F50026642733
:10A1800025E01C2000FB0690761C036893F804C0B1
:10A19000826841681B68CDF818C0511AD21AD2B231
:10A1A00003920791049117FB02F217FB0CF3B3FB28
:10A1B000F1F3B2FBF1F102910593002101914246C6
:10A1C000018B0091082143692046FDF737FAAE4222
:10A1D000D7D309B0BDE8F083B44903007C4903003C
:10A1E0007C49030010B508B90E2010BD0368416812
:10A1F00082681960521A03E019684C1C1C600A70CE
:10A2000011464A1EC9B203680029F5D10020187111
:10A2100010BD38B50446002000F09DF92068626842
:10A22000016800258A420ED2491E0160E2680B785F
:10A23000258B05FB0325A268511A0279C9B28A420F
:10A2400038BF0A460271002000F086F9284632BD68
:10A2500038B504460D46002000F07DF920680168FD
:10A260004A1C0260E068228B281AB0FBF2F00870EA
:10A270000020BDE8324000F06FB900004261642068
:10A28000617267756D656E7420636F756E74000022
:10A2900025730D0A092D20456C656D656E7420735C
:10A2A000697A653A092564202B2025642062797437
:10A2B0006573206F6620646562756720696E666FDE
:10A2C000726D6174696F6E0D0A092D205573616797
:10A2D000653A092575252520282575206F75742078
:10A2E0006F6620257520656C656D656E7473290D2C
:10A2F0000A092D204D6178696D756D3A092575251E
:10A300002520282575206F7574206F6620257520FF
:10A31000656C656D656E7473290D0A0D0A00000089
:10A3200080680021816001614161C160416001601C
:10A330007047F8B51F0004460D46164605D0A068C4
:10A34000FFF774FA08B11120F2BDA068D4F804C078
:10A350000269C3680CF1010E991A714505D10021FB
:10A360003160CFB1FFF768FA16E00CEA03010CEA9E
:10A370000207B9422FBFAEEB0102D21A6244521C4F
:10A380003368934238BF1A463260226889182960C0
:10A390003268C1685118C1600020F2BD10B58268F2
:10A3A000406893681469401CC01A2018884201D282
:10A3B000042010BDC8189060D0601046FFF73AFA2C
:10A3C00000280CBF0820002010BD2DE9F0410446F4
:10A3D0008846A0681646FFF729FA08B111202AE03E
:10A3E000A06861688268491C891A0269511832683C
:10A3F0008A4238BF114631600F4661688068084064
:10A40000491C0D1ABD4208D223682A464146C0188D
:10A41000FEF724F87F1B0020A84423683A464146F3
:10A42000C018FEF71BF8A068326881685118816077
:10A43000FFF702FA0020BDE8F081F8B51F000446DE
:10A440000D46164606D0A068001DFFF7EFF908B1CB
:10A450001120F2BDA06841698268531A06D100211B
:10A460003160E7B1001DFFF7E7F918E06768394090
:10A470003A40D6F800C0914204D2634588BF634693
:10A48000336005E07A1C521A624588BF624632602A
:10A490002268891829603268416951184161002099
:10A4A000F2BD2DE9F04104468846A0681646001D1D
:10A4B000FFF7BCF908B111202DE0A068816802699E
:10A4C000891A32688A4238BF114631600F46616886
:10A4D0000269806801EA02030840834228BF481CE1
:10A4E000C51ABD4208D2206819182A464046FDF711
:10A4F000B5FF7F1B0023A844206819183A46404640
:10A50000FDF7ACFFA0683268016951180161001DB8
:10A51000FFF792F90020BDE8F08180B580680269FC
:10A5200083689B1A8B4201D2042002BD8918016105
:10A530004161001DFFF780F9002002BD72B6074897
:10A540000168491C0160704704480168491E0160A8
:10A5500000D162B67047F1E7F6E70000B877002057
:10A56000011100EBD161DFF8B42C491152F8212020
:10A57000A0EB4110C24002F00100704728B10FF279
:10A580001001800141F00101084770470000000000
:10A590000338FDD870470000DFF8DC2C0121815022
:10A5A00000F0A5BFDFF8D02C0021815000F09FBF44
:10A5B000DFF8C41C40588DE000F00F01DFF8C82C14
:10A5C00000064CBF10685068C840FCE0DFF8BC0CC7
:10A5D0000168082904D14068401E8041C00F7047BF
:10A5E00000207047DFF8A40C0168082904BF426806
:10A5F000012A09D0082904BF4268022A04D0082988
:10A6000004BF4068032801D1012070470020704733
:10A6100001064CBF0FF210010FF2200100F00F00F5
:10A6200031F910007047000008010C0110011401FD
:10A6300018011C01200124012C010000300134010B
:10A6400038013C014001440148014C015001000027
:10A65000010600F00F004CBF0FF210010FF21801BD
:10A660000122405C02FA00F070470000020304057A
:10A67000060708090B0000000C0D0E0F1011121335
:10A680001400000030B54C689C4204D2002545609F
:10A690000968016007E04360E41A0D6805604C60DA
:10A6A0000868181808609A4203D1200002D00120DF
:10A6B00000E00020C0B230BD4B689A4288BF1A4605
:10A6C0000B68036042604868801A48600868101888
:10A6D0000860486800B10120C0B270474B689A42D8
:10A6E00088BF1A46002A0CBF00230B680360426033
:10A6F0004868801A4860086810180860100018BF81
:10A700000120C0B27047F8B50C4605466068DFF816
:10A71000547C1646864288BF064621683246384633
:10A72000FDF79CFE2F606E606068801B6060206893
:10A7300030182060606800B10120C0B2F2BDF8B5E9
:10A740000C46064660681546854288BF054645B1F9
:10A75000DFF8107C21682A463846FDF77FFE376017
:10A7600001E00020306075606068401B6060206818
:10A7700028182060280018BF0120C0B2F2BDDFF801
:10A78000801C020648BF903100F00F0001EB001062
:10A79000704701064CBF0021102100F00F00401847
:10A7A000C0B270471028ACBF103840F08000C0B273
:10A7B000704701064CBF0421282100F00F0001EB77
:10A7C0008000C0B2E8E600F0010070472DE9F843D0
:10A7D000074600F04BFE3846FFF7D1FF0446380627
:10A7E0004FF00108DFF8806B1DD400F064F8F568C5
:10A7F000E943C140C80703D5384600F0B5FE0FE075
:10A800000020206000F057F808FA00F025EA000068
:10A8100000F050F8B16808FA00F021EA0000B060DA
:10A820000320A0733EE007F00F01082917DA802FFC
:10A83000DFF86C0C08D0490001F2B4710160416886
:10A84000426841F0020106E040F2B47101604168E3
:10A85000426841F00401C9B211434160406800F010
:10A860002AF8D6F80C90B56869EA0501C140C80716
:10A8700018D500F020F808FA00F029EA000000F0EE
:10A8800019F808FA00F02843B06000202060032087
:10A89000A0730FF21C000068716800908DF80270C0
:10A8A0006846884700F009F8BDE8F1830000000021
:10A8B00006000003F06038466BE70020FFF74CBE4F
:10A8C00084E770B5DFF8A04AA168E068090C50EA97
:10A8D000014512E095FAA5F0B0FA80F6F0B2FFF764
:10A8E00061FF00F00F00082804DAF0B2FFF75AFF0A
:10A8F000FFF76CFF0120B0408543EBD140F2FF1021
:10A90000A06070BD80B5DFF8601A002048708870C4
:10A910000FF20C000068496800906846884701BD46
:10A9200001000000704770B50546DFF84C1BDFF8EA
:10A93000384A00200860E07001262846FFF71FFF14
:10A94000817B03291CBF006800280BD12846FFF734
:10A9500020FF06FA00F0C14304F10C00BDE870408E
:10A96000FEF732BF70BD70B50446DFF80C1BDFF890
:10A97000F85982B000200860E87001262046FFF7F1
:10A98000FEFE817B032904D100F017F900F016F8D0
:10A990000EE0006860B900F010F900F00FF80FF257
:10A9A00018000068696800908DF802406846884782
:10A9B00000F097F973BD00000600000006FA00F0F1
:10A9C000C14305F10C00FEF7FFBE38B500F040F8BA
:10A9D0008020FFF7D4FE817B03291CBF006800287C
:10A9E0000BD18020FFF7D5FE05FA00F0C14304F13A
:10A9F0000C00BDE83440FEF7E7BE31BD812092E790
:10AA0000822090E783208EE784208CE785208AE7E8
:10AA1000862088E7872086E738B500F019F8882077
:10AA2000FFF7ADFE817B032901D1882034E0006867
:10AA300058B98820FFF7ADFE00F033F80FF20C0094
:10AA400000F069F8882000F062F831BD06000000CF
:10AA5000DFF8241ADFF87C4B00200860E070012545
:10AA6000704738B5FFF7F4FFFFF789FE817B0329B4
:10AA700001D1002010E0006858B9FFF78AFE00F00D
:10AA800010F80FF6EC3000F046F8002000F03FF828
:10AA900031BD00F04BFD31BDFFF77BFE00F001F84A
:10AAA00031BD05FA00F0C14304F10C00FEF78CBE85
:10AAB000012058E7022056E7032054E7042052E71C
:10AAC000052050E706204EE707204CE710B5DFF8D9
:10AAD000A819DFF8004B82B000200860E070082061
:10AAE000FFF74DFE817B032910D0006870B9082064
:10AAF000FFF74FFE012101FA00F0FFF7D4FF0FF638
:10AB0000743000F008F8082000F001F813BD8DF84B
:10AB1000020068460847006861680090704770B599
:10AB20000FF65430DFF8B04A82B00068009001257B
:10AB3000206EADF802008820FFF72BFE05FA00F624
:10AB4000206850B1C10302D410F1010F05D00820D4
:10AB5000FFF71FFE05FA00F00643DFF8781A886851
:10AB60003043886068464968884773BD10B5DFF890
:10AB7000642A82B0936801248C4023439360D36895
:10AB8000CB405168020604D5DA070AD40FF6EC224E
:10AB900003E0DA0705D40FF6E82212680092FFF707
:10ABA000B6FF13BD10B5DFF82C0A847800F005F865
:10ABB00001462046BDE81040D8E72046E9E5F8B553
:10ABC000DFF8180ADFF80C4A0568A168E068A67883
:10ABD000C94389B241EA00073046FFF7DAFDC740B2
:10ABE000F80744BF3046FFF7F1FD280654BF0020A8
:10ABF0008020A07001260020FFF7CBFD05468020B5
:10AC0000FFF7C7FD06FA05F106FA00F00843FFF763
:10AC10004AFFA5688020FFF7BCFD06FA00F0284334
:10AC2000A0600FF66020FFF776FF68468847F1BD09
:10AC300038B5DFF8AC0900F08DFB00F08DFBE005C6
:10AC4000DFF8245705D5012068700FF63C2000F08E
:10AC50001AF8A00505D5002068700FF6302000F026
:10AC600012F860050ED5687860B100206870012088
:10AC7000DFF8701908605820FFF78EFC0FF61020DF
:10AC800000F001F831BD0068696800906846084727
:10AC900038B5DFF8540900F05DFBFFF797FCB0B161
:10ACA000DFF83009016921F0011201F001111443AC
:10ACB00001610CE094FAA4F0B0FA80F5E8B2FFF775
:10ACC00071FD0121A9408C43E9B2FFF74FFF002C31
:10ACD000F0D1BDE8314004E090FAA0F0B0FA80F085
:10ACE00070472DE9F041DFF8804684B0E078002815
:10ACF00040F0A0800FE00220B073394604F10C0050
:10AD0000FEF762FD0FF68C100068616802908DF806
:10AD10000A5002A88847E068A168084000F08A80CD
:10AD200010F0012F18BF00F00120FFF7D5FF0746F4
:10AD3000FFF738FD0546FFF722FD06460120B84023
:10AD4000C743280605D5B2897168336868469847B5
:10AD50000FE0284600F092FB8046B2897168D6F871
:10AD600000C043466846E047009911B1019941454A
:10AD7000C1D300B93060DFF80017822008600120DD
:10AD8000E07005F00F02A06801993840A0601346FA
:10AD9000B0680818B0602C06019800990AD5082AF6
:10ADA000A8BFDFF8482809DA142212FB03F2DFF803
:10ADB00040380BE0082A04DBDFF8382811605060C7
:10ADC00007E0142212FB03F2DFF82C38D150D1181F
:10ADD0004860FFF7FBFB18B34FF48270FFF7E2FB0C
:10ADE0002846FFF7E6FC0220FFF7C8FB4FF482700D
:10ADF000FFF7DEFB0028EFD01E2000E00220FFF767
:10AE0000BDFBDFF8F80700688006F7D50120FFF7E3
:10AE1000B5FB2846FFF7FCFBFFF7CAFB50B9DBE7A1
:10AE20002846FFF7C6FC2846FFF7F2FBFFF7C0FBFA
:10AE30000028F8D0BDE8FF812DE9F843DFF8C0070E
:10AE4000D0F80080474600264FF00109002F11E09E
:10AE500097FAA7F0B0FA80F0810001F5807409FA42
:10AE600000F520B2FFF7A4FB18B120B2FFF79AFB60
:10AE70002E43AF43ECD1FFF7A9FBDFF8EC14CA78FF
:10AE800082F00102104264D0B00262D5DFF874078C
:10AE900040F2A97202604368DFB217B147683B40D5
:10AEA000DBB240F2AA770760D0F804C05FFA8CF4F6
:10AEB00024B1446804EA0C045FFA84FC40F2AB7EDF
:10AEC000C0F800E04468E5B215B145682C40E4B232
:10AED00040F2AC75056045682B40DBB22BB10D69C3
:10AEE0001D430D6102604360426840F2AD72026032
:10AEF000426802EA0C02D2B232B10B6943EA024361
:10AF00000B6107604260426840F2AE7202604268C4
:10AF10002240D2B25AB1D30748BF46F40006D30646
:10AF200048BF46F00106C0F800E04260406808698A
:10AF300030F001121CBF08F08072164310F0011FA0
:10AF400007D05FEA485204D520F00110086146F4AA
:10AF50008066F00D00F0010536F400060FF2387738
:10AF600009E096FAA6F0B0FA80F457F8240080477A
:10AF700009FA04F08643F4D1FFF7B3FE002D1CBF9D
:10AF8000BDE8F143FFF71BBEBDE8F18370B50100DA
:10AF900001D1072070BDDFF83C160A780AB10820FD
:10AFA00070BD48600025012008704FF4007445F022
:10AFB000800606F00F000828ACBF2146402130462D
:10AFC00000F066F93046FFF7DAFB00F013F8EEDB2D
:10AFD000002505F00F000828ACBF21464021284677
:10AFE00000F056F92846FFF7CAFB00F003F8F0DB43
:10AFF000002070BD002181736D1C0160092D8160EE
:10B000007047DFF8D0050178012901D0082070478A
:10B01000002141600170002070472DE9F041DFF808
:10B02000C0454FF40068C4F8008000F095F9FFF7C0
:10B03000D9FA49F27536DFF8D07570B100F016FA1A
:10B040003968DFF8C80521B93E60032101603E6020
:10B0500001E003210160FFF730FC00F007FA3868D7
:10B0600020B93E60C02078613E6001E0C020786178
:10B07000FFF723FCDFF898550120286000F06CF9F9
:10B0800020680005FCD5C4F8008000F065F900F0E8
:10B09000EDF9386818B93E6078613E6001E0002043
:10B0A0007861FFF759FADFF8F80340F2E3710160C5
:10B0B0004021416000F050F98020E86140F2FF112A
:10B0C00000202863DFF8B023DFF808058160002145
:10B0D000C1601160C170817002210170BDE8F08112
:10B0E00080B500F04AF8DFF81805016841600020DB
:10B0F000DFF81C1500F057F8DFF87C13086000211A
:10B100009948C17001210170FFF76CFAA8B100F0F5
:10B11000ADF9DFF8F414DFF8F4040A6832B949F243
:10B1200075320A60002303600A6001E000210160BB
:10B130000020BDE80240FFF70FBA01BD10B58A4AF2
:10B14000DFF8D0440021517010B9FFF73FFA08B181
:10B15000DFF8C444DFF8A804DFF8C0140460C0209E
:10B1600008708020DFF8B8140860DFF8B8140860B1
:10B170000120DFF8B4140860A1E180B52720FFF7B3
:10B18000EFF978B1FFF79DFBDFF89C14002000F089
:10B190000AF88020DFF8941408604FF0FF30DFF8E1
:10B1A0009014086001BD0860BFF36F8FBFF34F8F2D
:10B1B0007047DFF82004007800B101207047DFF805
:10B1C000140400780228ACBF012000207047002042
:10B1D00010B5FFF7C0F9644840780024E8B1FFF7E4
:10B1E00070FBDFF8FC030168890516D4DFF844140E
:10B1F00001220A600068800548BF0C600DD4DFF8AA
:10B2000008040168012431B949F275310160002256
:10B210004261016001E0002141611EE000E100E0C7
:10B22000002010B5FFF797F94F4840780024002818
:10B230001EBFDFF80004016800290ED0046001245D
:10B24000DFF8C403016831B949F275310160C022E9
:10B250004261016001E0C0214161FFF72EFB204601
:10B2600010BDDFF8CC1301E0DFF89413DFF8C8035A
:10B27000086070470000000000700240DFF85413BF
:10B280000020487070470000107502403001001027
:10B2900010B50C46FFF773FA848110BD80B5FFF737
:10B2A0006EFA808902BDFFF787B9F8B50446FFF74B
:10B2B000CFF9DFF84C1308602046FFF77DF958BB43
:10B2C00004F00F000125220605FA00F0DFF86C13E8
:10B2D00003D50A681043086002E04A6810434860DA
:10B2E00000F03AF814F00F0016D0210614D4082804
:10B2F00012DA00F0BBF8204600F036F9B54EF768D8
:10B30000FFF75BFC05FA00F027EA0000F060002080
:10B31000BDE8F240FFF720B9F1BD10B50446FFF7D4
:10B3200055FA04F00F00012101FA00F0C043220693
:10B33000DFF8081303D50A681040086002E04A6885
:10B340001040486000F008F82046FFF781F9B8493E
:10B35000086010BD04680460BFF36F8FBFF34F8FA8
:10B360007047000080750020B0700020F8B50746D7
:10B370000C46FFF70EFA00F078F80F200742954EC2
:10B3800004D1B078874218BF102438D1B168F06872
:10B39000C94389B20843E840C00748BF11242ED4EE
:10B3A0003846FFF7ECF907F00F010C2212FB0161A0
:10B3B0003A0611D52368143103F06043A268B3F153
:10B3C000005F04D0D2074CBF9D4A9E4A06E0D207D8
:10B3D0004CBF9D4A9D4A01E080319D4A02608CCC61
:10B3E0008CC10C39416000240021816081730121EE
:10B3F000F068A9400843F06080209649086030E07A
:10B40000846E0020F8B504460D46FFF7C2F90646E3
:10B4100000F02CF80F2004426E4F04D1B87884421B
:10B4200018BF10241DD1B968F868C94389B2084310
:10B43000F040C00748BF112413D42046FFF79FF9FE
:10B440000021816000242968016069684160002151
:10B4500081730121F868B1400843F86080207D497C
:10B460000860FFF72AFA2046F2BD05460020FFF7E4
:10B4700072B87948704700001C7C024000F00F0051
:10B48000082805DB54480068C10304D50020704734
:10B49000724951F820007047714925E00000000012
:10B4A0000078024010B50446200606D4204600F07D
:10B4B00009F810B1204600F057F869480460FFF71A
:10B4C0004BFF10BD00F00F01082907DA00064CBF42
:10B4D0006448654850F82100012800D000207047DA
:10B4E00062490860BFF34F8F40F480700860BFF37B
:10B4F0006F8FBFF34F8F704710B50446082100F0DF
:10B50000FDF8364801682170416861708168C26841
:10B5100041EA022161800169426941EA0221A18078
:10B520008169C06941EA0020E08010BD10B5FFF7D5
:10B530004DF858B1EFF3108472B64C20FFF72CF899
:10B540004C20FFF729F884F3108810BDBDE81040A7
:10B550004C20FFF721B85020FFF71EB85420FFF70A
:10B560001BB81C48807870472DE9F0418046FFF7F2
:10B570002DF808F00F040127164D98B1FFF776FF5C
:10B58000AE684046FFF705F907FA00F026EA00002A
:10B59000A86061001B4801F2C57101600021416093
:10B5A000406812E0FEF7D7FFAE684046FFF7F1F8BB
:10B5B00007FA00F026EA0000082CA86005DA2749FF
:10B5C000002041F82400FFF7C7FE0020BDE8F0414D
:10B5D000FEF7C2BFB0700020C07402408074024009
:10B5E00000740240087502406C740240A07602406C
:10B5F00000760240A0770240007702407474024057
:10B60000047302400078024000EC064014ED06404E
:10B61000007502400714C0010714E00127E400E0B0
:10B6200084E200E004E100E00475024084E100E00F
:10B63000087302402C75024004148001107502400A
:10B640003FA7020007A70200DDA60200B9A602007C
:10B6500085A6020004E200E080750020A07402408C
:10B660001875024020740240447402400C75024078
:10B6700006000000060000000000000006000000B8
:10B6800006000001050000000200000003000000A9
:10B69000040000000600000205A9020025A902001E
:10B6A000CBA90200FDA9020001AA020005AA02001E
:10B6B00009AA02000DAA020011AA020015AA02009E
:10B6C000A5AB020019AA020063AA0200B1AA0200F7
:10B6D000B5AA0200B9AA0200BDAA0200C1AA0200CE
:10B6E000C5AA0200C9AA0200CDAA02001FAB02002F
:10B6F00031AC0200BFAB020091AC0200002200F0AE
:10B7000001B8FEE7401810F0030308D0C91A1FD390
:10B71000DB0748BF00F8012D28BF20F8022D1300D9
:10B7200030B414461546103928BF20E93C00FAD839
:10B73000490728BF20E90C0048BF40F8042D8900C4
:10B7400028BF20F8022D48BF00F8012D30BC7047FB
:10B75000C91818BF00F8012DCB0728BF00F8012D2C
:10B760007047FEE72DE9F04F80460FF23060A5B03C
:10B7700015461E46D0E90023CDE91223002004918E
:10B780000D900DF1500A6FF0004900E0651900209E
:10B79000ADF8020012AB4FF0FF3229460DF1020066
:10B7A00001F093F80446012C04DA2878441EA441E1
:10B7B000E443E40FBDF8020025280CBFA4F1010BFF
:10B7C000A346BBF1010F0EDB2F4617F8011B0498AF
:10B7D000C0470028049000F0F3800D98401CBBF196
:10B7E000010B0D90F1D1BDF80200252807D10020F2
:10B7F0000790089009900A900B900C9005E00028A3
:10B80000C4D10D98D2E240F0010015F8011F2029A3
:10B81000F9D023290DD02B2904D02D2906D0302989
:10B820000AD00CE040F0020080B2EEE740F00400E5
:10B83000FAE740F00800F7E740F01000F4E72A29A3
:10B840000ED13168316051F8042B3160002A0F921B
:10B8500004D5514240F004000F9180B26D1C11E0FC
:10B8600000210F9109E00F99494505D001EB8103B3
:10B8700002EB430130390F916D1C2A78A2F130019F
:10B880000A29F0D329782E2903D04FF0FF310E91E9
:10B890001DE015F8011F2A2907D1316831606D1CA0
:10B8A00051F8042B31600E9211E000210E9109E055
:10B8B0000E99494505D001EB810302EB4301303974
:10B8C0000E916D1C2A78A2F130010A29F0D3ADF84F
:10B8D00040000FF2D040297801F008F808B115F8BF
:10B8E000010B8DF842009DF84200682802BF2978BC
:10B8F0006829622005D06C2804BF28786C2803D101
:10B9000071208DF842006D1C14A8069015F8014BAB
:10B91000B4F125002AD01C3800F0D480001F022882
:10B9200040F2D080133800F0F580093800F0CA806A
:10B93000801E00F05C81401E00F03581401E022810
:10B9400040F2C080001F00F02E81401F00F08B806D
:10B95000401E00F0DF80401E35D0C01E0BD0801E80
:10B9600000F0D880C01E00F0D58063E125208DF85E
:10B970005000012067E19DF842006C28306830607B
:10B9800014D050F8047B306005970E9C002C04D531
:10B990003846FCF787FB044606E02246002138467D
:10B9A00000F0B0FF00B1C41B08944DE150F8042B27
:10B9B000306002A9404600F033FA002840F144818B
:10B9C0004FF0FF30F2E1316831603C2451F8040B54
:10B9D00031600021CDE9020114A80590DDE90201E2
:10B9E000069F11B908B90E9AB2B10206120FA0EB68
:10B9F00002123032D2B2631E3A2AA8BF273200099F
:10BA0000DA5540EA0170090908BF00281C4603D036
:10BA1000059AE3199A42E8D3E0190590C4F13C0174
:10BA20000E980891814209DA401A0A904FF6EF7198
:10BA3000BDF840000840ADF8400005E1002840F1A5
:10BA400003819DF8400000F01400102840F0FC80B5
:10BA50000F98079A801A0A9A801A441A012CC0F289
:10BA6000F3800A94F0E09DF8420062281AD068281A
:10BA700006D06A280CD06C281CD0712808D019E098
:10BA80003068306050F8041B30600D980880DBE0AF
:10BA90003068306050F8042B30600D98C117C2E94F
:10BAA0000001D1E03068306050F8041B30600D9820
:10BAB0000870C9E03068306050F8041B30600D98A1
:10BAC0000860C1E03068C01D20F007023260D2E992
:10BAD000000108323260CDE90201002902D5079841
